{
  "contractName": "ExternalStorage",
  "abi": [
    {
      "constant": true,
      "inputs": [
        {
          "name": "record",
          "type": "bytes32"
        }
      ],
      "name": "getUInt256Value",
      "outputs": [
        {
          "name": "",
          "type": "uint256"
        }
      ],
      "payable": false,
      "stateMutability": "view",
      "type": "function"
    },
    {
      "constant": false,
      "inputs": [
        {
          "name": "record",
          "type": "bytes32"
        },
        {
          "name": "value",
          "type": "uint256"
        }
      ],
      "name": "setUInt256Value",
      "outputs": [],
      "payable": false,
      "stateMutability": "nonpayable",
      "type": "function"
    },
    {
      "constant": true,
      "inputs": [
        {
          "name": "record",
          "type": "bytes32"
        }
      ],
      "name": "getUIntValue",
      "outputs": [
        {
          "name": "",
          "type": "uint256"
        }
      ],
      "payable": false,
      "stateMutability": "view",
      "type": "function"
    },
    {
      "constant": false,
      "inputs": [
        {
          "name": "record",
          "type": "bytes32"
        },
        {
          "name": "value",
          "type": "uint256"
        }
      ],
      "name": "setUIntValue",
      "outputs": [],
      "payable": false,
      "stateMutability": "nonpayable",
      "type": "function"
    },
    {
      "constant": true,
      "inputs": [
        {
          "name": "record",
          "type": "bytes32"
        }
      ],
      "name": "getStringValue",
      "outputs": [
        {
          "name": "",
          "type": "string"
        }
      ],
      "payable": false,
      "stateMutability": "view",
      "type": "function"
    },
    {
      "constant": false,
      "inputs": [
        {
          "name": "record",
          "type": "bytes32"
        },
        {
          "name": "value",
          "type": "string"
        }
      ],
      "name": "setStringValue",
      "outputs": [],
      "payable": false,
      "stateMutability": "nonpayable",
      "type": "function"
    },
    {
      "constant": true,
      "inputs": [
        {
          "name": "record",
          "type": "bytes32"
        }
      ],
      "name": "getAddressValue",
      "outputs": [
        {
          "name": "",
          "type": "address"
        }
      ],
      "payable": false,
      "stateMutability": "view",
      "type": "function"
    },
    {
      "constant": false,
      "inputs": [
        {
          "name": "record",
          "type": "bytes32"
        },
        {
          "name": "value",
          "type": "address"
        }
      ],
      "name": "setAddressValue",
      "outputs": [],
      "payable": false,
      "stateMutability": "nonpayable",
      "type": "function"
    },
    {
      "constant": true,
      "inputs": [
        {
          "name": "record",
          "type": "bytes32"
        }
      ],
      "name": "getBytesValue",
      "outputs": [
        {
          "name": "",
          "type": "bytes"
        }
      ],
      "payable": false,
      "stateMutability": "view",
      "type": "function"
    },
    {
      "constant": false,
      "inputs": [
        {
          "name": "record",
          "type": "bytes32"
        },
        {
          "name": "value",
          "type": "bytes"
        }
      ],
      "name": "setBytesValue",
      "outputs": [],
      "payable": false,
      "stateMutability": "nonpayable",
      "type": "function"
    },
    {
      "constant": true,
      "inputs": [
        {
          "name": "record",
          "type": "bytes32"
        }
      ],
      "name": "getBooleanValue",
      "outputs": [
        {
          "name": "",
          "type": "bool"
        }
      ],
      "payable": false,
      "stateMutability": "view",
      "type": "function"
    },
    {
      "constant": false,
      "inputs": [
        {
          "name": "record",
          "type": "bytes32"
        },
        {
          "name": "value",
          "type": "bool"
        }
      ],
      "name": "setBooleanValue",
      "outputs": [],
      "payable": false,
      "stateMutability": "nonpayable",
      "type": "function"
    },
    {
      "constant": true,
      "inputs": [
        {
          "name": "record",
          "type": "bytes32"
        }
      ],
      "name": "getIntValue",
      "outputs": [
        {
          "name": "",
          "type": "int256"
        }
      ],
      "payable": false,
      "stateMutability": "view",
      "type": "function"
    },
    {
      "constant": false,
      "inputs": [
        {
          "name": "record",
          "type": "bytes32"
        },
        {
          "name": "value",
          "type": "int256"
        }
      ],
      "name": "setIntValue",
      "outputs": [],
      "payable": false,
      "stateMutability": "nonpayable",
      "type": "function"
    },
    {
      "constant": true,
      "inputs": [
        {
          "name": "record",
          "type": "address"
        }
      ],
      "name": "getIdValue",
      "outputs": [
        {
          "name": "",
          "type": "uint256"
        }
      ],
      "payable": false,
      "stateMutability": "view",
      "type": "function"
    },
    {
      "constant": false,
      "inputs": [
        {
          "name": "record",
          "type": "address"
        },
        {
          "name": "value",
          "type": "uint256"
        }
      ],
      "name": "setIdValue",
      "outputs": [],
      "payable": false,
      "stateMutability": "nonpayable",
      "type": "function"
    }
  ],
  "bytecode": "0x608060405234801561001057600080fd5b50610c42806100206000396000f3006080604052600436106100e6576000357c0100000000000000000000000000000000000000000000000000000000900463ffffffff16806317e7dd22146100eb5780633562fd20146101345780633eba9ed21461016f57806344bfa56e146101ac5780634c77e5ba146102565780634fa8f923146102c75780635037bb461461030c5780635a2bf25a146103475780636ad9c0f31461039857806387969d7f146103e55780639007127b1461043c578063a209a29c14610481578063a77aa49e1461052b578063bdc963d814610566578063c9a52d2c146105ab578063f586606614610622575b600080fd5b3480156100f757600080fd5b5061011a6004803603810190808035600019169060200190929190505050610699565b604051808215151515815260200191505060405180910390f35b34801561014057600080fd5b5061016d6004803603810190808035600019169060200190929190803590602001909291905050506106cb565b005b34801561017b57600080fd5b506101aa60048036038101908080356000191690602001909291908035151590602001909291905050506106ef565b005b3480156101b857600080fd5b506101db6004803603810190808035600019169060200190929190505050610726565b6040518080602001828103825283818151815260200191508051906020019080838360005b8381101561021b578082015181840152602081019050610200565b50505050905090810190601f1680156102485780820380516001836020036101000a031916815260200191505b509250505060405180910390f35b34801561026257600080fd5b5061028560048036038101908080356000191690602001909291905050506107e3565b604051808273ffffffffffffffffffffffffffffffffffffffff1673ffffffffffffffffffffffffffffffffffffffff16815260200191505060405180910390f35b3480156102d357600080fd5b506102f66004803603810190808035600019169060200190929190505050610828565b6040518082815260200191505060405180910390f35b34801561031857600080fd5b5061034560048036038101908080356000191690602001909291908035906020019092919050505061084c565b005b34801561035357600080fd5b506103966004803603810190808035600019169060200190929190803573ffffffffffffffffffffffffffffffffffffffff16906020019092919050505061086f565b005b3480156103a457600080fd5b506103e3600480360381019080803573ffffffffffffffffffffffffffffffffffffffff169060200190929190803590602001909291905050506108cd565b005b3480156103f157600080fd5b50610426600480360381019080803573ffffffffffffffffffffffffffffffffffffffff169060200190929190505050610915565b6040518082815260200191505060405180910390f35b34801561044857600080fd5b5061046b600480360381019080803560001916906020019092919050505061095e565b6040518082815260200191505060405180910390f35b34801561048d57600080fd5b506104b06004803603810190808035600019169060200190929190505050610983565b6040518080602001828103825283818151815260200191508051906020019080838360005b838110156104f05780820151818401526020810190506104d5565b50505050905090810190601f16801561051d5780820380516001836020036101000a031916815260200191505b509250505060405180910390f35b34801561053757600080fd5b50610564600480360381019080803560001916906020019092919080359060200190929190505050610a40565b005b34801561057257600080fd5b506105956004803603810190808035600019169060200190929190505050610a64565b6040518082815260200191505060405180910390f35b3480156105b757600080fd5b506106206004803603810190808035600019169060200190929190803590602001908201803590602001908080601f0160208091040260200160405190810160405280939291908181526020018383808284378201915050505050509192919290505050610a89565b005b34801561062e57600080fd5b506106976004803603810190808035600019169060200190929190803590602001908201803590602001908080601f0160208091040260200160405190810160405280939291908181526020018383808284378201915050505050509192919290505050610abd565b005b600060056000836000191660001916815260200190815260200160002060009054906101000a900460ff169050919050565b80600160008460001916600019168152602001908152602001600020819055505050565b8060056000846000191660001916815260200190815260200160002060006101000a81548160ff0219169083151502179055505050565b60606004600083600019166000191681526020019081526020016000208054600181600116156101000203166002900480601f0160208091040260200160405190810160405280929190818152602001828054600181600116156101000203166002900480156107d75780601f106107ac576101008083540402835291602001916107d7565b820191906000526020600020905b8154815290600101906020018083116107ba57829003601f168201915b50505050509050919050565b600060036000836000191660001916815260200190815260200160002060009054906101000a900473ffffffffffffffffffffffffffffffffffffffff169050919050565b60008060008360001916600019168152602001908152602001600020549050919050565b806000808460001916600019168152602001908152602001600020819055505050565b8060036000846000191660001916815260200190815260200160002060006101000a81548173ffffffffffffffffffffffffffffffffffffffff021916908373ffffffffffffffffffffffffffffffffffffffff1602179055505050565b80600760008473ffffffffffffffffffffffffffffffffffffffff1673ffffffffffffffffffffffffffffffffffffffff168152602001908152602001600020819055505050565b6000600760008373ffffffffffffffffffffffffffffffffffffffff1673ffffffffffffffffffffffffffffffffffffffff168152602001908152602001600020549050919050565b6000600660008360001916600019168152602001908152602001600020549050919050565b60606002600083600019166000191681526020019081526020016000208054600181600116156101000203166002900480601f016020809104026020016040519081016040528092919081815260200182805460018160011615610100020316600290048015610a345780601f10610a0957610100808354040283529160200191610a34565b820191906000526020600020905b815481529060010190602001808311610a1757829003601f168201915b50505050509050919050565b80600660008460001916600019168152602001908152602001600020819055505050565b6000600160008360001916600019168152602001908152602001600020549050919050565b806004600084600019166000191681526020019081526020016000209080519060200190610ab8929190610af1565b505050565b806002600084600019166000191681526020019081526020016000209080519060200190610aec929190610b71565b505050565b828054600181600116156101000203166002900490600052602060002090601f016020900481019282601f10610b3257805160ff1916838001178555610b60565b82800160010185558215610b60579182015b82811115610b5f578251825591602001919060010190610b44565b5b509050610b6d9190610bf1565b5090565b828054600181600116156101000203166002900490600052602060002090601f016020900481019282601f10610bb257805160ff1916838001178555610be0565b82800160010185558215610be0579182015b82811115610bdf578251825591602001919060010190610bc4565b5b509050610bed9190610bf1565b5090565b610c1391905b80821115610c0f576000816000905550600101610bf7565b5090565b905600a165627a7a72305820facdb0ea7dd1e51674e40da290b9af719c20150844db005adb1936f25c41b7630029",
  "source": "pragma solidity ^0.4.23;\r\n\r\n/**\r\n * @title External Storage Smart Contract\r\n *\r\n * @dev\ta storage contract that allows storage and conversions of different data types based on a standard bytes32 format as required by inheriting contracts\r\n * @author Kelvin Ndereba\r\n * GandH Blockchain Solutions\r\n */\r\n\r\ncontract ExternalStorage{\r\n\r\n    mapping(bytes32 => uint256) UInt256Storage;\r\n\r\n    function getUInt256Value(bytes32 record) public constant returns (uint256){\r\n        return UInt256Storage[record];\r\n    }\r\n\r\n    function setUInt256Value(bytes32 record, uint256 value) public\r\n    {\r\n        UInt256Storage[record] = value;\r\n    }\r\n\r\n    mapping(bytes32 => uint) UIntStorage;\r\n\r\n    function getUIntValue(bytes32 record) public constant returns (uint){\r\n        return UIntStorage[record];\r\n    }\r\n\r\n    function setUIntValue(bytes32 record, uint value) public\r\n    {\r\n        UIntStorage[record] = value;\r\n    }\r\n\r\n    mapping(bytes32 => string) StringStorage;\r\n\r\n    function getStringValue(bytes32 record) public constant returns (string){\r\n        return StringStorage[record];\r\n    }\r\n\r\n    function setStringValue(bytes32 record, string value) public\r\n    {\r\n        StringStorage[record] = value;\r\n    }\r\n\r\n    mapping(bytes32 => address) AddressStorage;\r\n\r\n    function getAddressValue(bytes32 record) public constant returns (address){\r\n        return AddressStorage[record];\r\n    }\r\n\r\n    function setAddressValue(bytes32 record, address value) public\r\n    {\r\n        AddressStorage[record] = value;\r\n    }\r\n\r\n    mapping(bytes32 => bytes) BytesStorage;\r\n\r\n    function getBytesValue(bytes32 record) public constant returns (bytes){\r\n        return BytesStorage[record];\r\n    }\r\n\r\n    function setBytesValue(bytes32 record, bytes value) public\r\n    {\r\n        BytesStorage[record] = value;\r\n    }\r\n\r\n    mapping(bytes32 => bool) BooleanStorage;\r\n\r\n    function getBooleanValue(bytes32 record) public constant returns (bool){\r\n        return BooleanStorage[record];\r\n    }\r\n\r\n    function setBooleanValue(bytes32 record, bool value) public\r\n    {\r\n        BooleanStorage[record] = value;\r\n    }\r\n\r\n    mapping(bytes32 => int) IntStorage;\r\n\r\n    function getIntValue(bytes32 record) public constant returns (int){\r\n        return IntStorage[record];\r\n    }\r\n\r\n    function setIntValue(bytes32 record, int value) public\r\n    {\r\n        IntStorage[record] = value;\r\n    }\r\n\r\n    mapping(address => uint) ProductIndex;\r\n\r\n    function getIdValue(address record) public constant returns (uint){\r\n        return ProductIndex[record];\r\n    }\r\n\r\n    function setIdValue(address record, uint value) public\r\n    {\r\n        ProductIndex[record] = value;\r\n    }\r\n}\r\n",
  "sourcePath": "/home/kelvin/Desktop/AgroAfrica/agroafricachain_solidity/contracts/ExternalStorage.sol",
  "compiler": {
    "name": "solc",
    "version": "0.4.26+commit.4563c3fc.Emscripten.clang"
  },
  "schemaVersion": "3.2.5",
  "updatedAt": "2020-09-29T10:15:22.800Z",
  "devdoc": {
    "author": "Kelvin Ndereba\r GandH Blockchain Solutions\r",
    "methods": {},
    "title": "External Storage Smart Contract\r "
  },
  "userdoc": {
    "methods": {}
  }
}