{
  "contractName": "products",
  "abi": [
    {
      "constant": true,
      "inputs": [
        {
          "name": "",
          "type": "address"
        }
      ],
      "name": "produceList",
      "outputs": [
        {
          "name": "productName",
          "type": "string"
        },
        {
          "name": "pictureLink",
          "type": "string"
        },
        {
          "name": "productPrice",
          "type": "uint256"
        },
        {
          "name": "quantity",
          "type": "uint256"
        },
        {
          "name": "farmer",
          "type": "address"
        },
        {
          "name": "grade",
          "type": "string"
        }
      ],
      "payable": false,
      "stateMutability": "view",
      "type": "function"
    },
    {
      "constant": true,
      "inputs": [],
      "name": "user",
      "outputs": [
        {
          "name": "",
          "type": "address"
        }
      ],
      "payable": false,
      "stateMutability": "view",
      "type": "function"
    },
    {
      "constant": true,
      "inputs": [],
      "name": "noOfproducts",
      "outputs": [
        {
          "name": "",
          "type": "uint256"
        }
      ],
      "payable": false,
      "stateMutability": "view",
      "type": "function"
    },
    {
      "constant": true,
      "inputs": [
        {
          "name": "",
          "type": "bytes32"
        }
      ],
      "name": "productTitle",
      "outputs": [
        {
          "name": "productName",
          "type": "string"
        },
        {
          "name": "pictureLink",
          "type": "string"
        },
        {
          "name": "productPrice",
          "type": "uint256"
        },
        {
          "name": "quantity",
          "type": "uint256"
        },
        {
          "name": "farmer",
          "type": "address"
        },
        {
          "name": "grade",
          "type": "string"
        }
      ],
      "payable": false,
      "stateMutability": "view",
      "type": "function"
    },
    {
      "constant": true,
      "inputs": [],
      "name": "externalStore",
      "outputs": [
        {
          "name": "",
          "type": "address"
        }
      ],
      "payable": false,
      "stateMutability": "view",
      "type": "function"
    },
    {
      "inputs": [
        {
          "name": "_externalStore",
          "type": "address"
        },
        {
          "name": "_user",
          "type": "address"
        }
      ],
      "payable": false,
      "stateMutability": "nonpayable",
      "type": "constructor"
    },
    {
      "anonymous": false,
      "inputs": [
        {
          "indexed": false,
          "name": "_productName",
          "type": "string"
        },
        {
          "indexed": false,
          "name": "_farmer",
          "type": "address"
        },
        {
          "indexed": false,
          "name": "_price",
          "type": "uint256"
        },
        {
          "indexed": false,
          "name": "_grade",
          "type": "string"
        }
      ],
      "name": "addedProducts",
      "type": "event"
    },
    {
      "anonymous": false,
      "inputs": [
        {
          "indexed": false,
          "name": "_prodNm",
          "type": "string"
        },
        {
          "indexed": false,
          "name": "_theFam",
          "type": "address"
        },
        {
          "indexed": false,
          "name": "_prevPrice",
          "type": "uint256"
        },
        {
          "indexed": false,
          "name": "_newPrice",
          "type": "uint256"
        }
      ],
      "name": "newPrice",
      "type": "event"
    },
    {
      "constant": false,
      "inputs": [
        {
          "name": "_name",
          "type": "string"
        },
        {
          "name": "_location",
          "type": "string"
        },
        {
          "name": "_price",
          "type": "uint256"
        },
        {
          "name": "_farmer",
          "type": "address"
        },
        {
          "name": "_grade",
          "type": "string"
        },
        {
          "name": "_quantity",
          "type": "uint256"
        }
      ],
      "name": "addNewProduct",
      "outputs": [
        {
          "name": "",
          "type": "string"
        },
        {
          "name": "",
          "type": "address"
        },
        {
          "name": "",
          "type": "uint256"
        },
        {
          "name": "",
          "type": "string"
        }
      ],
      "payable": false,
      "stateMutability": "nonpayable",
      "type": "function"
    },
    {
      "constant": false,
      "inputs": [
        {
          "name": "_newPrice",
          "type": "uint256"
        },
        {
          "name": "productName",
          "type": "string"
        }
      ],
      "name": "updateProductPrice",
      "outputs": [
        {
          "name": "",
          "type": "string"
        },
        {
          "name": "",
          "type": "address"
        },
        {
          "name": "",
          "type": "uint256"
        },
        {
          "name": "",
          "type": "uint256"
        }
      ],
      "payable": false,
      "stateMutability": "nonpayable",
      "type": "function"
    },
    {
      "constant": false,
      "inputs": [
        {
          "name": "_farmer",
          "type": "address"
        },
        {
          "name": "_productName",
          "type": "string"
        },
        {
          "name": "_pictureLink",
          "type": "string"
        }
      ],
      "name": "setProductPictureLink",
      "outputs": [
        {
          "name": "productName",
          "type": "string"
        },
        {
          "name": "pictureLink",
          "type": "string"
        }
      ],
      "payable": false,
      "stateMutability": "nonpayable",
      "type": "function"
    },
    {
      "constant": true,
      "inputs": [
        {
          "name": "_product",
          "type": "string"
        }
      ],
      "name": "getQuantity",
      "outputs": [
        {
          "name": "",
          "type": "uint256"
        }
      ],
      "payable": false,
      "stateMutability": "view",
      "type": "function"
    },
    {
      "constant": true,
      "inputs": [
        {
          "name": "_product",
          "type": "string"
        }
      ],
      "name": "getFarmer",
      "outputs": [
        {
          "name": "",
          "type": "address"
        }
      ],
      "payable": false,
      "stateMutability": "view",
      "type": "function"
    },
    {
      "constant": true,
      "inputs": [
        {
          "name": "_product",
          "type": "string"
        }
      ],
      "name": "getPrice",
      "outputs": [
        {
          "name": "",
          "type": "uint256"
        }
      ],
      "payable": false,
      "stateMutability": "view",
      "type": "function"
    },
    {
      "constant": true,
      "inputs": [
        {
          "name": "_sender",
          "type": "address"
        },
        {
          "name": "_order",
          "type": "uint256"
        }
      ],
      "name": "amountPayable",
      "outputs": [
        {
          "name": "",
          "type": "uint256"
        }
      ],
      "payable": false,
      "stateMutability": "view",
      "type": "function"
    },
    {
      "constant": true,
      "inputs": [
        {
          "name": "_to",
          "type": "address"
        },
        {
          "name": "_order",
          "type": "uint256"
        }
      ],
      "name": "amountRecievable",
      "outputs": [
        {
          "name": "",
          "type": "uint256"
        }
      ],
      "payable": false,
      "stateMutability": "view",
      "type": "function"
    },
    {
      "constant": true,
      "inputs": [
        {
          "name": "_sender",
          "type": "address"
        },
        {
          "name": "_order",
          "type": "uint256"
        }
      ],
      "name": "amountPayableEth",
      "outputs": [
        {
          "name": "",
          "type": "uint256"
        }
      ],
      "payable": false,
      "stateMutability": "view",
      "type": "function"
    },
    {
      "constant": true,
      "inputs": [
        {
          "name": "_to",
          "type": "address"
        },
        {
          "name": "_order",
          "type": "uint256"
        }
      ],
      "name": "amountRecievableEth",
      "outputs": [
        {
          "name": "",
          "type": "uint256"
        }
      ],
      "payable": false,
      "stateMutability": "view",
      "type": "function"
    },
    {
      "constant": false,
      "inputs": [
        {
          "name": "_to",
          "type": "address"
        },
        {
          "name": "_order",
          "type": "uint256"
        },
        {
          "name": "_amount",
          "type": "uint256"
        }
      ],
      "name": "addAmountRecievable",
      "outputs": [],
      "payable": false,
      "stateMutability": "nonpayable",
      "type": "function"
    },
    {
      "constant": false,
      "inputs": [
        {
          "name": "_to",
          "type": "address"
        },
        {
          "name": "_order",
          "type": "uint256"
        },
        {
          "name": "_amount",
          "type": "uint256"
        }
      ],
      "name": "setAmountRecievable",
      "outputs": [],
      "payable": false,
      "stateMutability": "nonpayable",
      "type": "function"
    },
    {
      "constant": false,
      "inputs": [
        {
          "name": "_sender",
          "type": "address"
        },
        {
          "name": "_order",
          "type": "uint256"
        },
        {
          "name": "_amount",
          "type": "uint256"
        }
      ],
      "name": "setAmountPayable",
      "outputs": [],
      "payable": false,
      "stateMutability": "nonpayable",
      "type": "function"
    },
    {
      "constant": false,
      "inputs": [
        {
          "name": "_sender",
          "type": "address"
        },
        {
          "name": "_order",
          "type": "uint256"
        },
        {
          "name": "_amount",
          "type": "uint256"
        }
      ],
      "name": "addAmountPayable",
      "outputs": [],
      "payable": false,
      "stateMutability": "nonpayable",
      "type": "function"
    },
    {
      "constant": false,
      "inputs": [
        {
          "name": "_to",
          "type": "address"
        },
        {
          "name": "_order",
          "type": "uint256"
        },
        {
          "name": "_amount",
          "type": "uint256"
        }
      ],
      "name": "addAmountRecievableEth",
      "outputs": [],
      "payable": false,
      "stateMutability": "nonpayable",
      "type": "function"
    },
    {
      "constant": false,
      "inputs": [
        {
          "name": "_to",
          "type": "address"
        },
        {
          "name": "_order",
          "type": "uint256"
        },
        {
          "name": "_amount",
          "type": "uint256"
        }
      ],
      "name": "setAmountRecievableEth",
      "outputs": [],
      "payable": false,
      "stateMutability": "nonpayable",
      "type": "function"
    },
    {
      "constant": false,
      "inputs": [
        {
          "name": "_sender",
          "type": "address"
        },
        {
          "name": "_order",
          "type": "uint256"
        },
        {
          "name": "_amount",
          "type": "uint256"
        }
      ],
      "name": "setAmountPayableEth",
      "outputs": [],
      "payable": false,
      "stateMutability": "nonpayable",
      "type": "function"
    },
    {
      "constant": false,
      "inputs": [
        {
          "name": "_sender",
          "type": "address"
        },
        {
          "name": "_order",
          "type": "uint256"
        },
        {
          "name": "_amount",
          "type": "uint256"
        }
      ],
      "name": "addAmountPayableEth",
      "outputs": [],
      "payable": false,
      "stateMutability": "nonpayable",
      "type": "function"
    },
    {
      "constant": false,
      "inputs": [
        {
          "name": "_product",
          "type": "string"
        },
        {
          "name": "_amount",
          "type": "uint256"
        }
      ],
      "name": "setQuantity",
      "outputs": [],
      "payable": false,
      "stateMutability": "nonpayable",
      "type": "function"
    }
  ],
  "bytecode": "0x608060405234801561001057600080fd5b506040516040806200447a8339810180604052810190808051906020019092919080519060200190929190505050600073ffffffffffffffffffffffffffffffffffffffff163373ffffffffffffffffffffffffffffffffffffffff161415151561007a57600080fd5b816000806101000a81548173ffffffffffffffffffffffffffffffffffffffff021916908373ffffffffffffffffffffffffffffffffffffffff16021790555080600260006101000a81548173ffffffffffffffffffffffffffffffffffffffff021916908373ffffffffffffffffffffffffffffffffffffffff160217905550505061436d806200010d6000396000f30060806040526004361061013e576000357c0100000000000000000000000000000000000000000000000000000000900463ffffffff168063019b1e0a1461014357806302139e5a1461031857806315b91727146104cc57806333e3f84b1461052357806342dc4e8b1461057a5780634f8632ba146105d1578063524f388914610628578063551cc76e1461067757806360214942146106d8578063613316041461071d578063664619c7146107745780637205437c1461079f57806386f90c581461080057806387f13cec1461086157806388f1b89b14610a24578063a44b1d9f14610a7b578063a858253714610ad2578063acd13a2814610b21578063b151494214610d69578063c4aab29614610de4578063eaebd9df14610e3b578063f0a5cf2314610e92578063f0f6109914610ee9578063f80ab78f14611016575b600080fd5b34801561014f57600080fd5b50610184600480360381019080803573ffffffffffffffffffffffffffffffffffffffff169060200190929190505050611077565b6040518080602001806020018781526020018681526020018573ffffffffffffffffffffffffffffffffffffffff1673ffffffffffffffffffffffffffffffffffffffff1681526020018060200184810384528a818151815260200191508051906020019080838360005b8381101561020a5780820151818401526020810190506101ef565b50505050905090810190601f1680156102375780820380516001836020036101000a031916815260200191505b50848103835289818151815260200191508051906020019080838360005b83811015610270578082015181840152602081019050610255565b50505050905090810190601f16801561029d5780820380516001836020036101000a031916815260200191505b50848103825285818151815260200191508051906020019080838360005b838110156102d65780820151818401526020810190506102bb565b50505050905090810190601f1680156103035780820380516001836020036101000a031916815260200191505b50995050505050505050505060405180910390f35b34801561032457600080fd5b506103e5600480360381019080803573ffffffffffffffffffffffffffffffffffffffff169060200190929190803590602001908201803590602001908080601f0160208091040260200160405190810160405280939291908181526020018383808284378201915050505050509192919290803590602001908201803590602001908080601f016020809104026020016040519081016040528093929190818152602001838380828437820191505050505050919291929050505061129b565b604051808060200180602001838103835285818151815260200191508051906020019080838360005b8381101561042957808201518184015260208101905061040e565b50505050905090810190601f1680156104565780820380516001836020036101000a031916815260200191505b50838103825284818151815260200191508051906020019080838360005b8381101561048f578082015181840152602081019050610474565b50505050905090810190601f1680156104bc5780820380516001836020036101000a031916815260200191505b5094505050505060405180910390f35b3480156104d857600080fd5b50610521600480360381019080803573ffffffffffffffffffffffffffffffffffffffff16906020019092919080359060200190929190803590602001909291905050506115bc565b005b34801561052f57600080fd5b50610578600480360381019080803573ffffffffffffffffffffffffffffffffffffffff169060200190929190803590602001909291908035906020019092919050505061177b565b005b34801561058657600080fd5b506105cf600480360381019080803573ffffffffffffffffffffffffffffffffffffffff169060200190929190803590602001909291908035906020019092919050505061193a565b005b3480156105dd57600080fd5b506105e6611af9565b604051808273ffffffffffffffffffffffffffffffffffffffff1673ffffffffffffffffffffffffffffffffffffffff16815260200191505060405180910390f35b34801561063457600080fd5b50610661600480360381019080803590602001908201803590602001919091929391929390505050611b1f565b6040518082815260200191505060405180910390f35b34801561068357600080fd5b506106c2600480360381019080803573ffffffffffffffffffffffffffffffffffffffff16906020019092919080359060200190929190505050611cd3565b6040518082815260200191505060405180910390f35b3480156106e457600080fd5b5061071b60048036038101908080359060200190820180359060200191909192939192939080359060200190929190505050611e31565b005b34801561072957600080fd5b50610772600480360381019080803573ffffffffffffffffffffffffffffffffffffffff169060200190929190803590602001909291908035906020019092919050505061209c565b005b34801561078057600080fd5b5061078961225b565b6040518082815260200191505060405180910390f35b3480156107ab57600080fd5b506107ea600480360381019080803573ffffffffffffffffffffffffffffffffffffffff16906020019092919080359060200190929190505050612261565b6040518082815260200191505060405180910390f35b34801561080c57600080fd5b5061084b600480360381019080803573ffffffffffffffffffffffffffffffffffffffff169060200190929190803590602001909291905050506123bf565b6040518082815260200191505060405180910390f35b34801561086d57600080fd5b50610890600480360381019080803560001916906020019092919050505061251d565b6040518080602001806020018781526020018681526020018573ffffffffffffffffffffffffffffffffffffffff1673ffffffffffffffffffffffffffffffffffffffff1681526020018060200184810384528a818151815260200191508051906020019080838360005b838110156109165780820151818401526020810190506108fb565b50505050905090810190601f1680156109435780820380516001836020036101000a031916815260200191505b50848103835289818151815260200191508051906020019080838360005b8381101561097c578082015181840152602081019050610961565b50505050905090810190601f1680156109a95780820380516001836020036101000a031916815260200191505b50848103825285818151815260200191508051906020019080838360005b838110156109e25780820151818401526020810190506109c7565b50505050905090810190601f168015610a0f5780820380516001836020036101000a031916815260200191505b50995050505050505050505060405180910390f35b348015610a3057600080fd5b50610a79600480360381019080803573ffffffffffffffffffffffffffffffffffffffff1690602001909291908035906020019092919080359060200190929190505050612741565b005b348015610a8757600080fd5b50610ad0600480360381019080803573ffffffffffffffffffffffffffffffffffffffff1690602001909291908035906020019092919080359060200190929190505050612900565b005b348015610ade57600080fd5b50610b0b600480360381019080803590602001908201803590602001919091929391929390505050612abf565b6040518082815260200191505060405180910390f35b348015610b2d57600080fd5b50610c48600480360381019080803590602001908201803590602001908080601f0160208091040260200160405190810160405280939291908181526020018383808284378201915050505050509192919290803590602001908201803590602001908080601f016020809104026020016040519081016040528093929190818152602001838380828437820191505050505050919291929080359060200190929190803573ffffffffffffffffffffffffffffffffffffffff169060200190929190803590602001908201803590602001908080601f016020809104026020016040519081016040528093929190818152602001838380828437820191505050505050919291929080359060200190929190505050612c73565b60405180806020018573ffffffffffffffffffffffffffffffffffffffff1673ffffffffffffffffffffffffffffffffffffffff16815260200184815260200180602001838103835287818151815260200191508051906020019080838360005b83811015610cc4578082015181840152602081019050610ca9565b50505050905090810190601f168015610cf15780820380516001836020036101000a031916815260200191505b50838103825284818151815260200191508051906020019080838360005b83811015610d2a578082015181840152602081019050610d0f565b50505050905090810190601f168015610d575780820380516001836020036101000a031916815260200191505b50965050505050505060405180910390f35b348015610d7557600080fd5b50610da260048036038101908080359060200190820180359060200191909192939192939050505061356c565b604051808273ffffffffffffffffffffffffffffffffffffffff1673ffffffffffffffffffffffffffffffffffffffff16815260200191505060405180910390f35b348015610df057600080fd5b50610df9613740565b604051808273ffffffffffffffffffffffffffffffffffffffff1673ffffffffffffffffffffffffffffffffffffffff16815260200191505060405180910390f35b348015610e4757600080fd5b50610e90600480360381019080803573ffffffffffffffffffffffffffffffffffffffff1690602001909291908035906020019092919080359060200190929190505050613765565b005b348015610e9e57600080fd5b50610ee7600480360381019080803573ffffffffffffffffffffffffffffffffffffffff1690602001909291908035906020019092919080359060200190929190505050613924565b005b348015610ef557600080fd5b50610f5a60048036038101908080359060200190929190803590602001908201803590602001908080601f0160208091040260200160405190810160405280939291908181526020018383808284378201915050505050509192919290505050613ae3565b60405180806020018573ffffffffffffffffffffffffffffffffffffffff1673ffffffffffffffffffffffffffffffffffffffff168152602001848152602001838152602001828103825286818151815260200191508051906020019080838360005b83811015610fd8578082015181840152602081019050610fbd565b50505050905090810190601f1680156110055780820380516001836020036101000a031916815260200191505b509550505050505060405180910390f35b34801561102257600080fd5b50611061600480360381019080803573ffffffffffffffffffffffffffffffffffffffff16906020019092919080359060200190929190505050614109565b6040518082815260200191505060405180910390f35b6003602052806000526040600020600091509050806000018054600181600116156101000203166002900480601f0160208091040260200160405190810160405280929190818152602001828054600181600116156101000203166002900480156111235780601f106110f857610100808354040283529160200191611123565b820191906000526020600020905b81548152906001019060200180831161110657829003601f168201915b505050505090806001018054600181600116156101000203166002900480601f0160208091040260200160405190810160405280929190818152602001828054600181600116156101000203166002900480156111c15780601f10611196576101008083540402835291602001916111c1565b820191906000526020600020905b8154815290600101906020018083116111a457829003601f168201915b5050505050908060020154908060030154908060040160009054906101000a900473ffffffffffffffffffffffffffffffffffffffff1690806005018054600181600116156101000203166002900480601f0160208091040260200160405190810160405280929190818152602001828054600181600116156101000203166002900480156112915780601f1061126657610100808354040283529160200191611291565b820191906000526020600020905b81548152906001019060200180831161127457829003601f168201915b5050505050905086565b6060806000600260009054906101000a900473ffffffffffffffffffffffffffffffffffffffff1673ffffffffffffffffffffffffffffffffffffffff16634209fff1876040518263ffffffff167c0100000000000000000000000000000000000000000000000000000000028152600401808273ffffffffffffffffffffffffffffffffffffffff1673ffffffffffffffffffffffffffffffffffffffff168152602001915050602060405180830381600087803b15801561135d57600080fd5b505af1158015611371573d6000803e3d6000fd5b505050506040513d602081101561138757600080fd5b810190808051906020019092919050505080156114985750600260009054906101000a900473ffffffffffffffffffffffffffffffffffffffff1673ffffffffffffffffffffffffffffffffffffffff16634209fff1336040518263ffffffff167c0100000000000000000000000000000000000000000000000000000000028152600401808273ffffffffffffffffffffffffffffffffffffffff1673ffffffffffffffffffffffffffffffffffffffff168152602001915050602060405180830381600087803b15801561145c57600080fd5b505af1158015611470573d6000803e3d6000fd5b505050506040513d602081101561148657600080fd5b81019080805190602001909291905050505b15156114a357600080fd5b846040516020018082805190602001908083835b6020831015156114dc57805182526020820191506020810190506020830392506114b7565b6001836020036101000a0380198251168184511680821785525050505050509050019150506040516020818303038152906040526040518082805190602001908083835b6020831015156115455780518252602082019150602081019050602083039250611520565b6001836020036101000a038019825116818451168082178552505050505050905001915050604051809103902090508360046000836000191660001916815260200190815260200160002060010190805190602001906115a692919061429c565b5084925083915082829250925050935093915050565b600260009054906101000a900473ffffffffffffffffffffffffffffffffffffffff1673ffffffffffffffffffffffffffffffffffffffff16634209fff1336040518263ffffffff167c0100000000000000000000000000000000000000000000000000000000028152600401808273ffffffffffffffffffffffffffffffffffffffff1673ffffffffffffffffffffffffffffffffffffffff168152602001915050602060405180830381600087803b15801561167957600080fd5b505af115801561168d573d6000803e3d6000fd5b505050506040513d60208110156116a357600080fd5b810190808051906020019092919050505015156116bf57600080fd5b61172281600760008673ffffffffffffffffffffffffffffffffffffffff1673ffffffffffffffffffffffffffffffffffffffff16815260200190815260200160002060008581526020019081526020016000205461426790919063ffffffff16565b600760008573ffffffffffffffffffffffffffffffffffffffff1673ffffffffffffffffffffffffffffffffffffffff168152602001908152602001600020600084815260200190815260200160002081905550505050565b600260009054906101000a900473ffffffffffffffffffffffffffffffffffffffff1673ffffffffffffffffffffffffffffffffffffffff16634209fff1336040518263ffffffff167c0100000000000000000000000000000000000000000000000000000000028152600401808273ffffffffffffffffffffffffffffffffffffffff1673ffffffffffffffffffffffffffffffffffffffff168152602001915050602060405180830381600087803b15801561183857600080fd5b505af115801561184c573d6000803e3d6000fd5b505050506040513d602081101561186257600080fd5b8101908080519060200190929190505050151561187e57600080fd5b6118e181600660008673ffffffffffffffffffffffffffffffffffffffff1673ffffffffffffffffffffffffffffffffffffffff16815260200190815260200160002060008581526020019081526020016000205461426790919063ffffffff16565b600660008573ffffffffffffffffffffffffffffffffffffffff1673ffffffffffffffffffffffffffffffffffffffff168152602001908152602001600020600084815260200190815260200160002081905550505050565b600260009054906101000a900473ffffffffffffffffffffffffffffffffffffffff1673ffffffffffffffffffffffffffffffffffffffff16634209fff1336040518263ffffffff167c0100000000000000000000000000000000000000000000000000000000028152600401808273ffffffffffffffffffffffffffffffffffffffff1673ffffffffffffffffffffffffffffffffffffffff168152602001915050602060405180830381600087803b1580156119f757600080fd5b505af1158015611a0b573d6000803e3d6000fd5b505050506040513d6020811015611a2157600080fd5b81019080805190602001909291905050501515611a3d57600080fd5b611aa081600860008673ffffffffffffffffffffffffffffffffffffffff1673ffffffffffffffffffffffffffffffffffffffff16815260200190815260200160002060008581526020019081526020016000205461426790919063ffffffff16565b600860008573ffffffffffffffffffffffffffffffffffffffff1673ffffffffffffffffffffffffffffffffffffffff168152602001908152602001600020600084815260200190815260200160002081905550505050565b600260009054906101000a900473ffffffffffffffffffffffffffffffffffffffff1681565b6000600260009054906101000a900473ffffffffffffffffffffffffffffffffffffffff1673ffffffffffffffffffffffffffffffffffffffff16634209fff1336040518263ffffffff167c0100000000000000000000000000000000000000000000000000000000028152600401808273ffffffffffffffffffffffffffffffffffffffff1673ffffffffffffffffffffffffffffffffffffffff168152602001915050602060405180830381600087803b158015611bde57600080fd5b505af1158015611bf2573d6000803e3d6000fd5b505050506040513d6020811015611c0857600080fd5b81019080805190602001909291905050501515611c2457600080fd5b600460008484604051602001808383808284378201915050925050506040516020818303038152906040526040518082805190602001908083835b602083101515611c845780518252602082019150602081019050602083039250611c5f565b6001836020036101000a03801982511681845116808217855250505050505090500191505060405180910390206000191660001916815260200190815260200160002060020154905092915050565b6000600260009054906101000a900473ffffffffffffffffffffffffffffffffffffffff1673ffffffffffffffffffffffffffffffffffffffff16634209fff1336040518263ffffffff167c0100000000000000000000000000000000000000000000000000000000028152600401808273ffffffffffffffffffffffffffffffffffffffff1673ffffffffffffffffffffffffffffffffffffffff168152602001915050602060405180830381600087803b158015611d9257600080fd5b505af1158015611da6573d6000803e3d6000fd5b505050506040513d6020811015611dbc57600080fd5b81019080805190602001909291905050501515611dd857600080fd5b600760008473ffffffffffffffffffffffffffffffffffffffff1673ffffffffffffffffffffffffffffffffffffffff168152602001908152602001600020600083815260200190815260200160002054905092915050565b600260009054906101000a900473ffffffffffffffffffffffffffffffffffffffff1673ffffffffffffffffffffffffffffffffffffffff16634209fff1336040518263ffffffff167c0100000000000000000000000000000000000000000000000000000000028152600401808273ffffffffffffffffffffffffffffffffffffffff1673ffffffffffffffffffffffffffffffffffffffff168152602001915050602060405180830381600087803b158015611eee57600080fd5b505af1158015611f02573d6000803e3d6000fd5b505050506040513d6020811015611f1857600080fd5b81019080805190602001909291905050501515611f3457600080fd5b611fed81600460008686604051602001808383808284378201915050925050506040516020818303038152906040526040518082805190602001908083835b602083101515611f985780518252602082019150602081019050602083039250611f73565b6001836020036101000a0380198251168184511680821785525050505050509050019150506040518091039020600019166000191681526020019081526020016000206003015461428390919063ffffffff16565b600460008585604051602001808383808284378201915050925050506040516020818303038152906040526040518082805190602001908083835b60208310151561204d5780518252602082019150602081019050602083039250612028565b6001836020036101000a03801982511681845116808217855250505050505090500191505060405180910390206000191660001916815260200190815260200160002060030181905550505050565b600260009054906101000a900473ffffffffffffffffffffffffffffffffffffffff1673ffffffffffffffffffffffffffffffffffffffff16634209fff1336040518263ffffffff167c0100000000000000000000000000000000000000000000000000000000028152600401808273ffffffffffffffffffffffffffffffffffffffff1673ffffffffffffffffffffffffffffffffffffffff168152602001915050602060405180830381600087803b15801561215957600080fd5b505af115801561216d573d6000803e3d6000fd5b505050506040513d602081101561218357600080fd5b8101908080519060200190929190505050151561219f57600080fd5b61220281600860008673ffffffffffffffffffffffffffffffffffffffff1673ffffffffffffffffffffffffffffffffffffffff16815260200190815260200160002060008581526020019081526020016000205461428390919063ffffffff16565b600860008573ffffffffffffffffffffffffffffffffffffffff1673ffffffffffffffffffffffffffffffffffffffff168152602001908152602001600020600084815260200190815260200160002081905550505050565b60015481565b6000600260009054906101000a900473ffffffffffffffffffffffffffffffffffffffff1673ffffffffffffffffffffffffffffffffffffffff16634209fff1336040518263ffffffff167c0100000000000000000000000000000000000000000000000000000000028152600401808273ffffffffffffffffffffffffffffffffffffffff1673ffffffffffffffffffffffffffffffffffffffff168152602001915050602060405180830381600087803b15801561232057600080fd5b505af1158015612334573d6000803e3d6000fd5b505050506040513d602081101561234a57600080fd5b8101908080519060200190929190505050151561236657600080fd5b600860008473ffffffffffffffffffffffffffffffffffffffff1673ffffffffffffffffffffffffffffffffffffffff168152602001908152602001600020600083815260200190815260200160002054905092915050565b6000600260009054906101000a900473ffffffffffffffffffffffffffffffffffffffff1673ffffffffffffffffffffffffffffffffffffffff16634209fff1336040518263ffffffff167c0100000000000000000000000000000000000000000000000000000000028152600401808273ffffffffffffffffffffffffffffffffffffffff1673ffffffffffffffffffffffffffffffffffffffff168152602001915050602060405180830381600087803b15801561247e57600080fd5b505af1158015612492573d6000803e3d6000fd5b505050506040513d60208110156124a857600080fd5b810190808051906020019092919050505015156124c457600080fd5b600560008473ffffffffffffffffffffffffffffffffffffffff1673ffffffffffffffffffffffffffffffffffffffff168152602001908152602001600020600083815260200190815260200160002054905092915050565b6004602052806000526040600020600091509050806000018054600181600116156101000203166002900480601f0160208091040260200160405190810160405280929190818152602001828054600181600116156101000203166002900480156125c95780601f1061259e576101008083540402835291602001916125c9565b820191906000526020600020905b8154815290600101906020018083116125ac57829003601f168201915b505050505090806001018054600181600116156101000203166002900480601f0160208091040260200160405190810160405280929190818152602001828054600181600116156101000203166002900480156126675780601f1061263c57610100808354040283529160200191612667565b820191906000526020600020905b81548152906001019060200180831161264a57829003601f168201915b5050505050908060020154908060030154908060040160009054906101000a900473ffffffffffffffffffffffffffffffffffffffff1690806005018054600181600116156101000203166002900480601f0160208091040260200160405190810160405280929190818152602001828054600181600116156101000203166002900480156127375780601f1061270c57610100808354040283529160200191612737565b820191906000526020600020905b81548152906001019060200180831161271a57829003601f168201915b5050505050905086565b600260009054906101000a900473ffffffffffffffffffffffffffffffffffffffff1673ffffffffffffffffffffffffffffffffffffffff16634209fff1336040518263ffffffff167c0100000000000000000000000000000000000000000000000000000000028152600401808273ffffffffffffffffffffffffffffffffffffffff1673ffffffffffffffffffffffffffffffffffffffff168152602001915050602060405180830381600087803b1580156127fe57600080fd5b505af1158015612812573d6000803e3d6000fd5b505050506040513d602081101561282857600080fd5b8101908080519060200190929190505050151561284457600080fd5b6128a781600660008673ffffffffffffffffffffffffffffffffffffffff1673ffffffffffffffffffffffffffffffffffffffff16815260200190815260200160002060008581526020019081526020016000205461428390919063ffffffff16565b600660008573ffffffffffffffffffffffffffffffffffffffff1673ffffffffffffffffffffffffffffffffffffffff168152602001908152602001600020600084815260200190815260200160002081905550505050565b600260009054906101000a900473ffffffffffffffffffffffffffffffffffffffff1673ffffffffffffffffffffffffffffffffffffffff16634209fff1336040518263ffffffff167c0100000000000000000000000000000000000000000000000000000000028152600401808273ffffffffffffffffffffffffffffffffffffffff1673ffffffffffffffffffffffffffffffffffffffff168152602001915050602060405180830381600087803b1580156129bd57600080fd5b505af11580156129d1573d6000803e3d6000fd5b505050506040513d60208110156129e757600080fd5b81019080805190602001909291905050501515612a0357600080fd5b612a6681600760008673ffffffffffffffffffffffffffffffffffffffff1673ffffffffffffffffffffffffffffffffffffffff16815260200190815260200160002060008581526020019081526020016000205461428390919063ffffffff16565b600760008573ffffffffffffffffffffffffffffffffffffffff1673ffffffffffffffffffffffffffffffffffffffff168152602001908152602001600020600084815260200190815260200160002081905550505050565b6000600260009054906101000a900473ffffffffffffffffffffffffffffffffffffffff1673ffffffffffffffffffffffffffffffffffffffff16634209fff1336040518263ffffffff167c0100000000000000000000000000000000000000000000000000000000028152600401808273ffffffffffffffffffffffffffffffffffffffff1673ffffffffffffffffffffffffffffffffffffffff168152602001915050602060405180830381600087803b158015612b7e57600080fd5b505af1158015612b92573d6000803e3d6000fd5b505050506040513d6020811015612ba857600080fd5b81019080805190602001909291905050501515612bc457600080fd5b600460008484604051602001808383808284378201915050925050506040516020818303038152906040526040518082805190602001908083835b602083101515612c245780518252602082019150602081019050602083039250612bff565b6001836020036101000a03801982511681845116808217855250505050505090500191505060405180910390206000191660001916815260200190815260200160002060030154905092915050565b606060008060606000600260009054906101000a900473ffffffffffffffffffffffffffffffffffffffff1673ffffffffffffffffffffffffffffffffffffffff16634209fff1896040518263ffffffff167c0100000000000000000000000000000000000000000000000000000000028152600401808273ffffffffffffffffffffffffffffffffffffffff1673ffffffffffffffffffffffffffffffffffffffff168152602001915050602060405180830381600087803b158015612d3957600080fd5b505af1158015612d4d573d6000803e3d6000fd5b505050506040513d6020811015612d6357600080fd5b81019080805190602001909291905050501515612d7f57600080fd5b73__ProductsLibrary_______________________637207b3e66000809054906101000a900473ffffffffffffffffffffffffffffffffffffffff168d60405160200180807f50726f647563745f6e616d650000000000000000000000000000000000000000815250600c0182805190602001908083835b602083101515612e1c5780518252602082019150602081019050602083039250612df7565b6001836020036101000a0380198251168184511680821785525050505050509050019150506040516020818303038152906040526040518082805190602001908083835b602083101515612e855780518252602082019150602081019050602083039250612e60565b6001836020036101000a03801982511681845116808217855250505050505090500191505060405180910390208d8d8d8d6040518763ffffffff167c0100000000000000000000000000000000000000000000000000000000028152600401808773ffffffffffffffffffffffffffffffffffffffff1673ffffffffffffffffffffffffffffffffffffffff1681526020018660001916600019168152602001806020018581526020018473ffffffffffffffffffffffffffffffffffffffff1673ffffffffffffffffffffffffffffffffffffffff16815260200180602001838103835287818151815260200191508051906020019080838360005b83811015612f9d578082015181840152602081019050612f82565b50505050905090810190601f168015612fca5780820380516001836020036101000a031916815260200191505b50838103825284818151815260200191508051906020019080838360005b83811015613003578082015181840152602081019050612fe8565b50505050905090810190601f1680156130305780820380516001836020036101000a031916815260200191505b509850505050505050505060006040518083038186803b15801561305357600080fd5b505af4158015613067573d6000803e3d6000fd5b505050508a600360008a73ffffffffffffffffffffffffffffffffffffffff1673ffffffffffffffffffffffffffffffffffffffff16815260200190815260200160002060000190805190602001906130c192919061429c565b5088600360008a73ffffffffffffffffffffffffffffffffffffffff1673ffffffffffffffffffffffffffffffffffffffff1681526020019081526020016000206002018190555087600360008a73ffffffffffffffffffffffffffffffffffffffff1673ffffffffffffffffffffffffffffffffffffffff16815260200190815260200160002060040160006101000a81548173ffffffffffffffffffffffffffffffffffffffff021916908373ffffffffffffffffffffffffffffffffffffffff16021790555085600360008a73ffffffffffffffffffffffffffffffffffffffff1673ffffffffffffffffffffffffffffffffffffffff1681526020019081526020016000206003018190555086600360008a73ffffffffffffffffffffffffffffffffffffffff1673ffffffffffffffffffffffffffffffffffffffff168152602001908152602001600020600501908051906020019061322792919061429c565b508a6040516020018082805190602001908083835b602083101515613261578051825260208201915060208101905060208303925061323c565b6001836020036101000a0380198251168184511680821785525050505050509050019150506040516020818303038152906040526040518082805190602001908083835b6020831015156132ca57805182526020820191506020810190506020830392506132a5565b6001836020036101000a038019825116818451168082178552505050505050905001915050604051809103902090508a600460008360001916600019168152602001908152602001600020600001908051906020019061332b92919061429c565b5088600460008360001916600019168152602001908152602001600020600201819055508760046000836000191660001916815260200190815260200160002060040160006101000a81548173ffffffffffffffffffffffffffffffffffffffff021916908373ffffffffffffffffffffffffffffffffffffffff160217905550856004600083600019166000191681526020019081526020016000206003018190555086600460008360001916600019168152602001908152602001600020600501908051906020019061340192919061429c565b5060018054016001819055507f161fa0f5faf548199de09e8e15c3677481bcde29b2f428b9bdfd54a5c8da57bc8b898b8a60405180806020018573ffffffffffffffffffffffffffffffffffffffff1673ffffffffffffffffffffffffffffffffffffffff16815260200184815260200180602001838103835287818151815260200191508051906020019080838360005b838110156134ae578082015181840152602081019050613493565b50505050905090810190601f1680156134db5780820380516001836020036101000a031916815260200191505b50838103825284818151815260200191508051906020019080838360005b838110156135145780820151818401526020810190506134f9565b50505050905090810190601f1680156135415780820380516001836020036101000a031916815260200191505b50965050505050505060405180910390a18a888a899450945094509450509650965096509692505050565b6000600260009054906101000a900473ffffffffffffffffffffffffffffffffffffffff1673ffffffffffffffffffffffffffffffffffffffff16634209fff1336040518263ffffffff167c0100000000000000000000000000000000000000000000000000000000028152600401808273ffffffffffffffffffffffffffffffffffffffff1673ffffffffffffffffffffffffffffffffffffffff168152602001915050602060405180830381600087803b15801561362b57600080fd5b505af115801561363f573d6000803e3d6000fd5b505050506040513d602081101561365557600080fd5b8101908080519060200190929190505050151561367157600080fd5b600460008484604051602001808383808284378201915050925050506040516020818303038152906040526040518082805190602001908083835b6020831015156136d157805182526020820191506020810190506020830392506136ac565b6001836020036101000a03801982511681845116808217855250505050505090500191505060405180910390206000191660001916815260200190815260200160002060040160009054906101000a900473ffffffffffffffffffffffffffffffffffffffff16905092915050565b6000809054906101000a900473ffffffffffffffffffffffffffffffffffffffff1681565b600260009054906101000a900473ffffffffffffffffffffffffffffffffffffffff1673ffffffffffffffffffffffffffffffffffffffff16634209fff1336040518263ffffffff167c0100000000000000000000000000000000000000000000000000000000028152600401808273ffffffffffffffffffffffffffffffffffffffff1673ffffffffffffffffffffffffffffffffffffffff168152602001915050602060405180830381600087803b15801561382257600080fd5b505af1158015613836573d6000803e3d6000fd5b505050506040513d602081101561384c57600080fd5b8101908080519060200190929190505050151561386857600080fd5b6138cb81600560008673ffffffffffffffffffffffffffffffffffffffff1673ffffffffffffffffffffffffffffffffffffffff16815260200190815260200160002060008581526020019081526020016000205461426790919063ffffffff16565b600560008573ffffffffffffffffffffffffffffffffffffffff1673ffffffffffffffffffffffffffffffffffffffff168152602001908152602001600020600084815260200190815260200160002081905550505050565b600260009054906101000a900473ffffffffffffffffffffffffffffffffffffffff1673ffffffffffffffffffffffffffffffffffffffff16634209fff1336040518263ffffffff167c0100000000000000000000000000000000000000000000000000000000028152600401808273ffffffffffffffffffffffffffffffffffffffff1673ffffffffffffffffffffffffffffffffffffffff168152602001915050602060405180830381600087803b1580156139e157600080fd5b505af11580156139f5573d6000803e3d6000fd5b505050506040513d6020811015613a0b57600080fd5b81019080805190602001909291905050501515613a2757600080fd5b613a8a81600560008673ffffffffffffffffffffffffffffffffffffffff1673ffffffffffffffffffffffffffffffffffffffff16815260200190815260200160002060008581526020019081526020016000205461428390919063ffffffff16565b600560008573ffffffffffffffffffffffffffffffffffffffff1673ffffffffffffffffffffffffffffffffffffffff168152602001908152602001600020600084815260200190815260200160002081905550505050565b6060600080600080600080600089111515613afd57600080fd5b600260009054906101000a900473ffffffffffffffffffffffffffffffffffffffff1673ffffffffffffffffffffffffffffffffffffffff16634209fff1336040518263ffffffff167c0100000000000000000000000000000000000000000000000000000000028152600401808273ffffffffffffffffffffffffffffffffffffffff1673ffffffffffffffffffffffffffffffffffffffff168152602001915050602060405180830381600087803b158015613bba57600080fd5b505af1158015613bce573d6000803e3d6000fd5b505050506040513d6020811015613be457600080fd5b81019080805190602001909291905050501515613c0057600080fd5b8760405160200180807f50726f647563745f6e616d650000000000000000000000000000000000000000815250600c0182805190602001908083835b602083101515613c615780518252602082019150602081019050602083039250613c3c565b6001836020036101000a0380198251168184511680821785525050505050509050019150506040516020818303038152906040526040518082805190602001908083835b602083101515613cca5780518252602082019150602081019050602083039250613ca5565b6001836020036101000a0380198251168184511680821785525050505050509050019150506040518091039020925073__ProductsLibrary_______________________63e0c7d4146000809054906101000a900473ffffffffffffffffffffffffffffffffffffffff16858c6040518463ffffffff167c0100000000000000000000000000000000000000000000000000000000028152600401808473ffffffffffffffffffffffffffffffffffffffff1673ffffffffffffffffffffffffffffffffffffffff1681526020018360001916600019168152602001828152602001935050505060206040518083038186803b158015613dc957600080fd5b505af4158015613ddd573d6000803e3d6000fd5b505050506040513d6020811015613df357600080fd5b81019080805190602001909291905050505060046000846000191660001916815260200190815260200160002060020154915060046000846000191660001916815260200190815260200160002060040160009054906101000a900473ffffffffffffffffffffffffffffffffffffffff1690508860046000856000191660001916815260200190815260200160002060020181905550886003600060046000876000191660001916815260200190815260200160002060040160009054906101000a900473ffffffffffffffffffffffffffffffffffffffff1673ffffffffffffffffffffffffffffffffffffffff1673ffffffffffffffffffffffffffffffffffffffff168152602001908152602001600020600201819055507ff1dae67cdabf27cc0f337e5041d035efeeade2b10ee15eb27125f721e06022748882848c60405180806020018573ffffffffffffffffffffffffffffffffffffffff1673ffffffffffffffffffffffffffffffffffffffff168152602001848152602001838152602001828103825286818151815260200191508051906020019080838360005b83811015613fb2578082015181840152602081019050613f97565b50505050905090810190601f168015613fdf5780820380516001836020036101000a031916815260200191505b509550505050505060405180910390a187818373__ProductsLibrary_______________________63f210cb886000809054906101000a900473ffffffffffffffffffffffffffffffffffffffff16886040518363ffffffff167c0100000000000000000000000000000000000000000000000000000000028152600401808373ffffffffffffffffffffffffffffffffffffffff1673ffffffffffffffffffffffffffffffffffffffff16815260200182600019166000191681526020019250505060206040518083038186803b1580156140ba57600080fd5b505af41580156140ce573d6000803e3d6000fd5b505050506040513d60208110156140e457600080fd5b8101908080519060200190929190505050965096509650965050505092959194509250565b6000600260009054906101000a900473ffffffffffffffffffffffffffffffffffffffff1673ffffffffffffffffffffffffffffffffffffffff16634209fff1336040518263ffffffff167c0100000000000000000000000000000000000000000000000000000000028152600401808273ffffffffffffffffffffffffffffffffffffffff1673ffffffffffffffffffffffffffffffffffffffff168152602001915050602060405180830381600087803b1580156141c857600080fd5b505af11580156141dc573d6000803e3d6000fd5b505050506040513d60208110156141f257600080fd5b8101908080519060200190929190505050151561420e57600080fd5b600660008473ffffffffffffffffffffffffffffffffffffffff1673ffffffffffffffffffffffffffffffffffffffff168152602001908152602001600020600083815260200190815260200160002054905092915050565b6000818301905082811015151561427a57fe5b80905092915050565b600082821115151561429157fe5b818303905092915050565b828054600181600116156101000203166002900490600052602060002090601f016020900481019282601f106142dd57805160ff191683800117855561430b565b8280016001018555821561430b579182015b8281111561430a5782518255916020019190600101906142ef565b5b509050614318919061431c565b5090565b61433e91905b8082111561433a576000816000905550600101614322565b5090565b905600a165627a7a72305820a389527f216fc06ccf379b0a73cf3473a024c45c4327b77d38c87d2b483019390029",
  "source": "pragma solidity ^0.4.23;\nimport \"./SafeMath.sol\";\nimport \"./ExternalStorage.sol\";\nimport \"./ProductsLibrary.sol\";\nimport \"./users.sol\";\n\n/**\n@dev Adding New Products, Updating Price, and setting picture Link\n*/\ncontract products{\nusing ProductsLibrary for address;\nusing SafeMath for uint256;\n\n\nExternalStorage public  externalStore;\n\n\n//= 0xFE8dc8cCC0CbB71B55e5008e5401079DF72B429c;\nuint public noOfproducts;\n\n\n//enum Grade {Grade1, Grade2, Grade3}\n\nusers public user;\n\n//enum OrderStatus {Preparing, Shipped, Active, Returned, Completed}\n\nstruct productsList{\n  string productName;\n  string pictureLink;\n  uint256 productPrice;\n  uint256 quantity;\n  address farmer;\n  string grade;\n}\n\n\n\n\n\n\nevent addedProducts(string _productName, address _farmer, uint256 _price, string _grade);\nevent newPrice(string _prodNm, address _theFam , uint256 _prevPrice, uint256 _newPrice);\n\n\n\n\n\n\nmapping(address => productsList )public produceList;\nmapping(bytes32 => productsList) public productTitle;\nmapping (address => mapping (uint => uint256)) amountToPay;\nmapping (address => mapping( uint => uint256)) amountToRecieve;\nmapping (address => mapping (uint => uint256)) amountToPayEth;\nmapping (address => mapping( uint => uint256)) amountToRecieveEth;\n\n\nconstructor(ExternalStorage _externalStore, users _user) public{\n        require(msg.sender != address(0));\n        externalStore = _externalStore;\n        user = _user;\n    }\n\n\n\nfunction addNewProduct(\n  string _name,\n  string _location,\n  uint256 _price,\n  address _farmer,\n  string _grade,\n  uint256 _quantity\n) public  returns (string, address, uint256, string) {\n  require(user.isUser(_farmer));\n  ProductsLibrary.addProduct(externalStore, keccak256(abi.encodePacked(\"Product_name\", _name)), _location, _price,_farmer, _grade);\n  produceList[_farmer].productName = _name;\n  produceList[_farmer].productPrice = _price;\n  produceList[_farmer].farmer = _farmer;\n  produceList[_farmer].quantity = _quantity;\n  produceList[_farmer].grade = _grade;\n  bytes32 bytesName = keccak256(abi.encodePacked(_name));\n  //bytes32 bytesLocation = keccak256(abi.encodePacked(_location));\n  productTitle[bytesName].productName = _name;\n  productTitle[bytesName].productPrice = _price;\n  productTitle[bytesName].farmer = _farmer;\n  productTitle[bytesName].quantity = _quantity;\n  productTitle[bytesName].grade = _grade;\n  //isLocation[bytesLocation] = true;\n  noOfproducts = noOfproducts + 1;\n  emit addedProducts(_name, _farmer, _price, _grade);\n  return (_name, _farmer, _price, _grade);\n}\n\n\n\n\nfunction updateProductPrice(\n  uint256 _newPrice,\n  string productName\n) public returns (string, address, uint256,uint256) {\nrequire(_newPrice > 0);\nrequire(user.isUser(msg.sender));\nbytes32 _productName = keccak256(abi.encodePacked(\"Product_name\", productName));\nProductsLibrary.setProductPrice(externalStore,_productName, _newPrice);\nuint256 oldPrice = productTitle[_productName].productPrice;\naddress farmer = productTitle[_productName].farmer;\nproductTitle[_productName].productPrice = _newPrice;\nproduceList[productTitle[_productName].farmer].productPrice = _newPrice;\n//produceList[productTitle[_productName].buyer] = _newPrice;\nemit newPrice(productName, farmer, oldPrice, _newPrice);\nreturn (productName,farmer, oldPrice, ProductsLibrary.getProductPrice(externalStore, _productName));\n}\n\nfunction setProductPictureLink(\n  address _farmer,\n  string _productName,\n  string _pictureLink\n)public returns (string productName, string pictureLink){\n  require(user.isUser(_farmer) && user.isUser(msg.sender));\n  bytes32 product = keccak256(abi.encodePacked(_productName));\n  productTitle[product].pictureLink = _pictureLink;\n  productName = _productName;\n  pictureLink = _pictureLink;\n  return (productName, pictureLink);\n}\n\n\n\n\n        /** function checkProduct(string _nameProduct) view external returns (bool){\n\n          bytes32 nameProduct = keccak256(abi.encodePacked(_nameProduct));\n\n        return isProduct[nameProduct];\n        }\n\n        function checkDestination(string _finalDestination) view external returns (bool){\n        bytes32 finalDestination = keccak256(abi.encodePacked(_finalDestination));\n        return isLocation[finalDestination];\n        } **/\n        function getQuantity(string _product) view external  returns (uint256){\n        require(user.isUser(msg.sender));\n        return productTitle[keccak256(abi.encodePacked(_product))].quantity;\n        }\n        function getFarmer(string _product) view external  returns (address){\n        require(user.isUser(msg.sender));\n        return productTitle[keccak256(abi.encodePacked(_product))].farmer;\n        }\n        function getPrice(string _product) view external  returns (uint256){\n        require(user.isUser(msg.sender));\n        return productTitle[keccak256(abi.encodePacked(_product))].productPrice;\n        }\n        function amountPayable(address _sender, uint _order) view external returns (uint256){\n        require(user.isUser(msg.sender));\n        return amountToPay[_sender][_order];\n        }\n\n        function amountRecievable(address _to, uint _order) view external returns (uint256){\n        require(user.isUser(msg.sender));\n        return amountToRecieve[_to][_order];\n        }\n        function amountPayableEth(address _sender, uint _order) view external returns (uint256){\n        require(user.isUser(msg.sender));\n        return amountToPayEth[_sender][_order];\n        }\n\n        function amountRecievableEth(address _to, uint _order) view external returns (uint256){\n        require(user.isUser(msg.sender));\n        return amountToRecieveEth[_to][_order];\n        }\n\n        function addAmountRecievable(address _to, uint _order, uint256 _amount) external {\n         require(user.isUser(msg.sender));\n         amountToRecieve[_to][_order] = amountToRecieve[_to][_order].add(_amount);\n        }\n        function setAmountRecievable(address _to, uint _order, uint256 _amount) external {\n         require(user.isUser(msg.sender));\n         amountToRecieve[_to][_order] = amountToRecieve[_to][_order].sub(_amount);\n        }\n        function setAmountPayable(address _sender, uint _order, uint256 _amount) external {\n         require(user.isUser(msg.sender));\n         amountToPay[_sender][_order] = amountToPay[_sender][_order].sub(_amount);\n        }\n\n        function addAmountPayable(address _sender, uint _order, uint256 _amount) external {\n         require(user.isUser(msg.sender));\n         amountToPay[_sender][_order] = amountToPay[_sender][_order].add(_amount);\n        }\n\n        function addAmountRecievableEth(address _to, uint _order, uint256 _amount) external {\n         require(user.isUser(msg.sender));\n         amountToRecieveEth[_to][_order] = amountToRecieveEth[_to][_order].add(_amount);\n        }\n        function setAmountRecievableEth(address _to, uint _order, uint256 _amount) external {\n         require(user.isUser(msg.sender));\n         amountToRecieveEth[_to][_order] = amountToRecieveEth[_to][_order].sub(_amount);\n        }\n        function setAmountPayableEth(address _sender, uint _order, uint256 _amount) external {\n         require(user.isUser(msg.sender));\n         amountToPayEth[_sender][_order] = amountToPayEth[_sender][_order].sub(_amount);\n        }\n\n        function addAmountPayableEth(address _sender, uint _order, uint256 _amount) external {\n         require(user.isUser(msg.sender));\n         amountToPayEth[_sender][_order] = amountToPayEth[_sender][_order].add(_amount);\n        }\n\n        function setQuantity(string _product, uint256 _amount) external {\n         require(user.isUser(msg.sender));\n         productTitle[keccak256(abi.encodePacked(_product))].quantity = productTitle[keccak256(abi.encodePacked(_product))].quantity.sub(_amount);\n        }\n\n}\n",
  "sourcePath": "/home/kelvin/Desktop/AgroAfrica/agroafricachain_solidity/contracts/products.sol",
  "compiler": {
    "name": "solc",
    "version": "0.4.26+commit.4563c3fc.Emscripten.clang"
  },
  "schemaVersion": "3.2.5",
  "updatedAt": "2020-11-03T23:07:49.078Z",
  "devdoc": {
    "methods": {}
  },
  "userdoc": {
    "methods": {
      "getQuantity(string)": {
        "notice": "function checkProduct(string _nameProduct) view external returns (bool){ bytes32 nameProduct = keccak256(abi.encodePacked(_nameProduct)); return isProduct[nameProduct]; } function checkDestination(string _finalDestination) view external returns (bool){ bytes32 finalDestination = keccak256(abi.encodePacked(_finalDestination)); return isLocation[finalDestination]; } *"
      }
    }
  }
}