{
  "contractName": "promotions",
  "abi": [
    {
      "constant": true,
      "inputs": [],
      "name": "noOfPromotions",
      "outputs": [
        {
          "name": "",
          "type": "uint256"
        }
      ],
      "payable": false,
      "stateMutability": "view",
      "type": "function"
    },
    {
      "constant": true,
      "inputs": [],
      "name": "user",
      "outputs": [
        {
          "name": "",
          "type": "address"
        }
      ],
      "payable": false,
      "stateMutability": "view",
      "type": "function"
    },
    {
      "constant": true,
      "inputs": [
        {
          "name": "",
          "type": "address"
        }
      ],
      "name": "lookUpPromotions",
      "outputs": [
        {
          "name": "promotionIndex",
          "type": "uint256"
        },
        {
          "name": "product",
          "type": "string"
        },
        {
          "name": "productPic",
          "type": "string"
        },
        {
          "name": "productAddress",
          "type": "string"
        },
        {
          "name": "promotion",
          "type": "string"
        },
        {
          "name": "productProducer",
          "type": "address"
        }
      ],
      "payable": false,
      "stateMutability": "view",
      "type": "function"
    },
    {
      "inputs": [
        {
          "name": "_user",
          "type": "address"
        }
      ],
      "payable": false,
      "stateMutability": "nonpayable",
      "type": "constructor"
    },
    {
      "anonymous": false,
      "inputs": [
        {
          "indexed": false,
          "name": "promotedProduct",
          "type": "string"
        },
        {
          "indexed": false,
          "name": "productPosition",
          "type": "string"
        },
        {
          "indexed": false,
          "name": "promotionName",
          "type": "string"
        },
        {
          "indexed": false,
          "name": "producedBy",
          "type": "address"
        }
      ],
      "name": "newPromotion",
      "type": "event"
    },
    {
      "constant": false,
      "inputs": [
        {
          "name": "_product",
          "type": "string"
        },
        {
          "name": "_productPic",
          "type": "string"
        },
        {
          "name": "_productAddress",
          "type": "string"
        },
        {
          "name": "_promotion",
          "type": "string"
        },
        {
          "name": "_productProducer",
          "type": "address"
        }
      ],
      "name": "setPromotion",
      "outputs": [],
      "payable": false,
      "stateMutability": "nonpayable",
      "type": "function"
    },
    {
      "constant": true,
      "inputs": [
        {
          "name": "_promotionTitle",
          "type": "string"
        }
      ],
      "name": "getPromotionByName",
      "outputs": [
        {
          "name": "",
          "type": "string"
        },
        {
          "name": "",
          "type": "string"
        },
        {
          "name": "",
          "type": "string"
        },
        {
          "name": "",
          "type": "string"
        },
        {
          "name": "",
          "type": "address"
        }
      ],
      "payable": false,
      "stateMutability": "view",
      "type": "function"
    }
  ],
  "bytecode": "0x608060405234801561001057600080fd5b50604051602080611bbf83398101806040528101908080519060200190929190505050600073ffffffffffffffffffffffffffffffffffffffff163373ffffffffffffffffffffffffffffffffffffffff161415151561006f57600080fd5b806000806101000a81548173ffffffffffffffffffffffffffffffffffffffff021916908373ffffffffffffffffffffffffffffffffffffffff16021790555050611b00806100bf6000396000f30060806040526004361061006d576000357c0100000000000000000000000000000000000000000000000000000000900463ffffffff1680630e201008146100725780634f8632ba1461009d5780635d3806e3146100f4578063bf03fd2a1461034d578063f55d5b8814610587575b600080fd5b34801561007e57600080fd5b506100876106e2565b6040518082815260200191505060405180910390f35b3480156100a957600080fd5b506100b26106e8565b604051808273ffffffffffffffffffffffffffffffffffffffff1673ffffffffffffffffffffffffffffffffffffffff16815260200191505060405180910390f35b34801561010057600080fd5b5061015b600480360381019080803590602001908201803590602001908080601f016020809104026020016040519081016040528093929190818152602001838380828437820191505050505050919291929050505061070d565b60405180806020018060200180602001806020018673ffffffffffffffffffffffffffffffffffffffff1673ffffffffffffffffffffffffffffffffffffffff16815260200185810385528a818151815260200191508051906020019080838360005b838110156101d95780820151818401526020810190506101be565b50505050905090810190601f1680156102065780820380516001836020036101000a031916815260200191505b50858103845289818151815260200191508051906020019080838360005b8381101561023f578082015181840152602081019050610224565b50505050905090810190601f16801561026c5780820380516001836020036101000a031916815260200191505b50858103835288818151815260200191508051906020019080838360005b838110156102a557808201518184015260208101905061028a565b50505050905090810190601f1680156102d25780820380516001836020036101000a031916815260200191505b50858103825287818151815260200191508051906020019080838360005b8381101561030b5780820151818401526020810190506102f0565b50505050905090810190601f1680156103385780820380516001836020036101000a031916815260200191505b50995050505050505050505060405180910390f35b34801561035957600080fd5b5061038e600480360381019080803573ffffffffffffffffffffffffffffffffffffffff169060200190929190505050610e12565b60405180878152602001806020018060200180602001806020018673ffffffffffffffffffffffffffffffffffffffff1673ffffffffffffffffffffffffffffffffffffffff16815260200185810385528a818151815260200191508051906020019080838360005b838110156104125780820151818401526020810190506103f7565b50505050905090810190601f16801561043f5780820380516001836020036101000a031916815260200191505b50858103845289818151815260200191508051906020019080838360005b8381101561047857808201518184015260208101905061045d565b50505050905090810190601f1680156104a55780820380516001836020036101000a031916815260200191505b50858103835288818151815260200191508051906020019080838360005b838110156104de5780820151818401526020810190506104c3565b50505050905090810190601f16801561050b5780820380516001836020036101000a031916815260200191505b50858103825287818151815260200191508051906020019080838360005b83811015610544578082015181840152602081019050610529565b50505050905090810190601f1680156105715780820380516001836020036101000a031916815260200191505b509a505050505050505050505060405180910390f35b34801561059357600080fd5b506106e0600480360381019080803590602001908201803590602001908080601f0160208091040260200160405190810160405280939291908181526020018383808284378201915050505050509192919290803590602001908201803590602001908080601f0160208091040260200160405190810160405280939291908181526020018383808284378201915050505050509192919290803590602001908201803590602001908080601f0160208091040260200160405190810160405280939291908181526020018383808284378201915050505050509192919290803590602001908201803590602001908080601f0160208091040260200160405190810160405280939291908181526020018383808284378201915050505050509192919290803573ffffffffffffffffffffffffffffffffffffffff1690602001909291905050506110ce565b005b60015481565b6000809054906101000a900473ffffffffffffffffffffffffffffffffffffffff1681565b6060806060806000806000806000806000600115156000809054906101000a900473ffffffffffffffffffffffffffffffffffffffff1673ffffffffffffffffffffffffffffffffffffffff16634209fff1336040518263ffffffff167c0100000000000000000000000000000000000000000000000000000000028152600401808273ffffffffffffffffffffffffffffffffffffffff1673ffffffffffffffffffffffffffffffffffffffff168152602001915050602060405180830381600087803b1580156107de57600080fd5b505af11580156107f2573d6000803e3d6000fd5b505050506040513d602081101561080857600080fd5b8101908080519060200190929190505050151514151561082757600080fd5b8b6040516020018082805190602001908083835b602083101515610860578051825260208201915060208101905060208303925061083b565b6001836020036101000a0380198251168184511680821785525050505050509050019150506040516020818303038152906040526040518082805190602001908083835b6020831015156108c957805182526020820191506020810190506020830392506108a4565b6001836020036101000a038019825116818451168082178552505050505050905001915050604051809103902095506001151560046000886000191660001916815260200190815260200160002060009054906101000a900460ff16151514151561093357600080fd5b60038c6040518082805190602001908083835b60208310151561096b5780518252602082019150602081019050602083039250610946565b6001836020036101000a0380198251168184511680821785525050505050509050019150509081526020016040518091039020600101945060038c6040518082805190602001908083835b6020831015156109db57805182526020820191506020810190506020830392506109b6565b6001836020036101000a0380198251168184511680821785525050505050509050019150509081526020016040518091039020600201935060038c6040518082805190602001908083835b602083101515610a4b5780518252602082019150602081019050602083039250610a26565b6001836020036101000a0380198251168184511680821785525050505050509050019150509081526020016040518091039020600301925060038c6040518082805190602001908083835b602083101515610abb5780518252602082019150602081019050602083039250610a96565b6001836020036101000a0380198251168184511680821785525050505050509050019150509081526020016040518091039020600401915060038c6040518082805190602001908083835b602083101515610b2b5780518252602082019150602081019050602083039250610b06565b6001836020036101000a038019825116818451168082178552505050505050905001915050908152602001604051809103902060050160009054906101000a900473ffffffffffffffffffffffffffffffffffffffff1690508484848484848054600181600116156101000203166002900480601f016020809104026020016040519081016040528092919081815260200182805460018160011615610100020316600290048015610c1e5780601f10610bf357610100808354040283529160200191610c1e565b820191906000526020600020905b815481529060010190602001808311610c0157829003601f168201915b50505050509450838054600181600116156101000203166002900480601f016020809104026020016040519081016040528092919081815260200182805460018160011615610100020316600290048015610cba5780601f10610c8f57610100808354040283529160200191610cba565b820191906000526020600020905b815481529060010190602001808311610c9d57829003601f168201915b50505050509350828054600181600116156101000203166002900480601f016020809104026020016040519081016040528092919081815260200182805460018160011615610100020316600290048015610d565780601f10610d2b57610100808354040283529160200191610d56565b820191906000526020600020905b815481529060010190602001808311610d3957829003601f168201915b50505050509250818054600181600116156101000203166002900480601f016020809104026020016040519081016040528092919081815260200182805460018160011615610100020316600290048015610df25780601f10610dc757610100808354040283529160200191610df2565b820191906000526020600020905b815481529060010190602001808311610dd557829003601f168201915b505050505091509a509a509a509a509a5050505050505091939590929450565b6002602052806000526040600020600091509050806000015490806001018054600181600116156101000203166002900480601f016020809104026020016040519081016040528092919081815260200182805460018160011615610100020316600290048015610ec45780601f10610e9957610100808354040283529160200191610ec4565b820191906000526020600020905b815481529060010190602001808311610ea757829003601f168201915b505050505090806002018054600181600116156101000203166002900480601f016020809104026020016040519081016040528092919081815260200182805460018160011615610100020316600290048015610f625780601f10610f3757610100808354040283529160200191610f62565b820191906000526020600020905b815481529060010190602001808311610f4557829003601f168201915b505050505090806003018054600181600116156101000203166002900480601f0160208091040260200160405190810160405280929190818152602001828054600181600116156101000203166002900480156110005780601f10610fd557610100808354040283529160200191611000565b820191906000526020600020905b815481529060010190602001808311610fe357829003601f168201915b505050505090806004018054600181600116156101000203166002900480601f01602080910402602001604051908101604052809291908181526020018280546001816001161561010002031660029004801561109e5780601f106110735761010080835404028352916020019161109e565b820191906000526020600020905b81548152906001019060200180831161108157829003601f168201915b5050505050908060050160009054906101000a900473ffffffffffffffffffffffffffffffffffffffff16905086565b600080600115156000809054906101000a900473ffffffffffffffffffffffffffffffffffffffff1673ffffffffffffffffffffffffffffffffffffffff16634209fff1856040518263ffffffff167c0100000000000000000000000000000000000000000000000000000000028152600401808273ffffffffffffffffffffffffffffffffffffffff1673ffffffffffffffffffffffffffffffffffffffff168152602001915050602060405180830381600087803b15801561119157600080fd5b505af11580156111a5573d6000803e3d6000fd5b505050506040513d60208110156111bb57600080fd5b810190808051906020019092919050505015151415156111da57600080fd5b836040516020018082805190602001908083835b60208310151561121357805182526020820191506020810190506020830392506111ee565b6001836020036101000a0380198251168184511680821785525050505050509050019150506040516020818303038152906040526040518082805190602001908083835b60208310151561127c5780518252602082019150602081019050602083039250611257565b6001836020036101000a0380198251168184511680821785525050505050509050019150506040518091039020915060015490506000151560046000846000191660001916815260200190815260200160002060009054906101000a900460ff1615151415156112eb57600080fd5b80600260008573ffffffffffffffffffffffffffffffffffffffff1673ffffffffffffffffffffffffffffffffffffffff1681526020019081526020016000206000018190555086600260008573ffffffffffffffffffffffffffffffffffffffff1673ffffffffffffffffffffffffffffffffffffffff1681526020019081526020016000206001019080519060200190611388929190611a2f565b5085600260008573ffffffffffffffffffffffffffffffffffffffff1673ffffffffffffffffffffffffffffffffffffffff16815260200190815260200160002060020190805190602001906113df929190611a2f565b5084600260008573ffffffffffffffffffffffffffffffffffffffff1673ffffffffffffffffffffffffffffffffffffffff1681526020019081526020016000206003019080519060200190611436929190611a2f565b5083600260008573ffffffffffffffffffffffffffffffffffffffff1673ffffffffffffffffffffffffffffffffffffffff168152602001908152602001600020600401908051906020019061148d929190611a2f565b5082600260008573ffffffffffffffffffffffffffffffffffffffff1673ffffffffffffffffffffffffffffffffffffffff16815260200190815260200160002060050160006101000a81548173ffffffffffffffffffffffffffffffffffffffff021916908373ffffffffffffffffffffffffffffffffffffffff160217905550806003856040518082805190602001908083835b6020831015156115485780518252602082019150602081019050602083039250611523565b6001836020036101000a038019825116818451168082178552505050505050905001915050908152602001604051809103902060000181905550866003856040518082805190602001908083835b6020831015156115bb5780518252602082019150602081019050602083039250611596565b6001836020036101000a03801982511681845116808217855250505050505090500191505090815260200160405180910390206001019080519060200190611604929190611a2f565b50856003856040518082805190602001908083835b60208310151561163e5780518252602082019150602081019050602083039250611619565b6001836020036101000a03801982511681845116808217855250505050505090500191505090815260200160405180910390206002019080519060200190611687929190611a2f565b50846003856040518082805190602001908083835b6020831015156116c1578051825260208201915060208101905060208303925061169c565b6001836020036101000a0380198251168184511680821785525050505050509050019150509081526020016040518091039020600301908051906020019061170a929190611a2f565b50836003856040518082805190602001908083835b602083101515611744578051825260208201915060208101905060208303925061171f565b6001836020036101000a0380198251168184511680821785525050505050509050019150509081526020016040518091039020600401908051906020019061178d929190611a2f565b50826003856040518082805190602001908083835b6020831015156117c757805182526020820191506020810190506020830392506117a2565b6001836020036101000a038019825116818451168082178552505050505050905001915050908152602001604051809103902060050160006101000a81548173ffffffffffffffffffffffffffffffffffffffff021916908373ffffffffffffffffffffffffffffffffffffffff1602179055506001151560046000846000191660001916815260200190815260200160002060009054906101000a9050505061186f611a22565b7ff6a5a405da6e2d66f4d721ea5b4e4f83e47926c0f3487297f3222c855e52bbf187868686604051808060200180602001806020018573ffffffffffffffffffffffffffffffffffffffff1673ffffffffffffffffffffffffffffffffffffffff168152602001848103845288818151815260200191508051906020019080838360005b8381101561190e5780820151818401526020810190506118f3565b50505050905090810190601f16801561193b5780820380516001836020036101000a031916815260200191505b50848103835287818151815260200191508051906020019080838360005b83811015611974578082015181840152602081019050611959565b50505050905090810190601f1680156119a15780820380516001836020036101000a031916815260200191505b50848103825286818151815260200191508051906020019080838360005b838110156119da5780820151818401526020810190506119bf565b50505050905090810190601f168015611a075780820380516001836020036101000a031916815260200191505b5097505050505050505060405180910390a150505050505050565b6001805401600181905550565b828054600181600116156101000203166002900490600052602060002090601f016020900481019282601f10611a7057805160ff1916838001178555611a9e565b82800160010185558215611a9e579182015b82811115611a9d578251825591602001919060010190611a82565b5b509050611aab9190611aaf565b5090565b611ad191905b80821115611acd576000816000905550600101611ab5565b5090565b905600a165627a7a723058205361fdc21adcd431f17c5624fc488faa636389c57717d4598a9942d2041b56f00029",
  "source": "pragma solidity ^0.4.23;\n//import \"./SafeMath.sol\";\n//import \"./products.sol\";\nimport \"./users.sol\";\n/**\n * @title Promotions Management Smart Contract\n *\n * @dev\tAllows farmers to create and manage promotions for each product they produce based on their location, product picture, and custom description\n * @author Kelvin Ndereba\n * GandH Blockchain Solutions\n */\n\n // Creating , retrieving , product sale promotions by name and location\n contract promotions {\n //using SafeMath for uint256;\n\n users public user;\n\n uint public noOfPromotions;\n\n\n struct promotion{\n   uint promotionIndex;\n   string product;\n   string productPic;\n   string productAddress;\n   string promotion;\n   address productProducer;\n }\n\n\n event newPromotion(string promotedProduct, string productPosition, string promotionName, address producedBy);\n\n\n mapping(address  => promotion) public lookUpPromotions;\n mapping (string => promotion) searchPromotionByName;\n\n mapping(bytes32 => bool) isPromotion;\n\n constructor(users _user) public{\n         require(msg.sender != address(0));\n         user = _user;\n     }\n\n function setPromotion(\n string _product,\n string _productPic,\n string _productAddress,\n string _promotion,\n address _productProducer\n ) public{\n require(user.isUser(_productProducer) == true);\n //require(product.checkProduct(_product) == true);\n //require(product.checkDestination(_productAddress) == true);\n bytes32 PromotionCheck = keccak256(abi.encodePacked(_promotion));\n  uint _promotionIndex = noOfPromotions;\n require(isPromotion[PromotionCheck] == false);\n  lookUpPromotions[_productProducer].promotionIndex = _promotionIndex;\n  lookUpPromotions[_productProducer].product = _product;\n  lookUpPromotions[_productProducer].productPic = _productPic;\n  lookUpPromotions[_productProducer].productAddress = _productAddress;\n  lookUpPromotions[_productProducer].promotion = _promotion;\n  lookUpPromotions[_productProducer].productProducer = _productProducer;\n\n  searchPromotionByName[_promotion].promotionIndex = _promotionIndex;\n  searchPromotionByName[_promotion].product = _product;\n  searchPromotionByName[_promotion].productPic = _productPic;\n  searchPromotionByName[_promotion].productAddress = _productAddress;\n  searchPromotionByName[_promotion].promotion = _promotion;\n  searchPromotionByName[_promotion].productProducer = _productProducer;\n\n isPromotion[PromotionCheck] == true;\n incrementPromotions();\n\n  emit newPromotion(_product, _productAddress, _promotion, _productProducer);\n }\n\n  function incrementPromotions() internal {\n    noOfPromotions = noOfPromotions + 1;\n  }\n\n  function getPromotionByName(\n    string _promotionTitle\n    ) public view returns(string, string, string, string, address){\n      require( user.isUser(msg.sender) == true);\n     // require(product.checkProduct(_productName) == true);\n      //require(product.isProduct[_productName] == true);\n      bytes32 PromotionCheck = keccak256(abi.encodePacked(_promotionTitle));\n      require (isPromotion[PromotionCheck] == true);\n      string storage _productAbbrev =  searchPromotionByName[_promotionTitle].product;\n      string storage _productPicture = searchPromotionByName[_promotionTitle].productPic;\n      string storage _productAddress = searchPromotionByName[_promotionTitle].productAddress;\n      string storage _promotion = searchPromotionByName[_promotionTitle].promotion;\n      address _productProducer = searchPromotionByName[_promotionTitle].productProducer;\n      return(\n        _productAbbrev,\n        _productPicture,\n        _productAddress,\n        _promotion,\n        _productProducer\n        );\n    }\n }\n",
  "sourcePath": "/home/kelvin/Desktop/AgroAfrica/agroafricachain_solidity/contracts/promotions.sol",
  "compiler": {
    "name": "solc",
    "version": "0.4.26+commit.4563c3fc.Emscripten.clang"
  },
  "schemaVersion": "3.2.5",
  "updatedAt": "2020-11-03T23:24:37.445Z",
  "devdoc": {
    "author": "Kelvin Ndereba GandH Blockchain Solutions",
    "methods": {},
    "title": "Promotions Management Smart Contract"
  },
  "userdoc": {
    "methods": {}
  }
}