{
  "contractName": "delivery",
  "abi": [
    {
      "constant": true,
      "inputs": [],
      "name": "user",
      "outputs": [
        {
          "name": "",
          "type": "address"
        }
      ],
      "payable": false,
      "stateMutability": "view",
      "type": "function"
    },
    {
      "constant": true,
      "inputs": [],
      "name": "order",
      "outputs": [
        {
          "name": "",
          "type": "address"
        }
      ],
      "payable": false,
      "stateMutability": "view",
      "type": "function"
    },
    {
      "inputs": [
        {
          "name": "_user",
          "type": "address"
        },
        {
          "name": "_order",
          "type": "address"
        }
      ],
      "payable": false,
      "stateMutability": "nonpayable",
      "type": "constructor"
    },
    {
      "anonymous": false,
      "inputs": [
        {
          "indexed": false,
          "name": "deliverOrderNumber",
          "type": "uint256"
        },
        {
          "indexed": false,
          "name": "_buyer",
          "type": "address"
        },
        {
          "indexed": false,
          "name": "ShiptoLocation",
          "type": "string"
        },
        {
          "indexed": false,
          "name": "_ShipQuantity",
          "type": "uint256"
        }
      ],
      "name": "toDeliver",
      "type": "event"
    },
    {
      "anonymous": false,
      "inputs": [
        {
          "indexed": false,
          "name": "randomdeliverOrderNumber",
          "type": "uint256"
        },
        {
          "indexed": false,
          "name": "destination",
          "type": "address"
        },
        {
          "indexed": false,
          "name": "deliveredTo",
          "type": "string"
        },
        {
          "indexed": false,
          "name": "consignmentSize",
          "type": "uint256"
        }
      ],
      "name": "deliverOrder",
      "type": "event"
    },
    {
      "anonymous": false,
      "inputs": [
        {
          "indexed": false,
          "name": "_orderNum",
          "type": "uint256"
        },
        {
          "indexed": false,
          "name": "_buyer",
          "type": "address"
        },
        {
          "indexed": false,
          "name": "_buyerLocation",
          "type": "string"
        },
        {
          "indexed": false,
          "name": "_timestamp",
          "type": "uint256"
        }
      ],
      "name": "shipmentDeliver",
      "type": "event"
    },
    {
      "constant": false,
      "inputs": [
        {
          "name": "_buyer",
          "type": "address"
        },
        {
          "name": "_deliveryLocation",
          "type": "string"
        },
        {
          "name": "_quantity",
          "type": "uint256"
        },
        {
          "name": "_orderNumber",
          "type": "uint256"
        }
      ],
      "name": "addDeliveryInfo",
      "outputs": [],
      "payable": false,
      "stateMutability": "nonpayable",
      "type": "function"
    },
    {
      "constant": false,
      "inputs": [
        {
          "name": "_deliveryOrderNumber",
          "type": "uint256"
        },
        {
          "name": "_deliveryLocation",
          "type": "string"
        },
        {
          "name": "_deliveryPeriod",
          "type": "uint256"
        },
        {
          "name": "_quantity",
          "type": "uint256"
        }
      ],
      "name": "deliverByOrder",
      "outputs": [],
      "payable": false,
      "stateMutability": "nonpayable",
      "type": "function"
    },
    {
      "constant": false,
      "inputs": [
        {
          "name": "_deliveryOrderNumber",
          "type": "uint256"
        }
      ],
      "name": "deliverShipment",
      "outputs": [],
      "payable": false,
      "stateMutability": "nonpayable",
      "type": "function"
    },
    {
      "constant": false,
      "inputs": [
        {
          "name": "_location",
          "type": "string"
        },
        {
          "name": "_deliveryNum",
          "type": "uint256"
        }
      ],
      "name": "setGPSlocation",
      "outputs": [],
      "payable": false,
      "stateMutability": "nonpayable",
      "type": "function"
    },
    {
      "constant": true,
      "inputs": [
        {
          "name": "_deliveryNum",
          "type": "uint256"
        }
      ],
      "name": "getGPSlocation",
      "outputs": [
        {
          "name": "",
          "type": "bytes32"
        }
      ],
      "payable": false,
      "stateMutability": "view",
      "type": "function"
    },
    {
      "constant": false,
      "inputs": [
        {
          "name": "_location",
          "type": "string"
        },
        {
          "name": "_orderNumber",
          "type": "uint256"
        }
      ],
      "name": "setShipmentGPSlocation",
      "outputs": [],
      "payable": false,
      "stateMutability": "nonpayable",
      "type": "function"
    },
    {
      "constant": true,
      "inputs": [
        {
          "name": "_orderNumber",
          "type": "uint256"
        }
      ],
      "name": "getShipmentGPSlocation",
      "outputs": [
        {
          "name": "",
          "type": "bytes32"
        }
      ],
      "payable": false,
      "stateMutability": "view",
      "type": "function"
    }
  ],
  "bytecode": "0x608060405234801561001057600080fd5b50604051604080611a0e8339810180604052810190808051906020019092919080519060200190929190505050600073ffffffffffffffffffffffffffffffffffffffff163373ffffffffffffffffffffffffffffffffffffffff161415151561007957600080fd5b81600160006101000a81548173ffffffffffffffffffffffffffffffffffffffff021916908373ffffffffffffffffffffffffffffffffffffffff160217905550806000806101000a81548173ffffffffffffffffffffffffffffffffffffffff021916908373ffffffffffffffffffffffffffffffffffffffff16021790555050506119038061010b6000396000f300608060405260043610610099576000357c0100000000000000000000000000000000000000000000000000000000900463ffffffff1680631558a6011461009e5780634f8632ba146100e757806361fdd0e01461013e57806372d78867146101875780638cc38cbe146101fa57806392952d4e1461026d578063bf15071d1461030a578063e0d5166414610361578063f31d2dcf1461038e575b600080fd5b3480156100aa57600080fd5b506100c960048036038101908080359060200190929190505050610415565b60405180826000191660001916815260200191505060405180910390f35b3480156100f357600080fd5b506100fc610541565b604051808273ffffffffffffffffffffffffffffffffffffffff1673ffffffffffffffffffffffffffffffffffffffff16815260200191505060405180910390f35b34801561014a57600080fd5b5061016960048036038101908080359060200190929190505050610567565b60405180826000191660001916815260200191505060405180910390f35b34801561019357600080fd5b506101f8600480360381019080803590602001908201803590602001908080601f0160208091040260200160405190810160405280939291908181526020018383808284378201915050505050509192919290803590602001909291905050506106db565b005b34801561020657600080fd5b5061026b600480360381019080803590602001908201803590602001908080601f0160208091040260200160405190810160405280939291908181526020018383808284378201915050505050509192919290803590602001909291905050506108d9565b005b34801561027957600080fd5b50610308600480360381019080803573ffffffffffffffffffffffffffffffffffffffff169060200190929190803590602001908201803590602001908080601f01602080910402602001604051908101604052809392919081815260200183838082843782019150505050505091929192908035906020019092919080359060200190929190505050610b1f565b005b34801561031657600080fd5b5061031f610f04565b604051808273ffffffffffffffffffffffffffffffffffffffff1673ffffffffffffffffffffffffffffffffffffffff16815260200191505060405180910390f35b34801561036d57600080fd5b5061038c60048036038101908080359060200190929190505050610f29565b005b34801561039a57600080fd5b5061041360048036038101908080359060200190929190803590602001908201803590602001908080601f01602080910402602001604051908101604052809392919081815260200183838082843782019150505050505091929192908035906020019092919080359060200190929190505050611450565b005b60008060011515600160009054906101000a900473ffffffffffffffffffffffffffffffffffffffff1673ffffffffffffffffffffffffffffffffffffffff16634209fff1336040518263ffffffff167c0100000000000000000000000000000000000000000000000000000000028152600401808273ffffffffffffffffffffffffffffffffffffffff1673ffffffffffffffffffffffffffffffffffffffff168152602001915050602060405180830381600087803b1580156104d957600080fd5b505af11580156104ed573d6000803e3d6000fd5b505050506040513d602081101561050357600080fd5b8101908080519060200190929190505050151514151561052257600080fd5b6003600084815260200190815260200160002054905080915050919050565b600160009054906101000a900473ffffffffffffffffffffffffffffffffffffffff1681565b60008060011515600160009054906101000a900473ffffffffffffffffffffffffffffffffffffffff1673ffffffffffffffffffffffffffffffffffffffff16634209fff1336040518263ffffffff167c0100000000000000000000000000000000000000000000000000000000028152600401808273ffffffffffffffffffffffffffffffffffffffff1673ffffffffffffffffffffffffffffffffffffffff168152602001915050602060405180830381600087803b15801561062b57600080fd5b505af115801561063f573d6000803e3d6000fd5b505050506040513d602081101561065557600080fd5b8101908080519060200190929190505050151514151561067457600080fd5b6000600581111561068157fe5b6002600085815260200190815260200160002060050160009054906101000a900460ff1660058111156106b057fe5b1415156106bc57600080fd5b6003600084815260200190815260200160002054905080915050919050565b600060011515600160009054906101000a900473ffffffffffffffffffffffffffffffffffffffff1673ffffffffffffffffffffffffffffffffffffffff16634209fff1336040518263ffffffff167c0100000000000000000000000000000000000000000000000000000000028152600401808273ffffffffffffffffffffffffffffffffffffffff1673ffffffffffffffffffffffffffffffffffffffff168152602001915050602060405180830381600087803b15801561079e57600080fd5b505af11580156107b2573d6000803e3d6000fd5b505050506040513d60208110156107c857600080fd5b810190808051906020019092919050505015151415156107e757600080fd5b826040516020018082805190602001908083835b60208310151561082057805182526020820191506020810190506020830392506107fb565b6001836020036101000a0380198251168184511680821785525050505050509050019150506040516020818303038152906040526040518082805190602001908083835b6020831015156108895780518252602082019150602081019050602083039250610864565b6001836020036101000a0380198251168184511680821785525050505050509050019150506040518091039020905080600360008481526020019081526020016000208160001916905550505050565b600060011515600160009054906101000a900473ffffffffffffffffffffffffffffffffffffffff1673ffffffffffffffffffffffffffffffffffffffff16634209fff1336040518263ffffffff167c0100000000000000000000000000000000000000000000000000000000028152600401808273ffffffffffffffffffffffffffffffffffffffff1673ffffffffffffffffffffffffffffffffffffffff168152602001915050602060405180830381600087803b15801561099c57600080fd5b505af11580156109b0573d6000803e3d6000fd5b505050506040513d60208110156109c657600080fd5b810190808051906020019092919050505015151415156109e557600080fd5b600060058111156109f257fe5b6002600084815260200190815260200160002060050160009054906101000a900460ff166005811115610a2157fe5b141515610a2d57600080fd5b826040516020018082805190602001908083835b602083101515610a665780518252602082019150602081019050602083039250610a41565b6001836020036101000a0380198251168184511680821785525050505050509050019150506040516020818303038152906040526040518082805190602001908083835b602083101515610acf5780518252602082019150602081019050602083039250610aaa565b6001836020036101000a0380198251168184511680821785525050505050509050019150506040518091039020905080600360008481526020019081526020016000208160001916905550505050565b60011515600160009054906101000a900473ffffffffffffffffffffffffffffffffffffffff1673ffffffffffffffffffffffffffffffffffffffff16634209fff1866040518263ffffffff167c0100000000000000000000000000000000000000000000000000000000028152600401808273ffffffffffffffffffffffffffffffffffffffff1673ffffffffffffffffffffffffffffffffffffffff168152602001915050602060405180830381600087803b158015610be057600080fd5b505af1158015610bf4573d6000803e3d6000fd5b505050506040513d6020811015610c0a57600080fd5b81019080805190602001909291905050501515148015610d25575060011515600160009054906101000a900473ffffffffffffffffffffffffffffffffffffffff1673ffffffffffffffffffffffffffffffffffffffff16634209fff1336040518263ffffffff167c0100000000000000000000000000000000000000000000000000000000028152600401808273ffffffffffffffffffffffffffffffffffffffff1673ffffffffffffffffffffffffffffffffffffffff168152602001915050602060405180830381600087803b158015610ce657600080fd5b505af1158015610cfa573d6000803e3d6000fd5b505050506040513d6020811015610d1057600080fd5b81019080805190602001909291905050501515145b1515610d3057600080fd5b806002600083815260200190815260200160002060000181905550836002600083815260200190815260200160002060010160006101000a81548173ffffffffffffffffffffffffffffffffffffffff021916908373ffffffffffffffffffffffffffffffffffffffff16021790555082600260008381526020019081526020016000206002019080519060200190610dca929190611832565b5081600260008381526020019081526020016000206004018190555060006002600083815260200190815260200160002060050160006101000a81548160ff02191690836005811115610e1957fe5b02179055507f8c771964c36103935ac7c7a76a83f0993324fca0a46b28a99cad93d9b60b36e881858585604051808581526020018473ffffffffffffffffffffffffffffffffffffffff1673ffffffffffffffffffffffffffffffffffffffff16815260200180602001838152602001828103825284818151815260200191508051906020019080838360005b83811015610ec1578082015181840152602081019050610ea6565b50505050905090810190601f168015610eee5780820380516001836020036101000a031916815260200191505b509550505050505060405180910390a150505050565b6000809054906101000a900473ffffffffffffffffffffffffffffffffffffffff1681565b60011515600160009054906101000a900473ffffffffffffffffffffffffffffffffffffffff1673ffffffffffffffffffffffffffffffffffffffff16634209fff1336040518263ffffffff167c0100000000000000000000000000000000000000000000000000000000028152600401808273ffffffffffffffffffffffffffffffffffffffff1673ffffffffffffffffffffffffffffffffffffffff168152602001915050602060405180830381600087803b158015610fea57600080fd5b505af1158015610ffe573d6000803e3d6000fd5b505050506040513d602081101561101457600080fd5b8101908080519060200190929190505050151514151561103357600080fd5b6000809054906101000a900473ffffffffffffffffffffffffffffffffffffffff1673ffffffffffffffffffffffffffffffffffffffff1663c85fbc13826040518263ffffffff167c010000000000000000000000000000000000000000000000000000000002815260040180828152602001915050600060405180830381600087803b1580156110c357600080fd5b505af11580156110d7573d6000803e3d6000fd5b505050506000809054906101000a900473ffffffffffffffffffffffffffffffffffffffff1673ffffffffffffffffffffffffffffffffffffffff1663e9ffbb07826040518263ffffffff167c010000000000000000000000000000000000000000000000000000000002815260040180828152602001915050600060405180830381600087803b15801561116b57600080fd5b505af115801561117f573d6000803e3d6000fd5b505050507f7d6cc3805cb9c9e57ba318c7b74f7d917c8d261275aef67aca2bb24a570cbc23816000809054906101000a900473ffffffffffffffffffffffffffffffffffffffff1673ffffffffffffffffffffffffffffffffffffffff166370b0748e846040518263ffffffff167c010000000000000000000000000000000000000000000000000000000002815260040180828152602001915050602060405180830381600087803b15801561123557600080fd5b505af1158015611249573d6000803e3d6000fd5b505050506040513d602081101561125f57600080fd5b81019080805190602001909291905050506000809054906101000a900473ffffffffffffffffffffffffffffffffffffffff1673ffffffffffffffffffffffffffffffffffffffff1663b1f84bd4856040518263ffffffff167c010000000000000000000000000000000000000000000000000000000002815260040180828152602001915050600060405180830381600087803b15801561130057600080fd5b505af1158015611314573d6000803e3d6000fd5b505050506040513d6000823e3d601f19601f82011682018060405250602081101561133e57600080fd5b81019080805164010000000081111561135657600080fd5b8281019050602081018481111561136c57600080fd5b815185600182028301116401000000008211171561138957600080fd5b505092919050505042604051808581526020018473ffffffffffffffffffffffffffffffffffffffff1673ffffffffffffffffffffffffffffffffffffffff16815260200180602001838152602001828103825284818151815260200191508051906020019080838360005b838110156114105780820151818401526020810190506113f5565b50505050905090810190601f16801561143d5780820380516001836020036101000a031916815260200191505b509550505050505060405180910390a150565b600060011515600160009054906101000a900473ffffffffffffffffffffffffffffffffffffffff1673ffffffffffffffffffffffffffffffffffffffff16634209fff1336040518263ffffffff167c0100000000000000000000000000000000000000000000000000000000028152600401808273ffffffffffffffffffffffffffffffffffffffff1673ffffffffffffffffffffffffffffffffffffffff168152602001915050602060405180830381600087803b15801561151357600080fd5b505af1158015611527573d6000803e3d6000fd5b505050506040513d602081101561153d57600080fd5b8101908080519060200190929190505050151514151561155c57600080fd5b6002600086815260200190815260200160002060030154831015151561158157600080fd5b600260008681526020019081526020016000206004015482101515156115a657600080fd5b600060058111156115b357fe5b6002600087815260200190815260200160002060050160009054906101000a900460ff1660058111156115e257fe5b14806116275750600360058111156115f657fe5b6002600087815260200190815260200160002060050160009054906101000a900460ff16600581111561162557fe5b145b151561163257600080fd5b60016002600087815260200190815260200160002060050160006101000a81548160ff0219169083600581111561166557fe5b02179055506002600086815260200190815260200160002060010160009054906101000a900473ffffffffffffffffffffffffffffffffffffffff1690506000809054906101000a900473ffffffffffffffffffffffffffffffffffffffff1673ffffffffffffffffffffffffffffffffffffffff1663e9ffbb07866040518263ffffffff167c010000000000000000000000000000000000000000000000000000000002815260040180828152602001915050600060405180830381600087803b15801561173357600080fd5b505af1158015611747573d6000803e3d6000fd5b505050507f746cdb8bab6776fce3714a6ec3ee00ab064835c30c08d69e3dbc0b008d177c5985828685604051808581526020018473ffffffffffffffffffffffffffffffffffffffff1673ffffffffffffffffffffffffffffffffffffffff16815260200180602001838152602001828103825284818151815260200191508051906020019080838360005b838110156117ee5780820151818401526020810190506117d3565b50505050905090810190601f16801561181b5780820380516001836020036101000a031916815260200191505b509550505050505060405180910390a15050505050565b828054600181600116156101000203166002900490600052602060002090601f016020900481019282601f1061187357805160ff19168380011785556118a1565b828001600101855582156118a1579182015b828111156118a0578251825591602001919060010190611885565b5b5090506118ae91906118b2565b5090565b6118d491905b808211156118d05760008160009055506001016118b8565b5090565b905600a165627a7a72305820e82473a11cda2b549c34e7157b1c79b71c1d9d909a6bb5f260091b6c91b3a7b70029",
  "source": "pragma solidity ^0.4.23;\n//import \"./SafeMath.sol\";\n//import \"./products.sol\";\nimport \"./orders.sol\";\nimport \"./users.sol\";\n/**\n * @title Shipment Delivery Management Smart Contract\n *\n * @dev\tKeeps track of each shipment delivery information, shipment GPS location, and Shipment Delivery\n * @author Kelvin Ndereba\n * GandH Blockchain Solutions\n */\n\n /**\n  * @notice Delivery  Tracking Smart contract\n  **/\n contract delivery {\n //using SafeMath for uint256;\n\n\n orders public order;\n\n// products public product;\n\n users public user;\n\n enum deliveryStatus {Shipped, Delivered, Returned, Active, Preparing, Completed}\n\n struct deliveryDetails{\n   uint deliverOrderNumber;\n   address buyer;\n   string deliveryLocation;\n   uint256 deliveryPeriod;\n   uint256 quantity;\n   deliveryStatus status;\n }\n\n\n\n event toDeliver(uint deliverOrderNumber, address _buyer, string ShiptoLocation, uint256 _ShipQuantity);\n event deliverOrder (uint randomdeliverOrderNumber, address destination, string deliveredTo, uint256 consignmentSize);\nevent shipmentDeliver(uint _orderNum, address _buyer, string _buyerLocation, uint256 _timestamp);\n\n mapping(uint => deliveryDetails) deliveryInfo;\n mapping(uint => bytes32) GPSLocation;\n\n constructor(users _user, orders _order) public{\n         require(msg.sender != address(0));\n         //externalStore = _externalStore;\n         user = _user;\n         order = _order;\n         //product = _product;\n     }\n\n function addDeliveryInfo(\n   address _buyer,\n   string _deliveryLocation,\n   uint256 _quantity,\n   uint _orderNumber\n )public {\n     require(user.isUser(_buyer) == true && user.isUser(msg.sender) == true);\n     deliveryInfo[_orderNumber].deliverOrderNumber = _orderNumber;\n     deliveryInfo[_orderNumber].buyer = _buyer;\n     deliveryInfo[_orderNumber].deliveryLocation = _deliveryLocation;\n     deliveryInfo[_orderNumber].quantity = _quantity;\n     deliveryInfo[_orderNumber].status = deliveryStatus.Shipped;\n     emit toDeliver(_orderNumber, _buyer, _deliveryLocation,_quantity);\n   }\n\n  function deliverByOrder(\n    uint _deliveryOrderNumber,\n    string _deliveryLocation,\n    uint256 _deliveryPeriod,\n    uint256 _quantity\n  )public{\n      require(user.isUser(msg.sender) == true);\n     // bytes32 byteCommodity = keccak256(abi.encodePacked(_commodity));\n     // bytes32 byteDeliver = keccak256(abi.encodePacked(_deliveryLocation));\n      require(_deliveryPeriod >= deliveryInfo[_deliveryOrderNumber].deliveryPeriod);\n      //require(product.checkProduct(_commodity) == true);\n      //require(product.checkDestination(_deliveryLocation) == true);\n\n      require(_quantity >= deliveryInfo[_deliveryOrderNumber].quantity);\n      require(deliveryInfo[_deliveryOrderNumber].status == deliveryStatus.Shipped || deliveryInfo[_deliveryOrderNumber].status == deliveryStatus.Active);\n      deliveryInfo[_deliveryOrderNumber].status = deliveryStatus.Delivered;\n      address buyer = deliveryInfo[_deliveryOrderNumber].buyer;\n      order.updateOrderStatus(_deliveryOrderNumber);\n      emit deliverOrder(_deliveryOrderNumber, buyer, _deliveryLocation, _quantity);\n\n    }\n\n    function deliverShipment(\n      uint _deliveryOrderNumber\n    ) public  {\n        require(user.isUser(msg.sender) == true);\n        //require(order.getShipmentStatus(_deliveryOrderNumber) == Shipped || order.getShipmentStatus(_deliveryOrderNumber) == Preparing);\n        order.setShipmentStatus(_deliveryOrderNumber);\n        order.updateOrderStatus(_deliveryOrderNumber);\n        emit shipmentDeliver(_deliveryOrderNumber, order.getShipmentDestination(_deliveryOrderNumber), order.getBuyerLocation(_deliveryOrderNumber), block.timestamp);\n\n      }\n\n    function setGPSlocation(string _location, uint _deliveryNum) public {\n      require(user.isUser(msg.sender) == true);\n      require(deliveryInfo[_deliveryNum].status == deliveryStatus.Shipped);\n      bytes32 location = keccak256(abi.encodePacked(_location));\n      GPSLocation[_deliveryNum] = location;\n    }\n\n    function getGPSlocation(uint _deliveryNum) public   view returns (bytes32) {\n      require(user.isUser(msg.sender) == true);\n      require(deliveryInfo[_deliveryNum].status == deliveryStatus.Shipped);\n      bytes32 location = GPSLocation[_deliveryNum];\n      return location;\n    }\n\n    function setShipmentGPSlocation(string _location, uint _orderNumber) public {\n      require(user.isUser(msg.sender) == true);\n      //require(order.getShipmentStatus(_orderNumber) == 'Shipped');\n      bytes32 location = keccak256(abi.encodePacked(_location));\n      GPSLocation[_orderNumber] = location;\n    }\n\n    function getShipmentGPSlocation(uint _orderNumber) public  view  returns (bytes32) {\n      require(user.isUser(msg.sender) == true);\n      //require(order.getShipmentStatus(_orderNumber) == 'Shipped');\n      bytes32 location = GPSLocation[_orderNumber];\n      return location;\n    }\n\n    /** function getDeliveryID() private view returns (uint256) {\n        return uint256(uint256(keccak256(abi.encodePacked(block.timestamp, block.difficulty)))%259);\n    } **/\n }\n",
  "sourcePath": "/home/kelvin/Desktop/AgroAfrica/agroafricachain_solidity/contracts/delivery.sol",
  "compiler": {
    "name": "solc",
    "version": "0.4.26+commit.4563c3fc.Emscripten.clang"
  },
  "schemaVersion": "3.2.5",
  "updatedAt": "2020-11-03T23:07:48.954Z",
  "devdoc": {
    "methods": {}
  },
  "userdoc": {
    "methods": {}
  }
}