{
  "contractName": "description",
  "abi": [
    {
      "constant": true,
      "inputs": [
        {
          "name": "",
          "type": "address"
        },
        {
          "name": "",
          "type": "bytes32"
        }
      ],
      "name": "addDescriptions",
      "outputs": [
        {
          "name": "category",
          "type": "uint8"
        },
        {
          "name": "name",
          "type": "string"
        },
        {
          "name": "grade",
          "type": "uint8"
        },
        {
          "name": "species",
          "type": "string"
        },
        {
          "name": "moisture",
          "type": "uint256"
        },
        {
          "name": "caffeineContent",
          "type": "uint256"
        },
        {
          "name": "aflatoxin",
          "type": "uint256"
        }
      ],
      "payable": false,
      "stateMutability": "view",
      "type": "function"
    },
    {
      "constant": true,
      "inputs": [],
      "name": "user",
      "outputs": [
        {
          "name": "",
          "type": "address"
        }
      ],
      "payable": false,
      "stateMutability": "view",
      "type": "function"
    },
    {
      "inputs": [
        {
          "name": "_user",
          "type": "address"
        }
      ],
      "payable": false,
      "stateMutability": "nonpayable",
      "type": "constructor"
    },
    {
      "anonymous": false,
      "inputs": [
        {
          "indexed": false,
          "name": "_itsName",
          "type": "string"
        },
        {
          "indexed": false,
          "name": "_itsGrade",
          "type": "uint8"
        },
        {
          "indexed": false,
          "name": "_itsSpecies",
          "type": "string"
        },
        {
          "indexed": false,
          "name": "_itsMoisture",
          "type": "uint256"
        },
        {
          "indexed": false,
          "name": "_itsCaffeineContent",
          "type": "uint256"
        },
        {
          "indexed": false,
          "name": "_AflatoxinContent",
          "type": "uint256"
        }
      ],
      "name": "productDescription",
      "type": "event"
    },
    {
      "constant": false,
      "inputs": [
        {
          "name": "_type",
          "type": "uint8"
        },
        {
          "name": "_name",
          "type": "string"
        },
        {
          "name": "_grade",
          "type": "uint8"
        },
        {
          "name": "_species",
          "type": "string"
        },
        {
          "name": "_moisture",
          "type": "uint256"
        },
        {
          "name": "_caffeineContent",
          "type": "uint256"
        },
        {
          "name": "_aflatoxin",
          "type": "uint256"
        }
      ],
      "name": "addProductDescription",
      "outputs": [
        {
          "name": "",
          "type": "address"
        },
        {
          "name": "",
          "type": "uint8"
        },
        {
          "name": "",
          "type": "uint8"
        },
        {
          "name": "",
          "type": "string"
        },
        {
          "name": "",
          "type": "uint256"
        },
        {
          "name": "",
          "type": "uint256"
        },
        {
          "name": "",
          "type": "uint256"
        }
      ],
      "payable": false,
      "stateMutability": "nonpayable",
      "type": "function"
    },
    {
      "constant": true,
      "inputs": [
        {
          "name": "_producer",
          "type": "address"
        },
        {
          "name": "_productName",
          "type": "string"
        }
      ],
      "name": "getProductDescription",
      "outputs": [
        {
          "name": "_category",
          "type": "uint8"
        },
        {
          "name": "_name",
          "type": "string"
        },
        {
          "name": "_grade",
          "type": "uint8"
        },
        {
          "name": "_species",
          "type": "string"
        },
        {
          "name": "_moisture",
          "type": "uint256"
        },
        {
          "name": "_caffeineContent",
          "type": "uint256"
        },
        {
          "name": "_aflatoxin",
          "type": "uint256"
        }
      ],
      "payable": false,
      "stateMutability": "view",
      "type": "function"
    }
  ],
  "bytecode": "0x608060405234801561001057600080fd5b506040516020806115e383398101806040528101908080519060200190929190505050600073ffffffffffffffffffffffffffffffffffffffff163373ffffffffffffffffffffffffffffffffffffffff161415151561006f57600080fd5b806000806101000a81548173ffffffffffffffffffffffffffffffffffffffff021916908373ffffffffffffffffffffffffffffffffffffffff16021790555050611524806100bf6000396000f300608060405260043610610062576000357c0100000000000000000000000000000000000000000000000000000000900463ffffffff16806308d3ad03146100675780634f8632ba146101dc578063500173c714610233578063bcad146c14610405575b600080fd5b34801561007357600080fd5b506100b6600480360381019080803573ffffffffffffffffffffffffffffffffffffffff16906020019092919080356000191690602001909291905050506105b2565b604051808860058111156100c657fe5b60ff168152602001806020018760028111156100de57fe5b60ff16815260200180602001868152602001858152602001848152602001838103835289818151815260200191508051906020019080838360005b83811015610134578082015181840152602081019050610119565b50505050905090810190601f1680156101615780820380516001836020036101000a031916815260200191505b50838103825287818151815260200191508051906020019080838360005b8381101561019a57808201518184015260208101905061017f565b50505050905090810190601f1680156101c75780820380516001836020036101000a031916815260200191505b50995050505050505050505060405180910390f35b3480156101e857600080fd5b506101f161074b565b604051808273ffffffffffffffffffffffffffffffffffffffff1673ffffffffffffffffffffffffffffffffffffffff16815260200191505060405180910390f35b34801561023f57600080fd5b50610318600480360381019080803560ff169060200190929190803590602001908201803590602001908080601f0160208091040260200160405190810160405280939291908181526020018383808284378201915050505050509192919290803560ff169060200190929190803590602001908201803590602001908080601f0160208091040260200160405190810160405280939291908181526020018383808284378201915050505050509192919290803590602001909291908035906020019092919080359060200190929190505050610770565b604051808873ffffffffffffffffffffffffffffffffffffffff1673ffffffffffffffffffffffffffffffffffffffff16815260200187600581111561035a57fe5b60ff16815260200186600281111561036e57fe5b60ff16815260200180602001858152602001848152602001838152602001828103825286818151815260200191508051906020019080838360005b838110156103c45780820151818401526020810190506103a9565b50505050905090810190601f1680156103f15780820380516001836020036101000a031916815260200191505b509850505050505050505060405180910390f35b34801561041157600080fd5b5061048c600480360381019080803573ffffffffffffffffffffffffffffffffffffffff169060200190929190803590602001908201803590602001908080601f0160208091040260200160405190810160405280939291908181526020018383808284378201915050505050509192919290505050610de6565b6040518088600581111561049c57fe5b60ff168152602001806020018760028111156104b457fe5b60ff16815260200180602001868152602001858152602001848152602001838103835289818151815260200191508051906020019080838360005b8381101561050a5780820151818401526020810190506104ef565b50505050905090810190601f1680156105375780820380516001836020036101000a031916815260200191505b50838103825287818151815260200191508051906020019080838360005b83811015610570578082015181840152602081019050610555565b50505050905090810190601f16801561059d5780820380516001836020036101000a031916815260200191505b50995050505050505050505060405180910390f35b6001602052816000526040600020602052806000526040600020600091509150508060000160009054906101000a900460ff1690806001018054600181600116156101000203166002900480601f01602080910402602001604051908101604052809291908181526020018280546001816001161561010002031660029004801561067e5780601f106106535761010080835404028352916020019161067e565b820191906000526020600020905b81548152906001019060200180831161066157829003601f168201915b5050505050908060020160009054906101000a900460ff1690806003018054600181600116156101000203166002900480601f01602080910402602001604051908101604052809291908181526020018280546001816001161561010002031660029004801561072f5780601f106107045761010080835404028352916020019161072f565b820191906000526020600020905b81548152906001019060200180831161071257829003601f168201915b5050505050908060040154908060050154908060060154905087565b6000809054906101000a900473ffffffffffffffffffffffffffffffffffffffff1681565b60008060006060600080600080600115156000809054906101000a900473ffffffffffffffffffffffffffffffffffffffff1673ffffffffffffffffffffffffffffffffffffffff16634209fff1336040518263ffffffff167c0100000000000000000000000000000000000000000000000000000000028152600401808273ffffffffffffffffffffffffffffffffffffffff1673ffffffffffffffffffffffffffffffffffffffff168152602001915050602060405180830381600087803b15801561083d57600080fd5b505af1158015610851573d6000803e3d6000fd5b505050506040513d602081101561086757600080fd5b8101908080519060200190929190505050151514151561088657600080fd5b8d6040516020018082805190602001908083835b6020831015156108bf578051825260208201915060208101905060208303925061089a565b6001836020036101000a0380198251168184511680821785525050505050509050019150506040516020818303038152906040526040518082805190602001908083835b6020831015156109285780518252602082019150602081019050602083039250610903565b6001836020036101000a038019825116818451168082178552505050505050905001915050604051809103902090508d600160003373ffffffffffffffffffffffffffffffffffffffff1673ffffffffffffffffffffffffffffffffffffffff1681526020019081526020016000206000836000191660001916815260200190815260200160002060010190805190602001906109c6929190611453565b508e600160003373ffffffffffffffffffffffffffffffffffffffff1673ffffffffffffffffffffffffffffffffffffffff1681526020019081526020016000206000836000191660001916815260200190815260200160002060000160006101000a81548160ff02191690836005811115610a3e57fe5b02179055508c600160003373ffffffffffffffffffffffffffffffffffffffff1673ffffffffffffffffffffffffffffffffffffffff1681526020019081526020016000206000836000191660001916815260200190815260200160002060020160006101000a81548160ff02191690836002811115610aba57fe5b02179055508b600160003373ffffffffffffffffffffffffffffffffffffffff1673ffffffffffffffffffffffffffffffffffffffff168152602001908152602001600020600083600019166000191681526020019081526020016000206003019080519060200190610b2e929190611453565b50610b4360648c61140590919063ffffffff16565b600160003373ffffffffffffffffffffffffffffffffffffffff1673ffffffffffffffffffffffffffffffffffffffff1681526020019081526020016000206000836000191660001916815260200190815260200160002060040181905550610bb660648b61140590919063ffffffff16565b600160003373ffffffffffffffffffffffffffffffffffffffff1673ffffffffffffffffffffffffffffffffffffffff1681526020019081526020016000206000836000191660001916815260200190815260200160002060050181905550610c2960648a61140590919063ffffffff16565b600160003373ffffffffffffffffffffffffffffffffffffffff1673ffffffffffffffffffffffffffffffffffffffff16815260200190815260200160002060008360001916600019168152602001908152602001600020600601819055507f92c30799ec238b62d1a42fa666afe428150e899e469ccc789c33b72b1b0453a58e8e8e8e8e8e6040518080602001876002811115610cc357fe5b60ff16815260200180602001868152602001858152602001848152602001838103835289818151815260200191508051906020019080838360005b83811015610d19578082015181840152602081019050610cfe565b50505050905090810190601f168015610d465780820380516001836020036101000a031916815260200191505b50838103825287818151815260200191508051906020019080838360005b83811015610d7f578082015181840152602081019050610d64565b50505050905090810190601f168015610dac5780820380516001836020036101000a031916815260200191505b509850505050505050505060405180910390a1338f8e8e8e8e8e975097509750975097509750975050975097509750975097509750979050565b6000606060006060600080600080600115156000809054906101000a900473ffffffffffffffffffffffffffffffffffffffff1673ffffffffffffffffffffffffffffffffffffffff16634209fff1336040518263ffffffff167c0100000000000000000000000000000000000000000000000000000000028152600401808273ffffffffffffffffffffffffffffffffffffffff1673ffffffffffffffffffffffffffffffffffffffff168152602001915050602060405180830381600087803b158015610eb457600080fd5b505af1158015610ec8573d6000803e3d6000fd5b505050506040513d6020811015610ede57600080fd5b81019080805190602001909291905050501515141515610efd57600080fd5b886040516020018082805190602001908083835b602083101515610f365780518252602082019150602081019050602083039250610f11565b6001836020036101000a0380198251168184511680821785525050505050509050019150506040516020818303038152906040526040518082805190602001908083835b602083101515610f9f5780518252602082019150602081019050602083039250610f7a565b6001836020036101000a03801982511681845116808217855250505050505090500191505060405180910390209050600160008b73ffffffffffffffffffffffffffffffffffffffff1673ffffffffffffffffffffffffffffffffffffffff1681526020019081526020016000206000826000191660001916815260200190815260200160002060000160009054906101000a900460ff169750600160008b73ffffffffffffffffffffffffffffffffffffffff1673ffffffffffffffffffffffffffffffffffffffff168152602001908152602001600020600082600019166000191681526020019081526020016000206001018054600181600116156101000203166002900480601f0160208091040260200160405190810160405280929190818152602001828054600181600116156101000203166002900480156111285780601f106110fd57610100808354040283529160200191611128565b820191906000526020600020905b81548152906001019060200180831161110b57829003601f168201915b50505050509650600160008b73ffffffffffffffffffffffffffffffffffffffff1673ffffffffffffffffffffffffffffffffffffffff1681526020019081526020016000206000826000191660001916815260200190815260200160002060020160009054906101000a900460ff169550600160008b73ffffffffffffffffffffffffffffffffffffffff1673ffffffffffffffffffffffffffffffffffffffff168152602001908152602001600020600082600019166000191681526020019081526020016000206003018054600181600116156101000203166002900480601f0160208091040260200160405190810160405280929190818152602001828054600181600116156101000203166002900480156112895780601f1061125e57610100808354040283529160200191611289565b820191906000526020600020905b81548152906001019060200180831161126c57829003601f168201915b505050505094506112ff6064600160008d73ffffffffffffffffffffffffffffffffffffffff1673ffffffffffffffffffffffffffffffffffffffff168152602001908152602001600020600084600019166000191681526020019081526020016000206004015461143d90919063ffffffff16565b93506113706064600160008d73ffffffffffffffffffffffffffffffffffffffff1673ffffffffffffffffffffffffffffffffffffffff168152602001908152602001600020600084600019166000191681526020019081526020016000206005015461143d90919063ffffffff16565b92506113e16064600160008d73ffffffffffffffffffffffffffffffffffffffff1673ffffffffffffffffffffffffffffffffffffffff168152602001908152602001600020600084600019166000191681526020019081526020016000206006015461143d90919063ffffffff16565b91508787878787878797509750975097509750975097505092959891949750929550565b6000808314156114185760009050611437565b818302905081838281151561142957fe5b0414151561143357fe5b8090505b92915050565b6000818381151561144a57fe5b04905092915050565b828054600181600116156101000203166002900490600052602060002090601f016020900481019282601f1061149457805160ff19168380011785556114c2565b828001600101855582156114c2579182015b828111156114c15782518255916020019190600101906114a6565b5b5090506114cf91906114d3565b5090565b6114f591905b808211156114f15760008160009055506001016114d9565b5090565b905600a165627a7a72305820ecfff468aa448c0f38285c0538c025a882e7e7f87eb168c92ff7d95a980447ff0029",
  "source": "pragma solidity ^0.4.23;\nimport \"./SafeMath.sol\";\n//import \"./products.sol\";\nimport \"./users.sol\";\n/**\n * @title Agricultural Products Specifications Smart Contract\n *\n * @dev\tKeeps track of  each produce specifactions, standard, grade, and condition\n * @author Kelvin Ndereba\n * GandH Blockchain Solutions\n */\n\n /**\n   * @dev Add and Get Product Description , standard and Features Smart Contract\n **/\n contract description  {\n  using SafeMath for uint256;\n  //products public product;\n  users public user;\n  enum ProductType {Cereal, Coffee, Tea, Grain, Flour, Cocoa}\n  enum ProductGrade {Grade1, Grade2, Grade3}\n struct descriptions{\n   ProductType category;\n   string name;\n   ProductGrade grade;\n   string species;\n   uint256 moisture;\n   uint256 caffeineContent;\n   uint256 aflatoxin;\n }\n\n event productDescription(string _itsName, ProductGrade _itsGrade, string _itsSpecies, uint256 _itsMoisture, uint256 _itsCaffeineContent, uint256 _AflatoxinContent);\n\n mapping(address => mapping(bytes32 => descriptions)) public addDescriptions;\n\n constructor(users _user) public{\n         require(msg.sender != address(0));\n         user = _user;\n     }\n\n function addProductDescription(\n   ProductType _type,\n   string _name,\n   ProductGrade _grade,\n   string _species,\n   uint256 _moisture,\n   uint256 _caffeineContent,\n   uint256 _aflatoxin\n ) public returns(address, ProductType, ProductGrade,  string, uint256, uint256, uint256){\n     require(user.isUser(msg.sender) == true);\n\n     bytes32 byteName = keccak256(abi.encodePacked(_name));\n    // require(product.checkProduct(_name) == true);\n     addDescriptions[msg.sender][byteName].name = _name;\n     addDescriptions[msg.sender][byteName].category = _type;\n     addDescriptions[msg.sender][byteName].grade = _grade;\n     addDescriptions[msg.sender][byteName].species = _species;\n     addDescriptions[msg.sender][byteName].moisture = _moisture.mul(100);\n     addDescriptions[msg.sender][byteName].caffeineContent = _caffeineContent.mul(100);\n     addDescriptions[msg.sender][byteName].aflatoxin = _aflatoxin.mul(100);\n\n     emit productDescription(_name, _grade, _species, _moisture, _caffeineContent, _aflatoxin);\n     return(msg.sender, _type, _grade, _species, _moisture, _caffeineContent, _aflatoxin);\n   }\n\n   function getProductDescription(\n     address _producer,\n     string _productName\n   )public view  returns (\n       ProductType _category,\n       string _name,\n       ProductGrade _grade,\n       string _species,\n       uint256 _moisture,\n       uint256 _caffeineContent,\n       uint256  _aflatoxin\n       ){\n       require(user.isUser(msg.sender) == true);\n       bytes32 productName = keccak256(abi.encodePacked(_productName));\n       _category = addDescriptions[_producer][productName].category;\n       _name = addDescriptions[_producer][productName].name;\n       _grade = addDescriptions[_producer][productName].grade;\n       _species = addDescriptions[_producer][productName].species;\n       _moisture = addDescriptions[_producer][productName].moisture.div(100);\n        _caffeineContent = addDescriptions[_producer][productName].caffeineContent.div(100);\n       _aflatoxin = addDescriptions[_producer][productName].aflatoxin.div(100);\n       return(\n         _category,\n         _name,\n         _grade,\n         _species,\n         _moisture,\n         _caffeineContent,\n         _aflatoxin\n         );\n       }\n }\n",
  "sourcePath": "/home/kelvin/Desktop/AgroAfrica/agroafricachain_solidity/contracts/description.sol",
  "compiler": {
    "name": "solc",
    "version": "0.4.26+commit.4563c3fc.Emscripten.clang"
  },
  "schemaVersion": "3.2.5",
  "updatedAt": "2020-11-03T12:32:55.464Z",
  "devdoc": {
    "methods": {}
  },
  "userdoc": {
    "methods": {}
  }
}