{
  "contractName": "offers",
  "abi": [
    {
      "constant": true,
      "inputs": [
        {
          "name": "",
          "type": "bytes32"
        }
      ],
      "name": "isOffer",
      "outputs": [
        {
          "name": "",
          "type": "bool"
        }
      ],
      "payable": false,
      "stateMutability": "view",
      "type": "function"
    },
    {
      "constant": true,
      "inputs": [],
      "name": "user",
      "outputs": [
        {
          "name": "",
          "type": "address"
        }
      ],
      "payable": false,
      "stateMutability": "view",
      "type": "function"
    },
    {
      "constant": true,
      "inputs": [
        {
          "name": "",
          "type": "bytes32"
        },
        {
          "name": "",
          "type": "bytes32"
        }
      ],
      "name": "SearchByName",
      "outputs": [
        {
          "name": "offerName",
          "type": "string"
        },
        {
          "name": "productName",
          "type": "string"
        },
        {
          "name": "productPicture",
          "type": "string"
        },
        {
          "name": "productLocation",
          "type": "string"
        },
        {
          "name": "productSource",
          "type": "address"
        },
        {
          "name": "quantity",
          "type": "uint256"
        },
        {
          "name": "productLink",
          "type": "string"
        }
      ],
      "payable": false,
      "stateMutability": "view",
      "type": "function"
    },
    {
      "constant": true,
      "inputs": [],
      "name": "noOfOffers",
      "outputs": [
        {
          "name": "",
          "type": "uint256"
        }
      ],
      "payable": false,
      "stateMutability": "view",
      "type": "function"
    },
    {
      "constant": true,
      "inputs": [
        {
          "name": "",
          "type": "address"
        },
        {
          "name": "",
          "type": "bytes32"
        }
      ],
      "name": "lookUpOffer",
      "outputs": [
        {
          "name": "offerName",
          "type": "string"
        },
        {
          "name": "productName",
          "type": "string"
        },
        {
          "name": "productPicture",
          "type": "string"
        },
        {
          "name": "productLocation",
          "type": "string"
        },
        {
          "name": "productSource",
          "type": "address"
        },
        {
          "name": "quantity",
          "type": "uint256"
        },
        {
          "name": "productLink",
          "type": "string"
        }
      ],
      "payable": false,
      "stateMutability": "view",
      "type": "function"
    },
    {
      "inputs": [
        {
          "name": "_user",
          "type": "address"
        }
      ],
      "payable": false,
      "stateMutability": "nonpayable",
      "type": "constructor"
    },
    {
      "anonymous": false,
      "inputs": [
        {
          "indexed": false,
          "name": "_productName",
          "type": "string"
        },
        {
          "indexed": false,
          "name": "_source",
          "type": "address"
        },
        {
          "indexed": false,
          "name": "_productLink",
          "type": "string"
        },
        {
          "indexed": false,
          "name": "_productLocation",
          "type": "string"
        }
      ],
      "name": "newOffer",
      "type": "event"
    },
    {
      "constant": false,
      "inputs": [
        {
          "name": "_offerName",
          "type": "string"
        },
        {
          "name": "_productName",
          "type": "string"
        },
        {
          "name": "_productPicture",
          "type": "string"
        },
        {
          "name": "_productLocation",
          "type": "string"
        },
        {
          "name": "_productSource",
          "type": "address"
        },
        {
          "name": "_productLink",
          "type": "string"
        },
        {
          "name": "_offerQuantity",
          "type": "uint256"
        }
      ],
      "name": "setOffer",
      "outputs": [],
      "payable": false,
      "stateMutability": "nonpayable",
      "type": "function"
    },
    {
      "constant": true,
      "inputs": [
        {
          "name": "_bidder",
          "type": "address"
        },
        {
          "name": "_location",
          "type": "string"
        }
      ],
      "name": "getOfferByLocation",
      "outputs": [
        {
          "name": "",
          "type": "string"
        },
        {
          "name": "",
          "type": "string"
        },
        {
          "name": "",
          "type": "address"
        },
        {
          "name": "",
          "type": "string"
        },
        {
          "name": "",
          "type": "uint256"
        }
      ],
      "payable": false,
      "stateMutability": "view",
      "type": "function"
    }
  ],
  "bytecode": "0x608060405234801561001057600080fd5b5060405160208061253483398101806040528101908080519060200190929190505050600073ffffffffffffffffffffffffffffffffffffffff163373ffffffffffffffffffffffffffffffffffffffff161415151561006f57600080fd5b806000806101000a81548173ffffffffffffffffffffffffffffffffffffffff021916908373ffffffffffffffffffffffffffffffffffffffff16021790555050612475806100bf6000396000f300608060405260043610610083576000357c0100000000000000000000000000000000000000000000000000000000900463ffffffff168063060fe3cc1461008857806306a8d34c1461029c57806322d3092d146104475780634f8632ba1461049057806353ed1f6c146104e757806360fb3ca014610789578063650d1f65146107b4575b600080fd5b34801561009457600080fd5b5061010f600480360381019080803573ffffffffffffffffffffffffffffffffffffffff169060200190929190803590602001908201803590602001908080601f0160208091040260200160405190810160405280939291908181526020018383808284378201915050505050509192919290505050610a68565b6040518080602001806020018673ffffffffffffffffffffffffffffffffffffffff1673ffffffffffffffffffffffffffffffffffffffff16815260200180602001858152602001848103845289818151815260200191508051906020019080838360005b8381101561018f578082015181840152602081019050610174565b50505050905090810190601f1680156101bc5780820380516001836020036101000a031916815260200191505b50848103835288818151815260200191508051906020019080838360005b838110156101f55780820151818401526020810190506101da565b50505050905090810190601f1680156102225780820380516001836020036101000a031916815260200191505b50848103825286818151815260200191508051906020019080838360005b8381101561025b578082015181840152602081019050610240565b50505050905090810190601f1680156102885780820380516001836020036101000a031916815260200191505b509850505050505050505060405180910390f35b3480156102a857600080fd5b50610445600480360381019080803590602001908201803590602001908080601f0160208091040260200160405190810160405280939291908181526020018383808284378201915050505050509192919290803590602001908201803590602001908080601f0160208091040260200160405190810160405280939291908181526020018383808284378201915050505050509192919290803590602001908201803590602001908080601f0160208091040260200160405190810160405280939291908181526020018383808284378201915050505050509192919290803590602001908201803590602001908080601f0160208091040260200160405190810160405280939291908181526020018383808284378201915050505050509192919290803573ffffffffffffffffffffffffffffffffffffffff169060200190929190803590602001908201803590602001908080601f016020809104026020016040519081016040528093929190818152602001838380828437820191505050505050919291929080359060200190929190505050611143565b005b34801561045357600080fd5b506104766004803603810190808035600019169060200190929190505050611c7e565b604051808215151515815260200191505060405180910390f35b34801561049c57600080fd5b506104a5611c9e565b604051808273ffffffffffffffffffffffffffffffffffffffff1673ffffffffffffffffffffffffffffffffffffffff16815260200191505060405180910390f35b3480156104f357600080fd5b5061052460048036038101908080356000191690602001909291908035600019169060200190929190505050611cc3565b60405180806020018060200180602001806020018873ffffffffffffffffffffffffffffffffffffffff1673ffffffffffffffffffffffffffffffffffffffff1681526020018781526020018060200186810386528d818151815260200191508051906020019080838360005b838110156105ac578082015181840152602081019050610591565b50505050905090810190601f1680156105d95780820380516001836020036101000a031916815260200191505b5086810385528c818151815260200191508051906020019080838360005b838110156106125780820151818401526020810190506105f7565b50505050905090810190601f16801561063f5780820380516001836020036101000a031916815260200191505b5086810384528b818151815260200191508051906020019080838360005b8381101561067857808201518184015260208101905061065d565b50505050905090810190601f1680156106a55780820380516001836020036101000a031916815260200191505b5086810383528a818151815260200191508051906020019080838360005b838110156106de5780820151818401526020810190506106c3565b50505050905090810190601f16801561070b5780820380516001836020036101000a031916815260200191505b50868103825287818151815260200191508051906020019080838360005b83811015610744578082015181840152602081019050610729565b50505050905090810190601f1680156107715780820380516001836020036101000a031916815260200191505b509c5050505050505050505050505060405180910390f35b34801561079557600080fd5b5061079e61202a565b6040518082815260200191505060405180910390f35b3480156107c057600080fd5b50610803600480360381019080803573ffffffffffffffffffffffffffffffffffffffff1690602001909291908035600019169060200190929190505050612030565b60405180806020018060200180602001806020018873ffffffffffffffffffffffffffffffffffffffff1673ffffffffffffffffffffffffffffffffffffffff1681526020018781526020018060200186810386528d818151815260200191508051906020019080838360005b8381101561088b578082015181840152602081019050610870565b50505050905090810190601f1680156108b85780820380516001836020036101000a031916815260200191505b5086810385528c818151815260200191508051906020019080838360005b838110156108f15780820151818401526020810190506108d6565b50505050905090810190601f16801561091e5780820380516001836020036101000a031916815260200191505b5086810384528b818151815260200191508051906020019080838360005b8381101561095757808201518184015260208101905061093c565b50505050905090810190601f1680156109845780820380516001836020036101000a031916815260200191505b5086810383528a818151815260200191508051906020019080838360005b838110156109bd5780820151818401526020810190506109a2565b50505050905090810190601f1680156109ea5780820380516001836020036101000a031916815260200191505b50868103825287818151815260200191508051906020019080838360005b83811015610a23578082015181840152602081019050610a08565b50505050905090810190601f168015610a505780820380516001836020036101000a031916815260200191505b509c5050505050505050505050505060405180910390f35b606080600060606000806000806000806000600115156000809054906101000a900473ffffffffffffffffffffffffffffffffffffffff1673ffffffffffffffffffffffffffffffffffffffff16634209fff1336040518263ffffffff167c0100000000000000000000000000000000000000000000000000000000028152600401808273ffffffffffffffffffffffffffffffffffffffff1673ffffffffffffffffffffffffffffffffffffffff168152602001915050602060405180830381600087803b158015610b3a57600080fd5b505af1158015610b4e573d6000803e3d6000fd5b505050506040513d6020811015610b6457600080fd5b81019080805190602001909291905050501515141515610b8357600080fd5b600115156000809054906101000a900473ffffffffffffffffffffffffffffffffffffffff1673ffffffffffffffffffffffffffffffffffffffff16634209fff18f6040518263ffffffff167c0100000000000000000000000000000000000000000000000000000000028152600401808273ffffffffffffffffffffffffffffffffffffffff1673ffffffffffffffffffffffffffffffffffffffff168152602001915050602060405180830381600087803b158015610c4357600080fd5b505af1158015610c57573d6000803e3d6000fd5b505050506040513d6020811015610c6d57600080fd5b81019080805190602001909291905050501515141515610c8c57600080fd5b8b6040516020018082805190602001908083835b602083101515610cc55780518252602082019150602081019050602083039250610ca0565b6001836020036101000a0380198251168184511680821785525050505050509050019150506040516020818303038152906040526040518082805190602001908083835b602083101515610d2e5780518252602082019150602081019050602083039250610d09565b6001836020036101000a03801982511681845116808217855250505050505090500191505060405180910390209550600260008e73ffffffffffffffffffffffffffffffffffffffff1673ffffffffffffffffffffffffffffffffffffffff168152602001908152602001600020600087600019166000191681526020019081526020016000206001019450600260008e73ffffffffffffffffffffffffffffffffffffffff1673ffffffffffffffffffffffffffffffffffffffff168152602001908152602001600020600087600019166000191681526020019081526020016000206003019350600260008e73ffffffffffffffffffffffffffffffffffffffff1673ffffffffffffffffffffffffffffffffffffffff1681526020019081526020016000206000876000191660001916815260200190815260200160002060040160009054906101000a900473ffffffffffffffffffffffffffffffffffffffff169250600260008e73ffffffffffffffffffffffffffffffffffffffff1673ffffffffffffffffffffffffffffffffffffffff168152602001908152602001600020600087600019166000191681526020019081526020016000206006019150600260008e73ffffffffffffffffffffffffffffffffffffffff1673ffffffffffffffffffffffffffffffffffffffff168152602001908152602001600020600087600019166000191681526020019081526020016000206005015490508484848484848054600181600116156101000203166002900480601f016020809104026020016040519081016040528092919081815260200182805460018160011615610100020316600290048015610fea5780601f10610fbf57610100808354040283529160200191610fea565b820191906000526020600020905b815481529060010190602001808311610fcd57829003601f168201915b50505050509450838054600181600116156101000203166002900480601f0160208091040260200160405190810160405280929190818152602001828054600181600116156101000203166002900480156110865780601f1061105b57610100808354040283529160200191611086565b820191906000526020600020905b81548152906001019060200180831161106957829003601f168201915b50505050509350818054600181600116156101000203166002900480601f0160208091040260200160405190810160405280929190818152602001828054600181600116156101000203166002900480156111225780601f106110f757610100808354040283529160200191611122565b820191906000526020600020905b81548152906001019060200180831161110557829003601f168201915b505050505091509a509a509a509a509a505050505050509295509295909350565b600080600115156000809054906101000a900473ffffffffffffffffffffffffffffffffffffffff1673ffffffffffffffffffffffffffffffffffffffff16634209fff1336040518263ffffffff167c0100000000000000000000000000000000000000000000000000000000028152600401808273ffffffffffffffffffffffffffffffffffffffff1673ffffffffffffffffffffffffffffffffffffffff168152602001915050602060405180830381600087803b15801561120657600080fd5b505af115801561121a573d6000803e3d6000fd5b505050506040513d602081101561123057600080fd5b8101908080519060200190929190505050151514151561124f57600080fd5b600115156000809054906101000a900473ffffffffffffffffffffffffffffffffffffffff1673ffffffffffffffffffffffffffffffffffffffff16634209fff1876040518263ffffffff167c0100000000000000000000000000000000000000000000000000000000028152600401808273ffffffffffffffffffffffffffffffffffffffff1673ffffffffffffffffffffffffffffffffffffffff168152602001915050602060405180830381600087803b15801561130f57600080fd5b505af1158015611323573d6000803e3d6000fd5b505050506040513d602081101561133957600080fd5b8101908080519060200190929190505050151514151561135857600080fd5b886040516020018082805190602001908083835b602083101515611391578051825260208201915060208101905060208303925061136c565b6001836020036101000a0380198251168184511680821785525050505050509050019150506040516020818303038152906040526040518082805190602001908083835b6020831015156113fa57805182526020820191506020810190506020830392506113d5565b6001836020036101000a038019825116818451168082178552505050505050905001915050604051809103902091506000151560046000846000191660001916815260200190815260200160002060009054906101000a900460ff16151514151561146457600080fd5b856040516020018082805190602001908083835b60208310151561149d5780518252602082019150602081019050602083039250611478565b6001836020036101000a0380198251168184511680821785525050505050509050019150506040516020818303038152906040526040518082805190602001908083835b60208310151561150657805182526020820191506020810190506020830392506114e1565b6001836020036101000a0380198251168184511680821785525050505050509050019150506040518091039020905088600260008773ffffffffffffffffffffffffffffffffffffffff1673ffffffffffffffffffffffffffffffffffffffff1681526020019081526020016000206000836000191660001916815260200190815260200160002060000190805190602001906115a49291906123a4565b5087600260008773ffffffffffffffffffffffffffffffffffffffff1673ffffffffffffffffffffffffffffffffffffffff1681526020019081526020016000206000836000191660001916815260200190815260200160002060010190805190602001906116149291906123a4565b5086600260008773ffffffffffffffffffffffffffffffffffffffff1673ffffffffffffffffffffffffffffffffffffffff1681526020019081526020016000206000836000191660001916815260200190815260200160002060020190805190602001906116849291906123a4565b5085600260008773ffffffffffffffffffffffffffffffffffffffff1673ffffffffffffffffffffffffffffffffffffffff1681526020019081526020016000206000836000191660001916815260200190815260200160002060030190805190602001906116f49291906123a4565b5084600260008773ffffffffffffffffffffffffffffffffffffffff1673ffffffffffffffffffffffffffffffffffffffff1681526020019081526020016000206000836000191660001916815260200190815260200160002060040160006101000a81548173ffffffffffffffffffffffffffffffffffffffff021916908373ffffffffffffffffffffffffffffffffffffffff16021790555083600260008773ffffffffffffffffffffffffffffffffffffffff1673ffffffffffffffffffffffffffffffffffffffff1681526020019081526020016000206000836000191660001916815260200190815260200160002060060190805190602001906117fe9291906123a4565b5082600260008773ffffffffffffffffffffffffffffffffffffffff1673ffffffffffffffffffffffffffffffffffffffff1681526020019081526020016000206000836000191660001916815260200190815260200160002060050181905550886003600084600019166000191681526020019081526020016000206000836000191660001916815260200190815260200160002060010190805190602001906118aa9291906123a4565b50876003600084600019166000191681526020019081526020016000206000836000191660001916815260200190815260200160002060010190805190602001906118f69291906123a4565b50866003600084600019166000191681526020019081526020016000206000836000191660001916815260200190815260200160002060020190805190602001906119429291906123a4565b508560036000846000191660001916815260200190815260200160002060008360001916600019168152602001908152602001600020600301908051906020019061198e9291906123a4565b50846003600084600019166000191681526020019081526020016000206000836000191660001916815260200190815260200160002060040160006101000a81548173ffffffffffffffffffffffffffffffffffffffff021916908373ffffffffffffffffffffffffffffffffffffffff16021790555083600360008460001916600019168152602001908152602001600020600083600019166000191681526020019081526020016000206006019080519060200190611a509291906123a4565b50826003600084600019166000191681526020019081526020016000206000836000191660001916815260200190815260200160002060050181905550611a95612397565b600160046000846000191660001916815260200190815260200160002060006101000a81548160ff0219169083151502179055507f04db6aeb43c6bfc24fab2d17ae253e79d908e00fb07542172a9928097e1d8b3c8886868960405180806020018573ffffffffffffffffffffffffffffffffffffffff1673ffffffffffffffffffffffffffffffffffffffff1681526020018060200180602001848103845288818151815260200191508051906020019080838360005b83811015611b68578082015181840152602081019050611b4d565b50505050905090810190601f168015611b955780820380516001836020036101000a031916815260200191505b50848103835286818151815260200191508051906020019080838360005b83811015611bce578082015181840152602081019050611bb3565b50505050905090810190601f168015611bfb5780820380516001836020036101000a031916815260200191505b50848103825285818151815260200191508051906020019080838360005b83811015611c34578082015181840152602081019050611c19565b50505050905090810190601f168015611c615780820380516001836020036101000a031916815260200191505b5097505050505050505060405180910390a1505050505050505050565b60046020528060005260406000206000915054906101000a900460ff1681565b6000809054906101000a900473ffffffffffffffffffffffffffffffffffffffff1681565b600360205281600052604060002060205280600052604060002060009150915050806000018054600181600116156101000203166002900480601f016020809104026020016040519081016040528092919081815260200182805460018160011615610100020316600290048015611d7c5780601f10611d5157610100808354040283529160200191611d7c565b820191906000526020600020905b815481529060010190602001808311611d5f57829003601f168201915b505050505090806001018054600181600116156101000203166002900480601f016020809104026020016040519081016040528092919081815260200182805460018160011615610100020316600290048015611e1a5780601f10611def57610100808354040283529160200191611e1a565b820191906000526020600020905b815481529060010190602001808311611dfd57829003601f168201915b505050505090806002018054600181600116156101000203166002900480601f016020809104026020016040519081016040528092919081815260200182805460018160011615610100020316600290048015611eb85780601f10611e8d57610100808354040283529160200191611eb8565b820191906000526020600020905b815481529060010190602001808311611e9b57829003601f168201915b505050505090806003018054600181600116156101000203166002900480601f016020809104026020016040519081016040528092919081815260200182805460018160011615610100020316600290048015611f565780601f10611f2b57610100808354040283529160200191611f56565b820191906000526020600020905b815481529060010190602001808311611f3957829003601f168201915b5050505050908060040160009054906101000a900473ffffffffffffffffffffffffffffffffffffffff1690806005015490806006018054600181600116156101000203166002900480601f0160208091040260200160405190810160405280929190818152602001828054600181600116156101000203166002900480156120205780601f10611ff557610100808354040283529160200191612020565b820191906000526020600020905b81548152906001019060200180831161200357829003601f168201915b5050505050905087565b60015481565b600260205281600052604060002060205280600052604060002060009150915050806000018054600181600116156101000203166002900480601f0160208091040260200160405190810160405280929190818152602001828054600181600116156101000203166002900480156120e95780601f106120be576101008083540402835291602001916120e9565b820191906000526020600020905b8154815290600101906020018083116120cc57829003601f168201915b505050505090806001018054600181600116156101000203166002900480601f0160208091040260200160405190810160405280929190818152602001828054600181600116156101000203166002900480156121875780601f1061215c57610100808354040283529160200191612187565b820191906000526020600020905b81548152906001019060200180831161216a57829003601f168201915b505050505090806002018054600181600116156101000203166002900480601f0160208091040260200160405190810160405280929190818152602001828054600181600116156101000203166002900480156122255780601f106121fa57610100808354040283529160200191612225565b820191906000526020600020905b81548152906001019060200180831161220857829003601f168201915b505050505090806003018054600181600116156101000203166002900480601f0160208091040260200160405190810160405280929190818152602001828054600181600116156101000203166002900480156122c35780601f10612298576101008083540402835291602001916122c3565b820191906000526020600020905b8154815290600101906020018083116122a657829003601f168201915b5050505050908060040160009054906101000a900473ffffffffffffffffffffffffffffffffffffffff1690806005015490806006018054600181600116156101000203166002900480601f01602080910402602001604051908101604052809291908181526020018280546001816001161561010002031660029004801561238d5780601f106123625761010080835404028352916020019161238d565b820191906000526020600020905b81548152906001019060200180831161237057829003601f168201915b5050505050905087565b6001805401600181905550565b828054600181600116156101000203166002900490600052602060002090601f016020900481019282601f106123e557805160ff1916838001178555612413565b82800160010185558215612413579182015b828111156124125782518255916020019190600101906123f7565b5b5090506124209190612424565b5090565b61244691905b8082111561244257600081600090555060010161242a565b5090565b905600a165627a7a72305820c9b2bdfbc32db4c370a5f60212ad85a5f431f0dc0ca499b4f641fa9a004158400029",
  "source": "pragma solidity ^0.4.23;\nimport \"./SafeMath.sol\";\nimport \"./products.sol\";\n\n/**\n * @title Offer Management Smart Contract\n *\n * @dev\tAllows farmers to create most suitable offers based on the type of product they produce and their location\n *              Allows buyers to access most suitable available offers based on the produce name and location\n * @author Kelvin Ndereba\n * GandH Blockchain Solutions\n */\n\n /**\n * @notice Creating Product and Manipulating Sale Offers Based on Farmers Location Smart Contract\n**/\n contract offers{\n //using SafeMath for uint256;\n\n users public user;\n\n\n uint public noOfOffers;\n\n struct offer{\n   string offerName;\n   string productName;\n   string productPicture;\n   string productLocation;\n   address productSource;\n   uint256  quantity;\n   string productLink;\n }\n\n event newOffer(string _productName , address _source, string _productLink, string _productLocation);\n\n mapping(address  => mapping (bytes32 => offer)) public lookUpOffer;\n mapping(bytes32  => mapping (bytes32 => offer)) public SearchByName;\n mapping(bytes32 => bool) public isOffer;\n\n\n constructor(users _user) public{\n         require(msg.sender != address(0));\n         user = _user;\n     }\n\n function setOffer(\n   string _offerName,\n   string _productName,\n   string _productPicture,\n   string _productLocation,\n    address _productSource,\n    string _productLink,\n    uint256  _offerQuantity\n    ) public {\n   require(user.isUser(msg.sender) == true);\n   require(user.isUser(_productSource) == true);\n   //require(product.checkProduct(_productName) == true);\n  // require(product.checkDestination(_productLocation) == true);\n   bytes32 offerName = keccak256(abi.encodePacked(_offerName));\n   require(isOffer[offerName] == false);\n   bytes32 byteOfferLoc = keccak256(abi.encodePacked(_productLocation));\n\n   lookUpOffer[_productSource][byteOfferLoc].offerName = _offerName;\n   lookUpOffer[_productSource][byteOfferLoc].productName = _productName;\n   lookUpOffer[_productSource][byteOfferLoc].productPicture = _productPicture;\n   lookUpOffer[_productSource][byteOfferLoc].productLocation = _productLocation;\n   lookUpOffer[_productSource][byteOfferLoc].productSource = _productSource;\n   lookUpOffer[_productSource][byteOfferLoc].productLink = _productLink;\n   lookUpOffer[_productSource][byteOfferLoc].quantity = _offerQuantity;\n\n   SearchByName[offerName][byteOfferLoc].productName = _offerName;\n   SearchByName[offerName][byteOfferLoc].productName = _productName;\n   SearchByName[offerName][byteOfferLoc].productPicture = _productPicture;\n   SearchByName[offerName][byteOfferLoc].productLocation = _productLocation;\n   SearchByName[offerName][byteOfferLoc].productSource = _productSource;\n   SearchByName[offerName][byteOfferLoc].productLink = _productLink;\n   SearchByName[offerName][byteOfferLoc].quantity = _offerQuantity;\n\n\n   incrementOffers();\n    isOffer[offerName] = true;\n   emit newOffer(_productName, _productSource, _productLink, _productLocation);\n }\n\n function getOfferByLocation(\n   address _bidder,\n   string _location\n   )public view returns (string, string, address, string, uint256){\n     require(user.isUser(msg.sender) == true);\n     require(user.isUser(_bidder) == true);\n     //require(product.checkDestination(_location) == true);\n     bytes32 byteOfferLoc = keccak256(abi.encodePacked(_location));\n     string storage  name = lookUpOffer[_bidder][byteOfferLoc].productName;\n     //string storage picture = lookUpOffer[_bidder][_location].productPicture;\n     string storage offerLocation = lookUpOffer[_bidder][byteOfferLoc].productLocation;\n     address owner = lookUpOffer[_bidder][byteOfferLoc].productSource;\n     string storage productInformation = lookUpOffer[_bidder][byteOfferLoc].productLink;\n     uint256 offerQuantity = lookUpOffer[_bidder][byteOfferLoc].quantity;\n     return(\n       name,\n       offerLocation,\n       owner,\n       productInformation,\n       offerQuantity\n       );\n   }\n\n   function incrementOffers() internal {\n     noOfOffers = noOfOffers + 1;\n   }\n\n   }\n",
  "sourcePath": "/home/kelvin/Desktop/AgroAfrica/agroafricachain_solidity/contracts/offers.sol",
  "compiler": {
    "name": "solc",
    "version": "0.4.26+commit.4563c3fc.Emscripten.clang"
  },
  "schemaVersion": "3.2.5",
  "updatedAt": "2020-11-03T23:07:48.980Z",
  "devdoc": {
    "methods": {}
  },
  "userdoc": {
    "methods": {}
  }
}