{
  "contractName": "orders",
  "abi": [
    {
      "constant": true,
      "inputs": [],
      "name": "noOfOrders",
      "outputs": [
        {
          "name": "",
          "type": "uint256"
        }
      ],
      "payable": false,
      "stateMutability": "view",
      "type": "function"
    },
    {
      "constant": true,
      "inputs": [],
      "name": "user",
      "outputs": [
        {
          "name": "",
          "type": "address"
        }
      ],
      "payable": false,
      "stateMutability": "view",
      "type": "function"
    },
    {
      "constant": true,
      "inputs": [
        {
          "name": "",
          "type": "uint256"
        }
      ],
      "name": "ordersIndex",
      "outputs": [
        {
          "name": "OrderID",
          "type": "uint256"
        },
        {
          "name": "placedBy",
          "type": "address"
        },
        {
          "name": "quantity",
          "type": "uint256"
        },
        {
          "name": "subTotal",
          "type": "uint256"
        },
        {
          "name": "orderStatus",
          "type": "uint8"
        },
        {
          "name": "orderedTime",
          "type": "uint256"
        }
      ],
      "payable": false,
      "stateMutability": "view",
      "type": "function"
    },
    {
      "constant": true,
      "inputs": [
        {
          "name": "",
          "type": "uint256"
        }
      ],
      "name": "shipmentInfo",
      "outputs": [
        {
          "name": "orderNumber",
          "type": "uint256"
        },
        {
          "name": "destination",
          "type": "address"
        },
        {
          "name": "state",
          "type": "uint8"
        },
        {
          "name": "buyerLocation",
          "type": "string"
        }
      ],
      "payable": false,
      "stateMutability": "view",
      "type": "function"
    },
    {
      "inputs": [
        {
          "name": "_user",
          "type": "address"
        }
      ],
      "payable": false,
      "stateMutability": "nonpayable",
      "type": "constructor"
    },
    {
      "anonymous": false,
      "inputs": [
        {
          "indexed": false,
          "name": "_orderRef",
          "type": "uint256"
        },
        {
          "indexed": false,
          "name": "_buyerAddress",
          "type": "address"
        },
        {
          "indexed": false,
          "name": "_orderQuantity",
          "type": "uint256"
        },
        {
          "indexed": false,
          "name": "_orderSubTotal",
          "type": "uint256"
        }
      ],
      "name": "newOrder",
      "type": "event"
    },
    {
      "constant": false,
      "inputs": [
        {
          "name": "_orderId",
          "type": "uint256"
        },
        {
          "name": "_ordering",
          "type": "address"
        },
        {
          "name": "_quantity",
          "type": "uint256"
        },
        {
          "name": "_subTotal",
          "type": "uint256"
        },
        {
          "name": "_buyerLocation",
          "type": "string"
        }
      ],
      "name": "createAddToOrder",
      "outputs": [
        {
          "name": "",
          "type": "uint256"
        },
        {
          "name": "",
          "type": "address"
        },
        {
          "name": "",
          "type": "uint256"
        },
        {
          "name": "",
          "type": "uint256"
        }
      ],
      "payable": false,
      "stateMutability": "nonpayable",
      "type": "function"
    },
    {
      "constant": false,
      "inputs": [
        {
          "name": "_orderNumber",
          "type": "uint256"
        }
      ],
      "name": "updateOrderStatus",
      "outputs": [],
      "payable": false,
      "stateMutability": "nonpayable",
      "type": "function"
    },
    {
      "constant": true,
      "inputs": [
        {
          "name": "_orderNumber",
          "type": "uint256"
        }
      ],
      "name": "getShipmentStatus",
      "outputs": [
        {
          "name": "",
          "type": "uint8"
        }
      ],
      "payable": false,
      "stateMutability": "view",
      "type": "function"
    },
    {
      "constant": true,
      "inputs": [
        {
          "name": "_orderNumber",
          "type": "uint256"
        }
      ],
      "name": "getShipmentDestination",
      "outputs": [
        {
          "name": "",
          "type": "address"
        }
      ],
      "payable": false,
      "stateMutability": "view",
      "type": "function"
    },
    {
      "constant": true,
      "inputs": [
        {
          "name": "_orderNumber",
          "type": "uint256"
        }
      ],
      "name": "getBuyerLocation",
      "outputs": [
        {
          "name": "",
          "type": "string"
        }
      ],
      "payable": false,
      "stateMutability": "view",
      "type": "function"
    },
    {
      "constant": true,
      "inputs": [
        {
          "name": "_orderNumber",
          "type": "uint256"
        }
      ],
      "name": "getOrderAmount",
      "outputs": [
        {
          "name": "",
          "type": "uint256"
        }
      ],
      "payable": false,
      "stateMutability": "view",
      "type": "function"
    },
    {
      "constant": false,
      "inputs": [
        {
          "name": "_orderNumber",
          "type": "uint256"
        }
      ],
      "name": "setShipmentStatus",
      "outputs": [],
      "payable": false,
      "stateMutability": "nonpayable",
      "type": "function"
    }
  ],
  "bytecode": "0x608060405234801561001057600080fd5b5060405160208061132883398101806040528101908080519060200190929190505050600073ffffffffffffffffffffffffffffffffffffffff163373ffffffffffffffffffffffffffffffffffffffff161415151561006f57600080fd5b80600160006101000a81548173ffffffffffffffffffffffffffffffffffffffff021916908373ffffffffffffffffffffffffffffffffffffffff16021790555050611268806100c06000396000f3006080604052600436106100af576000357c0100000000000000000000000000000000000000000000000000000000900463ffffffff1680632eb6b6ce146100b45780634f8632ba146100df57806367bb1fcf1461013657806370b0748e14610177578063882cca81146101e4578063b1f84bd4146102e0578063b664d83e14610386578063b7316f7614610424578063c85fbc1314610519578063e9ffbb0714610546578063ee21259d14610573575b600080fd5b3480156100c057600080fd5b506100c96105c2565b6040518082815260200191505060405180910390f35b3480156100eb57600080fd5b506100f46105c8565b604051808273ffffffffffffffffffffffffffffffffffffffff1673ffffffffffffffffffffffffffffffffffffffff16815260200191505060405180910390f35b34801561014257600080fd5b50610161600480360381019080803590602001909291905050506105ee565b6040518082815260200191505060405180910390f35b34801561018357600080fd5b506101a260048036038101908080359060200190929190505050610711565b604051808273ffffffffffffffffffffffffffffffffffffffff1673ffffffffffffffffffffffffffffffffffffffff16815260200191505060405180910390f35b3480156101f057600080fd5b5061028960048036038101908080359060200190929190803573ffffffffffffffffffffffffffffffffffffffff1690602001909291908035906020019092919080359060200190929190803590602001908201803590602001908080601f0160208091040260200160405190810160405280939291908181526020018383808284378201915050505050509192919290505050610854565b604051808581526020018473ffffffffffffffffffffffffffffffffffffffff1673ffffffffffffffffffffffffffffffffffffffff16815260200183815260200182815260200194505050505060405180910390f35b3480156102ec57600080fd5b5061030b60048036038101908080359060200190929190505050610bab565b6040518080602001828103825283818151815260200191508051906020019080838360005b8381101561034b578082015181840152602081019050610330565b50505050905090810190601f1680156103785780820380516001836020036101000a031916815260200191505b509250505060405180910390f35b34801561039257600080fd5b506103b160048036038101908080359060200190929190505050610d66565b604051808781526020018673ffffffffffffffffffffffffffffffffffffffff1673ffffffffffffffffffffffffffffffffffffffff16815260200185815260200184815260200183600481111561040557fe5b60ff168152602001828152602001965050505050505060405180910390f35b34801561043057600080fd5b5061044f60048036038101908080359060200190929190505050610dcf565b604051808581526020018473ffffffffffffffffffffffffffffffffffffffff1673ffffffffffffffffffffffffffffffffffffffff16815260200183600281111561049757fe5b60ff16815260200180602001828103825283818151815260200191508051906020019080838360005b838110156104db5780820151818401526020810190506104c0565b50505050905090810190601f1680156105085780820380516001836020036101000a031916815260200191505b509550505050505060405180910390f35b34801561052557600080fd5b5061054460048036038101908080359060200190929190505050610ec4565b005b34801561055257600080fd5b5061057160048036038101908080359060200190929190505050611002565b005b34801561057f57600080fd5b5061059e6004803603810190808035906020019092919050505061103d565b604051808260028111156105ae57fe5b60ff16815260200191505060405180910390f35b60005481565b600160009054906101000a900473ffffffffffffffffffffffffffffffffffffffff1681565b6000600160009054906101000a900473ffffffffffffffffffffffffffffffffffffffff1673ffffffffffffffffffffffffffffffffffffffff16634209fff1336040518263ffffffff167c0100000000000000000000000000000000000000000000000000000000028152600401808273ffffffffffffffffffffffffffffffffffffffff1673ffffffffffffffffffffffffffffffffffffffff168152602001915050602060405180830381600087803b1580156106ad57600080fd5b505af11580156106c1573d6000803e3d6000fd5b505050506040513d60208110156106d757600080fd5b810190808051906020019092919050505015156106f357600080fd5b60026000838152602001908152602001600020600301549050919050565b6000600160009054906101000a900473ffffffffffffffffffffffffffffffffffffffff1673ffffffffffffffffffffffffffffffffffffffff16634209fff1336040518263ffffffff167c0100000000000000000000000000000000000000000000000000000000028152600401808273ffffffffffffffffffffffffffffffffffffffff1673ffffffffffffffffffffffffffffffffffffffff168152602001915050602060405180830381600087803b1580156107d057600080fd5b505af11580156107e4573d6000803e3d6000fd5b505050506040513d60208110156107fa57600080fd5b8101908080519060200190929190505050151561081657600080fd5b6003600083815260200190815260200160002060010160009054906101000a900473ffffffffffffffffffffffffffffffffffffffff169050919050565b60008060008060008611151561086957600080fd5b6000600481111561087657fe5b600260008b815260200190815260200160002060040160009054906101000a900460ff1660048111156108a557fe5b1415610936576108d487600260008c81526020019081526020016000206002015461116d90919063ffffffff16565b600260008b81526020019081526020016000206002018190555061091786600260008c81526020019081526020016000206003015461116d90919063ffffffff16565b600260008b815260200190815260200160002060030181905550610b93565b600054985088600260008b81526020019081526020016000206000018190555033600260008b815260200190815260200160002060010160006101000a81548173ffffffffffffffffffffffffffffffffffffffff021916908373ffffffffffffffffffffffffffffffffffffffff16021790555086600260008b81526020019081526020016000206002018190555085600260008b8152602001908152602001600020600301819055506000600260008b815260200190815260200160002060040160006101000a81548160ff02191690836004811115610a1457fe5b021790555042600260008b8152602001908152602001600020600501819055507f04a381976918b5f1c7d86f04dd27253acbbafc5cc1b371f74042af583e0c8052600054338989604051808581526020018473ffffffffffffffffffffffffffffffffffffffff1673ffffffffffffffffffffffffffffffffffffffff16815260200183815260200182815260200194505050505060405180910390a160005460036000805481526020019081526020016000206000018190555033600360008054815260200190815260200160002060010160006101000a81548173ffffffffffffffffffffffffffffffffffffffff021916908373ffffffffffffffffffffffffffffffffffffffff1602179055506000600360008054815260200190815260200160002060010160146101000a81548160ff02191690836002811115610b5957fe5b02179055508460036000805481526020019081526020016000206002019080519060200190610b89929190611197565b50610b92611189565b5b88888888935093509350935095509550955095915050565b6060600160009054906101000a900473ffffffffffffffffffffffffffffffffffffffff1673ffffffffffffffffffffffffffffffffffffffff16634209fff1336040518263ffffffff167c0100000000000000000000000000000000000000000000000000000000028152600401808273ffffffffffffffffffffffffffffffffffffffff1673ffffffffffffffffffffffffffffffffffffffff168152602001915050602060405180830381600087803b158015610c6a57600080fd5b505af1158015610c7e573d6000803e3d6000fd5b505050506040513d6020811015610c9457600080fd5b81019080805190602001909291905050501515610cb057600080fd5b600360008381526020019081526020016000206002018054600181600116156101000203166002900480601f016020809104026020016040519081016040528092919081815260200182805460018160011615610100020316600290048015610d5a5780601f10610d2f57610100808354040283529160200191610d5a565b820191906000526020600020905b815481529060010190602001808311610d3d57829003601f168201915b50505050509050919050565b60026020528060005260406000206000915090508060000154908060010160009054906101000a900473ffffffffffffffffffffffffffffffffffffffff16908060020154908060030154908060040160009054906101000a900460ff16908060050154905086565b60036020528060005260406000206000915090508060000154908060010160009054906101000a900473ffffffffffffffffffffffffffffffffffffffff16908060010160149054906101000a900460ff1690806002018054600181600116156101000203166002900480601f016020809104026020016040519081016040528092919081815260200182805460018160011615610100020316600290048015610eba5780601f10610e8f57610100808354040283529160200191610eba565b820191906000526020600020905b815481529060010190602001808311610e9d57829003601f168201915b5050505050905084565b600160009054906101000a900473ffffffffffffffffffffffffffffffffffffffff1673ffffffffffffffffffffffffffffffffffffffff16634209fff1336040518263ffffffff167c0100000000000000000000000000000000000000000000000000000000028152600401808273ffffffffffffffffffffffffffffffffffffffff1673ffffffffffffffffffffffffffffffffffffffff168152602001915050602060405180830381600087803b158015610f8157600080fd5b505af1158015610f95573d6000803e3d6000fd5b505050506040513d6020811015610fab57600080fd5b81019080805190602001909291905050501515610fc757600080fd5b60026003600083815260200190815260200160002060010160146101000a81548160ff02191690836002811115610ffa57fe5b021790555050565b60046002600083815260200190815260200160002060040160006101000a81548160ff0219169083600481111561103557fe5b021790555050565b6000600160009054906101000a900473ffffffffffffffffffffffffffffffffffffffff1673ffffffffffffffffffffffffffffffffffffffff16634209fff1336040518263ffffffff167c0100000000000000000000000000000000000000000000000000000000028152600401808273ffffffffffffffffffffffffffffffffffffffff1673ffffffffffffffffffffffffffffffffffffffff168152602001915050602060405180830381600087803b1580156110fc57600080fd5b505af1158015611110573d6000803e3d6000fd5b505050506040513d602081101561112657600080fd5b8101908080519060200190929190505050151561114257600080fd5b6003600083815260200190815260200160002060010160149054906101000a900460ff169050919050565b6000818301905082811015151561118057fe5b80905092915050565b600160005401600081905550565b828054600181600116156101000203166002900490600052602060002090601f016020900481019282601f106111d857805160ff1916838001178555611206565b82800160010185558215611206579182015b828111156112055782518255916020019190600101906111ea565b5b5090506112139190611217565b5090565b61123991905b8082111561123557600081600090555060010161121d565b5090565b905600a165627a7a72305820ad32768c603b35885f70a2f584910c582dd1d1e2c39a465757dc3208654e69340029",
  "source": "pragma solidity ^0.4.23;\nimport \"./users.sol\";\nimport \"./SafeMath.sol\";\n\ncontract orders{\n//using ProductsLibrary for address;\n//ExternalStorage public  externalStore;\nusing SafeMath for uint256;\nuint public noOfOrders;\nusers public user;\n enum  OrderStatus {Preparing, Shipped, Active, Returned, Completed}\n enum  ShipmentStatus {Preparing, Shipped, Delivered}\nstruct Orders {\n  uint OrderID;\n  address placedBy;\n  uint quantity;\n  uint subTotal;\n  OrderStatus orderStatus;\n  uint256 orderedTime;\n}\n\nstruct shipment{\n  uint orderNumber;\n  address destination;\n  ShipmentStatus state;\n  string buyerLocation;\n}\n\nevent newOrder(uint _orderRef , address _buyerAddress, uint256 _orderQuantity, uint256 _orderSubTotal);\n\n\n//mapping(address => Orders )public ordersSort;\nmapping(uint => Orders )public ordersIndex;\nmapping(uint => shipment) public shipmentInfo;\n\nconstructor(users _user) public{\n        require(msg.sender != address(0));\n        user = _user;\n    }\n\n  function createAddToOrder(\n    uint _orderId,\n    address _ordering,\n    uint256 _quantity,\n    uint256 _subTotal,\n    string _buyerLocation\n   ) public  returns (\n      uint,\n      address,\n      uint256,\n      uint256){\n    require(_subTotal > 0);\n    if (ordersIndex[_orderId].orderStatus == OrderStatus.Preparing){\n      ordersIndex[_orderId].quantity = ordersIndex[_orderId].quantity.add(_quantity);\n      ordersIndex[_orderId].subTotal = ordersIndex[_orderId].subTotal.add(_subTotal);\n    }\n    else{\n      _orderId = noOfOrders;\n      ordersIndex[_orderId].OrderID = _orderId;\n      ordersIndex[_orderId].placedBy = msg.sender;\n      ordersIndex[_orderId].quantity = _quantity;\n      ordersIndex[_orderId].subTotal = _subTotal;//_quantity.mul(ProductsLibrary.getProductPrice(externalStore, keccak256(abi.encodePacked(\"Product_name\", _prodName))));\n      ordersIndex[_orderId].orderStatus = OrderStatus.Preparing;\n      ordersIndex[_orderId].orderedTime = block.timestamp;\n      emit newOrder(noOfOrders, msg.sender, _quantity, _subTotal);\n      shipmentInfo[noOfOrders].orderNumber = noOfOrders;\n      shipmentInfo[noOfOrders].destination = msg.sender;\n      shipmentInfo[noOfOrders].state = ShipmentStatus.Preparing;\n      shipmentInfo[noOfOrders].buyerLocation = _buyerLocation;\n      incrementOrders();\n    }\n    return (_orderId, _ordering, _quantity, _subTotal);\n  }\n\n  function incrementOrders() internal {\n    noOfOrders = noOfOrders + 1;\n  }\n\n    function updateOrderStatus(uint _orderNumber) public {\n      ordersIndex[_orderNumber].orderStatus = OrderStatus.Completed;\n     }\n  function getShipmentStatus(uint _orderNumber) view external  returns (ShipmentStatus){\n     require(user.isUser(msg.sender));\n     return shipmentInfo[_orderNumber].state;\n     }\n     function getShipmentDestination(uint _orderNumber) view external  returns (address){\n        require(user.isUser(msg.sender));\n        return shipmentInfo[_orderNumber].destination;\n        }\n\n        function getBuyerLocation(uint _orderNumber) view external  returns (string){\n           require(user.isUser(msg.sender));\n           return shipmentInfo[_orderNumber].buyerLocation;\n         }\n         function getOrderAmount(uint _orderNumber) view external  returns (uint){\n            require(user.isUser(msg.sender));\n            return ordersIndex[_orderNumber].subTotal;\n          }\n\n     function setShipmentStatus(uint _orderNumber)  external {\n        require(user.isUser(msg.sender));\n        shipmentInfo[_orderNumber].state = ShipmentStatus.Delivered;\n        }\n}\n",
  "sourcePath": "/home/kelvin/Desktop/AgroAfrica/agroafricachain_solidity/contracts/orders.sol",
  "compiler": {
    "name": "solc",
    "version": "0.4.26+commit.4563c3fc.Emscripten.clang"
  },
  "schemaVersion": "3.2.5",
  "updatedAt": "2020-11-03T23:07:49.003Z",
  "devdoc": {
    "methods": {}
  },
  "userdoc": {
    "methods": {}
  }
}