{
  "contractName": "payments",
  "abi": [
    {
      "constant": true,
      "inputs": [],
      "name": "user",
      "outputs": [
        {
          "name": "",
          "type": "address"
        }
      ],
      "payable": false,
      "stateMutability": "view",
      "type": "function"
    },
    {
      "constant": true,
      "inputs": [],
      "name": "escrowAccount",
      "outputs": [
        {
          "name": "",
          "type": "address"
        }
      ],
      "payable": false,
      "stateMutability": "view",
      "type": "function"
    },
    {
      "constant": true,
      "inputs": [],
      "name": "order",
      "outputs": [
        {
          "name": "",
          "type": "address"
        }
      ],
      "payable": false,
      "stateMutability": "view",
      "type": "function"
    },
    {
      "constant": true,
      "inputs": [],
      "name": "product",
      "outputs": [
        {
          "name": "",
          "type": "address"
        }
      ],
      "payable": false,
      "stateMutability": "view",
      "type": "function"
    },
    {
      "inputs": [
        {
          "name": "_product",
          "type": "address"
        },
        {
          "name": "_escrowAccount",
          "type": "address"
        },
        {
          "name": "_order",
          "type": "address"
        },
        {
          "name": "_user",
          "type": "address"
        }
      ],
      "payable": false,
      "stateMutability": "nonpayable",
      "type": "constructor"
    },
    {
      "anonymous": false,
      "inputs": [
        {
          "indexed": false,
          "name": "orderTransactionID",
          "type": "uint256"
        },
        {
          "indexed": false,
          "name": "from",
          "type": "address"
        },
        {
          "indexed": false,
          "name": "to",
          "type": "address"
        },
        {
          "indexed": false,
          "name": "_paymentMode",
          "type": "uint8"
        },
        {
          "indexed": false,
          "name": "productMass",
          "type": "uint256"
        },
        {
          "indexed": false,
          "name": "total",
          "type": "uint256"
        }
      ],
      "name": "paid",
      "type": "event"
    },
    {
      "anonymous": false,
      "inputs": [
        {
          "indexed": false,
          "name": "buying",
          "type": "address"
        },
        {
          "indexed": false,
          "name": "selling",
          "type": "address"
        },
        {
          "indexed": false,
          "name": "orderTransactionRefRelease",
          "type": "uint256"
        },
        {
          "indexed": false,
          "name": "releasedValue",
          "type": "uint256"
        },
        {
          "indexed": false,
          "name": "releaseDate",
          "type": "uint256"
        }
      ],
      "name": "released",
      "type": "event"
    },
    {
      "anonymous": false,
      "inputs": [
        {
          "indexed": false,
          "name": "buyer",
          "type": "address"
        },
        {
          "indexed": false,
          "name": "seller",
          "type": "address"
        },
        {
          "indexed": false,
          "name": "orderTransactionRefRefund",
          "type": "uint256"
        },
        {
          "indexed": false,
          "name": "refundedValue",
          "type": "uint256"
        },
        {
          "indexed": false,
          "name": "refundDate",
          "type": "uint256"
        }
      ],
      "name": "refund",
      "type": "event"
    },
    {
      "constant": false,
      "inputs": [
        {
          "name": "_fromAccount",
          "type": "address"
        },
        {
          "name": "_toAccount",
          "type": "address"
        },
        {
          "name": "_quantity",
          "type": "uint256"
        },
        {
          "name": "_amount",
          "type": "uint256"
        },
        {
          "name": "_payMode",
          "type": "uint8"
        },
        {
          "name": "_orderNumber",
          "type": "uint256"
        }
      ],
      "name": "pay",
      "outputs": [],
      "payable": true,
      "stateMutability": "payable",
      "type": "function"
    },
    {
      "constant": false,
      "inputs": [
        {
          "name": "_seller",
          "type": "address"
        },
        {
          "name": "_buyer",
          "type": "address"
        },
        {
          "name": "_refNo",
          "type": "uint256"
        }
      ],
      "name": "releasePayment",
      "outputs": [],
      "payable": false,
      "stateMutability": "nonpayable",
      "type": "function"
    },
    {
      "constant": false,
      "inputs": [
        {
          "name": "_seller",
          "type": "address"
        },
        {
          "name": "_buyer",
          "type": "address"
        },
        {
          "name": "_refNo",
          "type": "uint256"
        }
      ],
      "name": "refundPayment",
      "outputs": [],
      "payable": false,
      "stateMutability": "nonpayable",
      "type": "function"
    }
  ],
  "bytecode": "0x608060405234801561001057600080fd5b5060405160808061244483398101806040528101908080519060200190929190805190602001909291908051906020019092919080519060200190929190505050600073ffffffffffffffffffffffffffffffffffffffff163373ffffffffffffffffffffffffffffffffffffffff161415151561008d57600080fd5b836000806101000a81548173ffffffffffffffffffffffffffffffffffffffff021916908373ffffffffffffffffffffffffffffffffffffffff16021790555081600360006101000a81548173ffffffffffffffffffffffffffffffffffffffff021916908373ffffffffffffffffffffffffffffffffffffffff16021790555080600160006101000a81548173ffffffffffffffffffffffffffffffffffffffff021916908373ffffffffffffffffffffffffffffffffffffffff16021790555082600260006101000a81548173ffffffffffffffffffffffffffffffffffffffff021916908373ffffffffffffffffffffffffffffffffffffffff160217905550505050506122a1806101a36000396000f300608060405260043610610083576000357c0100000000000000000000000000000000000000000000000000000000900463ffffffff16806336fb2066146100885780634f8632ba1461010957806354b3b018146101605780635cb42d36146101b75780636322015314610224578063bf15071d14610291578063bf9ce952146102e8575b600080fd5b610107600480360381019080803573ffffffffffffffffffffffffffffffffffffffff169060200190929190803573ffffffffffffffffffffffffffffffffffffffff1690602001909291908035906020019092919080359060200190929190803560ff1690602001909291908035906020019092919050505061033f565b005b34801561011557600080fd5b5061011e611337565b604051808273ffffffffffffffffffffffffffffffffffffffff1673ffffffffffffffffffffffffffffffffffffffff16815260200191505060405180910390f35b34801561016c57600080fd5b5061017561135d565b604051808273ffffffffffffffffffffffffffffffffffffffff1673ffffffffffffffffffffffffffffffffffffffff16815260200191505060405180910390f35b3480156101c357600080fd5b50610222600480360381019080803573ffffffffffffffffffffffffffffffffffffffff169060200190929190803573ffffffffffffffffffffffffffffffffffffffff16906020019092919080359060200190929190505050611383565b005b34801561023057600080fd5b5061028f600480360381019080803573ffffffffffffffffffffffffffffffffffffffff169060200190929190803573ffffffffffffffffffffffffffffffffffffffff16906020019092919080359060200190929190505050611a95565b005b34801561029d57600080fd5b506102a66121a7565b604051808273ffffffffffffffffffffffffffffffffffffffff1673ffffffffffffffffffffffffffffffffffffffff16815260200191505060405180910390f35b3480156102f457600080fd5b506102fd6121cd565b604051808273ffffffffffffffffffffffffffffffffffffffff1673ffffffffffffffffffffffffffffffffffffffff16815260200191505060405180910390f35b60011515600160009054906101000a900473ffffffffffffffffffffffffffffffffffffffff1673ffffffffffffffffffffffffffffffffffffffff16634209fff1336040518263ffffffff167c0100000000000000000000000000000000000000000000000000000000028152600401808273ffffffffffffffffffffffffffffffffffffffff1673ffffffffffffffffffffffffffffffffffffffff168152602001915050602060405180830381600087803b15801561040057600080fd5b505af1158015610414573d6000803e3d6000fd5b505050506040513d602081101561042a57600080fd5b8101908080519060200190929190505050151514151561044957600080fd5b60011515600160009054906101000a900473ffffffffffffffffffffffffffffffffffffffff1673ffffffffffffffffffffffffffffffffffffffff16634209fff1876040518263ffffffff167c0100000000000000000000000000000000000000000000000000000000028152600401808273ffffffffffffffffffffffffffffffffffffffff1673ffffffffffffffffffffffffffffffffffffffff168152602001915050602060405180830381600087803b15801561050a57600080fd5b505af115801561051e573d6000803e3d6000fd5b505050506040513d602081101561053457600080fd5b8101908080519060200190929190505050151514151561055357600080fd5b60011515600160009054906101000a900473ffffffffffffffffffffffffffffffffffffffff1673ffffffffffffffffffffffffffffffffffffffff16634209fff1886040518263ffffffff167c0100000000000000000000000000000000000000000000000000000000028152600401808273ffffffffffffffffffffffffffffffffffffffff1673ffffffffffffffffffffffffffffffffffffffff168152602001915050602060405180830381600087803b15801561061457600080fd5b505af1158015610628573d6000803e3d6000fd5b505050506040513d602081101561063e57600080fd5b8101908080519060200190929190505050151514151561065d57600080fd5b60008060009054906101000a900473ffffffffffffffffffffffffffffffffffffffff1673ffffffffffffffffffffffffffffffffffffffff166386f90c5888846040518363ffffffff167c0100000000000000000000000000000000000000000000000000000000028152600401808373ffffffffffffffffffffffffffffffffffffffff1673ffffffffffffffffffffffffffffffffffffffff16815260200182815260200192505050602060405180830381600087803b15801561072357600080fd5b505af1158015610737573d6000803e3d6000fd5b505050506040513d602081101561074d57600080fd5b810190808051906020019092919050505011151561076a57600080fd5b60008060009054906101000a900473ffffffffffffffffffffffffffffffffffffffff1673ffffffffffffffffffffffffffffffffffffffff1663f80ab78f87846040518363ffffffff167c0100000000000000000000000000000000000000000000000000000000028152600401808373ffffffffffffffffffffffffffffffffffffffff1673ffffffffffffffffffffffffffffffffffffffff16815260200182815260200192505050602060405180830381600087803b15801561083057600080fd5b505af1158015610844573d6000803e3d6000fd5b505050506040513d602081101561085a57600080fd5b810190808051906020019092919050505011151561087757600080fd5b6000600281111561088457fe5b82600281111561089057fe5b14156108b4576108b1670de0b6b3a7640000346121f290919063ffffffff16565b92505b600360009054906101000a900473ffffffffffffffffffffffffffffffffffffffff1673ffffffffffffffffffffffffffffffffffffffff166367bb1fcf826040518263ffffffff167c010000000000000000000000000000000000000000000000000000000002815260040180828152602001915050602060405180830381600087803b15801561094557600080fd5b505af1158015610959573d6000803e3d6000fd5b505050506040513d602081101561096f57600080fd5b8101908080519060200190929190505050831015151561098e57600080fd5b6000600281111561099b57fe5b8260028111156109a757fe5b148015610a7e5750600360009054906101000a900473ffffffffffffffffffffffffffffffffffffffff1673ffffffffffffffffffffffffffffffffffffffff166367bb1fcf826040518263ffffffff167c010000000000000000000000000000000000000000000000000000000002815260040180828152602001915050602060405180830381600087803b158015610a4057600080fd5b505af1158015610a54573d6000803e3d6000fd5b505050506040513d6020811015610a6a57600080fd5b810190808051906020019092919050505083115b15610e2957610b9c670de0b6b3a76400006000809054906101000a900473ffffffffffffffffffffffffffffffffffffffff1673ffffffffffffffffffffffffffffffffffffffff1663551cc76e89856040518363ffffffff167c0100000000000000000000000000000000000000000000000000000000028152600401808373ffffffffffffffffffffffffffffffffffffffff1673ffffffffffffffffffffffffffffffffffffffff16815260200182815260200192505050602060405180830381600087803b158015610b5357600080fd5b505af1158015610b67573d6000803e3d6000fd5b505050506040513d6020811015610b7d57600080fd5b810190808051906020019092919050505061220890919063ffffffff16565b92503373ffffffffffffffffffffffffffffffffffffffff166108fc610bcb853461224090919063ffffffff16565b9081150290604051600060405180830381858888f19350505050158015610bf6573d6000803e3d6000fd5b50600260009054906101000a900473ffffffffffffffffffffffffffffffffffffffff1673ffffffffffffffffffffffffffffffffffffffff166108fc849081150290604051600060405180830381858888f19350505050158015610c5f573d6000803e3d6000fd5b506000809054906101000a900473ffffffffffffffffffffffffffffffffffffffff1673ffffffffffffffffffffffffffffffffffffffff1663a44b1d9f8783866040518463ffffffff167c0100000000000000000000000000000000000000000000000000000000028152600401808473ffffffffffffffffffffffffffffffffffffffff1673ffffffffffffffffffffffffffffffffffffffff1681526020018381526020018281526020019350505050600060405180830381600087803b158015610d2c57600080fd5b505af1158015610d40573d6000803e3d6000fd5b505050506000809054906101000a900473ffffffffffffffffffffffffffffffffffffffff1673ffffffffffffffffffffffffffffffffffffffff1663613316048683866040518463ffffffff167c0100000000000000000000000000000000000000000000000000000000028152600401808473ffffffffffffffffffffffffffffffffffffffff1673ffffffffffffffffffffffffffffffffffffffff1681526020018381526020018281526020019350505050600060405180830381600087803b158015610e1057600080fd5b505af1158015610e24573d6000803e3d6000fd5b505050505b806004600083815260200190815260200160002060000181905550856004600083815260200190815260200160002060010160006101000a81548173ffffffffffffffffffffffffffffffffffffffff021916908373ffffffffffffffffffffffffffffffffffffffff160217905550846004600083815260200190815260200160002060020160006101000a81548173ffffffffffffffffffffffffffffffffffffffff021916908373ffffffffffffffffffffffffffffffffffffffff160217905550836004600083815260200190815260200160002060030181905550826004600083815260200190815260200160002060040181905550816004600083815260200190815260200160002060050160006101000a81548160ff02191690836002811115610f5657fe5b021790555060016004600083815260200190815260200160002060050160016101000a81548160ff02191690836005811115610f8e57fe5b02179055506000809054906101000a900473ffffffffffffffffffffffffffffffffffffffff1673ffffffffffffffffffffffffffffffffffffffff1663f0a5cf238783866040518463ffffffff167c0100000000000000000000000000000000000000000000000000000000028152600401808473ffffffffffffffffffffffffffffffffffffffff1673ffffffffffffffffffffffffffffffffffffffff1681526020018381526020018281526020019350505050600060405180830381600087803b15801561105f57600080fd5b505af1158015611073573d6000803e3d6000fd5b505050506000809054906101000a900473ffffffffffffffffffffffffffffffffffffffff1673ffffffffffffffffffffffffffffffffffffffff166388f1b89b8683866040518463ffffffff167c0100000000000000000000000000000000000000000000000000000000028152600401808473ffffffffffffffffffffffffffffffffffffffff1673ffffffffffffffffffffffffffffffffffffffff1681526020018381526020018281526020019350505050600060405180830381600087803b15801561114357600080fd5b505af1158015611157573d6000803e3d6000fd5b505050506111ea83600560008973ffffffffffffffffffffffffffffffffffffffff1673ffffffffffffffffffffffffffffffffffffffff16815260200190815260200160002060008873ffffffffffffffffffffffffffffffffffffffff1673ffffffffffffffffffffffffffffffffffffffff1681526020019081526020016000205461225990919063ffffffff16565b600560008873ffffffffffffffffffffffffffffffffffffffff1673ffffffffffffffffffffffffffffffffffffffff16815260200190815260200160002060008773ffffffffffffffffffffffffffffffffffffffff1673ffffffffffffffffffffffffffffffffffffffff168152602001908152602001600020819055507f45b4fe0ae64f794929a3c16fb623810b20187466f9eff8d3c74c16d8924d32c5818787858888604051808781526020018673ffffffffffffffffffffffffffffffffffffffff1673ffffffffffffffffffffffffffffffffffffffff1681526020018573ffffffffffffffffffffffffffffffffffffffff1673ffffffffffffffffffffffffffffffffffffffff16815260200184600281111561130b57fe5b60ff168152602001838152602001828152602001965050505050505060405180910390a1505050505050565b600160009054906101000a900473ffffffffffffffffffffffffffffffffffffffff1681565b600260009054906101000a900473ffffffffffffffffffffffffffffffffffffffff1681565b600060011515600160009054906101000a900473ffffffffffffffffffffffffffffffffffffffff1673ffffffffffffffffffffffffffffffffffffffff16634209fff1336040518263ffffffff167c0100000000000000000000000000000000000000000000000000000000028152600401808273ffffffffffffffffffffffffffffffffffffffff1673ffffffffffffffffffffffffffffffffffffffff168152602001915050602060405180830381600087803b15801561144657600080fd5b505af115801561145a573d6000803e3d6000fd5b505050506040513d602081101561147057600080fd5b8101908080519060200190929190505050151514151561148f57600080fd5b60011515600160009054906101000a900473ffffffffffffffffffffffffffffffffffffffff1673ffffffffffffffffffffffffffffffffffffffff16634209fff1866040518263ffffffff167c0100000000000000000000000000000000000000000000000000000000028152600401808273ffffffffffffffffffffffffffffffffffffffff1673ffffffffffffffffffffffffffffffffffffffff168152602001915050602060405180830381600087803b15801561155057600080fd5b505af1158015611564573d6000803e3d6000fd5b505050506040513d602081101561157a57600080fd5b8101908080519060200190929190505050151514151561159957600080fd5b60011515600160009054906101000a900473ffffffffffffffffffffffffffffffffffffffff1673ffffffffffffffffffffffffffffffffffffffff16634209fff1856040518263ffffffff167c0100000000000000000000000000000000000000000000000000000000028152600401808273ffffffffffffffffffffffffffffffffffffffff1673ffffffffffffffffffffffffffffffffffffffff168152602001915050602060405180830381600087803b15801561165a57600080fd5b505af115801561166e573d6000803e3d6000fd5b505050506040513d602081101561168457600080fd5b810190808051906020019092919050505015151415156116a357600080fd5b6000600560008573ffffffffffffffffffffffffffffffffffffffff1673ffffffffffffffffffffffffffffffffffffffff16815260200190815260200160002060008673ffffffffffffffffffffffffffffffffffffffff1673ffffffffffffffffffffffffffffffffffffffff1681526020019081526020016000205411151561172e57600080fd5b6001600581111561173b57fe5b6004600084815260200190815260200160002060050160019054906101000a900460ff16600581111561176a57fe5b14151561177657600080fd5b600560008473ffffffffffffffffffffffffffffffffffffffff1673ffffffffffffffffffffffffffffffffffffffff16815260200190815260200160002060008573ffffffffffffffffffffffffffffffffffffffff1673ffffffffffffffffffffffffffffffffffffffff1681526020019081526020016000205490506000600281111561180257fe5b6004600084815260200190815260200160002060050160009054906101000a900460ff16600281111561183157fe5b1415611899578273ffffffffffffffffffffffffffffffffffffffff166108fc61186c670de0b6b3a76400008461220890919063ffffffff16565b9081150290604051600060405180830381858888f19350505050158015611897573d6000803e3d6000fd5b505b60036004600084815260200190815260200160002060050160016101000a81548160ff021916908360058111156118cc57fe5b021790555061196081600560008673ffffffffffffffffffffffffffffffffffffffff1673ffffffffffffffffffffffffffffffffffffffff16815260200190815260200160002060008773ffffffffffffffffffffffffffffffffffffffff1673ffffffffffffffffffffffffffffffffffffffff1681526020019081526020016000205461224090919063ffffffff16565b600560008573ffffffffffffffffffffffffffffffffffffffff1673ffffffffffffffffffffffffffffffffffffffff16815260200190815260200160002060008673ffffffffffffffffffffffffffffffffffffffff1673ffffffffffffffffffffffffffffffffffffffff168152602001908152602001600020819055507f52223a140da793e0e1c1c369e92bea05c5fa6f5d4b514e11242e0fa494960bb38385848442604051808673ffffffffffffffffffffffffffffffffffffffff1673ffffffffffffffffffffffffffffffffffffffff1681526020018573ffffffffffffffffffffffffffffffffffffffff1673ffffffffffffffffffffffffffffffffffffffff1681526020018481526020018381526020018281526020019550505050505060405180910390a150505050565b600060011515600160009054906101000a900473ffffffffffffffffffffffffffffffffffffffff1673ffffffffffffffffffffffffffffffffffffffff16634209fff1336040518263ffffffff167c0100000000000000000000000000000000000000000000000000000000028152600401808273ffffffffffffffffffffffffffffffffffffffff1673ffffffffffffffffffffffffffffffffffffffff168152602001915050602060405180830381600087803b158015611b5857600080fd5b505af1158015611b6c573d6000803e3d6000fd5b505050506040513d6020811015611b8257600080fd5b81019080805190602001909291905050501515141515611ba157600080fd5b60011515600160009054906101000a900473ffffffffffffffffffffffffffffffffffffffff1673ffffffffffffffffffffffffffffffffffffffff16634209fff1866040518263ffffffff167c0100000000000000000000000000000000000000000000000000000000028152600401808273ffffffffffffffffffffffffffffffffffffffff1673ffffffffffffffffffffffffffffffffffffffff168152602001915050602060405180830381600087803b158015611c6257600080fd5b505af1158015611c76573d6000803e3d6000fd5b505050506040513d6020811015611c8c57600080fd5b81019080805190602001909291905050501515141515611cab57600080fd5b60011515600160009054906101000a900473ffffffffffffffffffffffffffffffffffffffff1673ffffffffffffffffffffffffffffffffffffffff16634209fff1856040518263ffffffff167c0100000000000000000000000000000000000000000000000000000000028152600401808273ffffffffffffffffffffffffffffffffffffffff1673ffffffffffffffffffffffffffffffffffffffff168152602001915050602060405180830381600087803b158015611d6c57600080fd5b505af1158015611d80573d6000803e3d6000fd5b505050506040513d6020811015611d9657600080fd5b81019080805190602001909291905050501515141515611db557600080fd5b6000600560008573ffffffffffffffffffffffffffffffffffffffff1673ffffffffffffffffffffffffffffffffffffffff16815260200190815260200160002060008673ffffffffffffffffffffffffffffffffffffffff1673ffffffffffffffffffffffffffffffffffffffff16815260200190815260200160002054111515611e4057600080fd5b60016005811115611e4d57fe5b6004600084815260200190815260200160002060050160019054906101000a900460ff166005811115611e7c57fe5b141515611e8857600080fd5b600560008473ffffffffffffffffffffffffffffffffffffffff1673ffffffffffffffffffffffffffffffffffffffff16815260200190815260200160002060008573ffffffffffffffffffffffffffffffffffffffff1673ffffffffffffffffffffffffffffffffffffffff16815260200190815260200160002054905060006002811115611f1457fe5b6004600084815260200190815260200160002060050160009054906101000a900460ff166002811115611f4357fe5b1415611fab578373ffffffffffffffffffffffffffffffffffffffff166108fc611f7e670de0b6b3a76400008461220890919063ffffffff16565b9081150290604051600060405180830381858888f19350505050158015611fa9573d6000803e3d6000fd5b505b60026004600084815260200190815260200160002060050160016101000a81548160ff02191690836005811115611fde57fe5b021790555061207281600560008673ffffffffffffffffffffffffffffffffffffffff1673ffffffffffffffffffffffffffffffffffffffff16815260200190815260200160002060008773ffffffffffffffffffffffffffffffffffffffff1673ffffffffffffffffffffffffffffffffffffffff1681526020019081526020016000205461224090919063ffffffff16565b600560008573ffffffffffffffffffffffffffffffffffffffff1673ffffffffffffffffffffffffffffffffffffffff16815260200190815260200160002060008673ffffffffffffffffffffffffffffffffffffffff1673ffffffffffffffffffffffffffffffffffffffff168152602001908152602001600020819055507f32f93be945e25f7daa094ca0fc9a1a76fae65a1442124a7b5b792687db5dc87f8385848442604051808673ffffffffffffffffffffffffffffffffffffffff1673ffffffffffffffffffffffffffffffffffffffff1681526020018573ffffffffffffffffffffffffffffffffffffffff1673ffffffffffffffffffffffffffffffffffffffff1681526020018481526020018381526020018281526020019550505050505060405180910390a150505050565b600360009054906101000a900473ffffffffffffffffffffffffffffffffffffffff1681565b6000809054906101000a900473ffffffffffffffffffffffffffffffffffffffff1681565b600081838115156121ff57fe5b04905092915050565b60008083141561221b576000905061223a565b818302905081838281151561222c57fe5b0414151561223657fe5b8090505b92915050565b600082821115151561224e57fe5b818303905092915050565b6000818301905082811015151561226c57fe5b809050929150505600a165627a7a723058209f9deb38196f5302749073d2a418e9d8a8d303c978a8187e30ce0e5276a281b90029",
  "source": "pragma solidity ^0.4.23;\nimport \"./SafeMath.sol\";\nimport \"./products.sol\";\nimport \"./orders.sol\";\nimport \"./users.sol\";\n/**\n * @title Payment and Escrow Management Smart Contract\n *\n * @dev\tKeeps track of  each  payment transaction or value exchange to or from the farmer and buyer\n * @author Kelvin Ndereba\n * GandH Blockchain Solutions\n */\n\n /**\n  * @notice payment escrow SmartContract\n  */\n contract payments  {\n using SafeMath for uint256;\n\n products public product;\n\n users  public user;\n\n address public escrowAccount;\n\n orders public order;\n enum Status {Paid, Escrowed, Released, Refunded, Pending, Declined}\n\n enum PaymentMode {Ether, Bitcoin, AGA}\n\n struct payment{\n   uint orderTransactionNumber;\n   address fromAccount;\n   address toAccount;\n   uint256 quantity;\n   uint256 amount;\n   PaymentMode mode;\n   Status paymentStatus;\n }\n\n\n event paid(uint orderTransactionID, address from , address to, PaymentMode _paymentMode, uint256 productMass, uint256 total);\n event released(address buying , address selling, uint orderTransactionRefRelease, uint256 releasedValue, uint releaseDate);\n event refund(address buyer , address seller, uint orderTransactionRefRefund, uint256 refundedValue, uint refundDate);\n\n mapping(uint => payment) paymentInfo;\n mapping (address => mapping (address => uint256)) amountEscrowed;\n //mapping (address => mapping (address => uint256)) amountEscrowed;\n\n constructor(products _product, address _escrowAccount, orders _order, users _user) public{\n         require(msg.sender != address(0));\n         product = _product;\n         order = _order;\n         user = _user;\n         escrowAccount = _escrowAccount;\n     }\n\n\n\n function pay(\n   address _fromAccount,\n   address _toAccount,\n   uint256 _quantity,\n   uint256 _amount,\n   PaymentMode _payMode,\n   uint _orderNumber\n )public  payable{\n      require(user.isUser(msg.sender) == true);\n      require(user.isUser(_toAccount) == true);\n      require(user.isUser(_fromAccount) == true);\n      require(product.amountPayable(_fromAccount ,_orderNumber) > 0);\n      require(product.amountRecievable(_toAccount, _orderNumber) > 0);\n      if (_payMode == PaymentMode.Ether){\n      _amount = msg.value.div(10**18);\n      }\n      require(_amount >= order.getOrderAmount(_orderNumber));\n      if (_payMode == PaymentMode.Ether && _amount > order.getOrderAmount(_orderNumber)){\n        _amount = product.amountPayableEth(_fromAccount, _orderNumber).mul(10**18);\n        msg.sender.transfer(msg.value.sub(_amount));\n        escrowAccount.transfer(_amount);\n        product.setAmountPayableEth(_fromAccount, _orderNumber, _amount);\n        product.setAmountRecievableEth(_toAccount, _orderNumber, _amount);\n        //amountToPayEth[msg.sender][_orderNumber] = amountToPayEth[msg.sender][_orderNumber].sub(_amount);\n        //amountToRecieveEth[_toAccount][_orderNumber] = amountToPayEth[_toAccount][_orderNumber].sub(_amount);\n      }\n      paymentInfo[_orderNumber].orderTransactionNumber = _orderNumber;\n      paymentInfo[_orderNumber].fromAccount = _fromAccount;\n      paymentInfo[_orderNumber].toAccount = _toAccount;\n      paymentInfo[_orderNumber].quantity = _quantity;\n      paymentInfo[_orderNumber].amount = _amount;\n      paymentInfo[_orderNumber].mode = _payMode;\n      paymentInfo[_orderNumber].paymentStatus = Status.Escrowed;\n      product.setAmountPayable(_fromAccount, _orderNumber, _amount);\n      product.setAmountRecievable(_toAccount, _orderNumber, _amount);\n\n      //order.shipmentInfo[_orderNumber].state = order.deliveryStatus.Shipped;\n      amountEscrowed[_fromAccount][_toAccount] = amountEscrowed[_fromAccount][_toAccount].add(_amount);\n      emit paid(_orderNumber, _fromAccount, _toAccount, _payMode, _quantity, _amount);\n    }\n\n    /** function generateTranscationID() private view returns (uint256) {\n        return uint256(uint256(keccak256(abi.encodePacked(block.timestamp, block.difficulty)))%271);\n    } **/\n\n    function releasePayment(address _seller, address _buyer, uint _refNo) public {\n      require(user.isUser(msg.sender) == true);\n      require(user.isUser(_seller) == true);\n      require(user.isUser(_buyer) == true);\n      require(amountEscrowed[_buyer][_seller] > 0);\n      require(paymentInfo[_refNo].paymentStatus == Status.Escrowed);\n\n\n      uint256 _payment = amountEscrowed[_buyer][_seller];\n      if (paymentInfo[_refNo].mode == PaymentMode.Ether){\n        _seller.transfer(_payment.mul(10**18));\n      }\n\n      paymentInfo[_refNo].paymentStatus = Status.Released;\n\n      amountEscrowed[_buyer][_seller] = amountEscrowed[_buyer][_seller].sub(_payment);\n      emit released(_buyer, _seller, _refNo, _payment, block.timestamp);\n    }\n\n    function refundPayment(address _seller, address _buyer, uint256 _refNo) public  {\n      require(user.isUser(msg.sender) == true);\n      require(user.isUser(_seller) == true);\n      require(user.isUser(_buyer) == true);\n      require(amountEscrowed[_buyer][_seller] > 0);\n      require(paymentInfo[_refNo].paymentStatus == Status.Escrowed);\n\n      uint256 _payment = amountEscrowed[_buyer][_seller];\n      //msg.sender.send()\n      if (paymentInfo[_refNo].mode == PaymentMode.Ether){\n        _buyer.transfer(_payment.mul(10**18));\n      }\n\n      paymentInfo[_refNo].paymentStatus = Status.Refunded;\n      amountEscrowed[_buyer][_seller] = amountEscrowed[_buyer][_seller].sub(_payment);\n      emit refund(_buyer, _seller, _refNo, _payment, block.timestamp);\n    }\n\n  }\n",
  "sourcePath": "/home/kelvin/Desktop/AgroAfrica/agroafricachain_solidity/contracts/payments.sol",
  "compiler": {
    "name": "solc",
    "version": "0.4.26+commit.4563c3fc.Emscripten.clang"
  },
  "schemaVersion": "3.2.5",
  "updatedAt": "2020-11-03T23:07:49.032Z",
  "devdoc": {
    "methods": {}
  },
  "userdoc": {
    "methods": {
      "releasePayment(address,address,uint256)": {
        "notice": "function generateTranscationID() private view returns (uint256) { return uint256(uint256(keccak256(abi.encodePacked(block.timestamp, block.difficulty)))%271); } *"
      }
    }
  }
}