{
  "contractName": "ProductsLibrary",
  "abi": [
    {
      "constant": true,
      "inputs": [
        {
          "name": "_storageContract",
          "type": "address"
        }
      ],
      "name": "getProductCount",
      "outputs": [
        {
          "name": "",
          "type": "uint256"
        }
      ],
      "payable": false,
      "stateMutability": "view",
      "type": "function"
    },
    {
      "constant": false,
      "inputs": [
        {
          "name": "_storeContract",
          "type": "address"
        },
        {
          "name": "_name",
          "type": "bytes32"
        },
        {
          "name": "_location",
          "type": "string"
        },
        {
          "name": "_price",
          "type": "uint256"
        },
        {
          "name": "_producer",
          "type": "address"
        },
        {
          "name": "_grade",
          "type": "string"
        }
      ],
      "name": "addProduct",
      "outputs": [],
      "payable": false,
      "stateMutability": "nonpayable",
      "type": "function"
    },
    {
      "constant": true,
      "inputs": [
        {
          "name": "_storageContract",
          "type": "address"
        },
        {
          "name": "_name",
          "type": "bytes32"
        }
      ],
      "name": "getProductPrice",
      "outputs": [
        {
          "name": "",
          "type": "uint256"
        }
      ],
      "payable": false,
      "stateMutability": "view",
      "type": "function"
    },
    {
      "constant": true,
      "inputs": [
        {
          "name": "_storageContract",
          "type": "address"
        },
        {
          "name": "_name",
          "type": "bytes32"
        }
      ],
      "name": "getProductDescription",
      "outputs": [
        {
          "name": "",
          "type": "string"
        }
      ],
      "payable": false,
      "stateMutability": "view",
      "type": "function"
    },
    {
      "constant": true,
      "inputs": [
        {
          "name": "_storageContract",
          "type": "address"
        },
        {
          "name": "_name",
          "type": "bytes32"
        }
      ],
      "name": "getProductLocation",
      "outputs": [
        {
          "name": "",
          "type": "string"
        }
      ],
      "payable": false,
      "stateMutability": "view",
      "type": "function"
    },
    {
      "constant": true,
      "inputs": [
        {
          "name": "_storageContract",
          "type": "address"
        },
        {
          "name": "_name",
          "type": "bytes32"
        }
      ],
      "name": "getProductProducer",
      "outputs": [
        {
          "name": "",
          "type": "address"
        }
      ],
      "payable": false,
      "stateMutability": "view",
      "type": "function"
    },
    {
      "constant": true,
      "inputs": [
        {
          "name": "_storageContract",
          "type": "address"
        },
        {
          "name": "_name",
          "type": "bytes32"
        }
      ],
      "name": "getProductGrade",
      "outputs": [
        {
          "name": "",
          "type": "string"
        }
      ],
      "payable": false,
      "stateMutability": "view",
      "type": "function"
    },
    {
      "constant": true,
      "inputs": [
        {
          "name": "_storageContract",
          "type": "address"
        },
        {
          "name": "_name",
          "type": "bytes32"
        }
      ],
      "name": "getProductQuantity",
      "outputs": [
        {
          "name": "",
          "type": "uint256"
        }
      ],
      "payable": false,
      "stateMutability": "view",
      "type": "function"
    },
    {
      "constant": true,
      "inputs": [
        {
          "name": "_storageContract",
          "type": "address"
        },
        {
          "name": "_name",
          "type": "bytes32"
        }
      ],
      "name": "getProductIndex",
      "outputs": [
        {
          "name": "",
          "type": "uint256"
        }
      ],
      "payable": false,
      "stateMutability": "view",
      "type": "function"
    },
    {
      "constant": true,
      "inputs": [
        {
          "name": "_storageContract",
          "type": "address"
        },
        {
          "name": "_index",
          "type": "uint256"
        }
      ],
      "name": "getProductbyIndex",
      "outputs": [
        {
          "name": "",
          "type": "bytes"
        }
      ],
      "payable": false,
      "stateMutability": "view",
      "type": "function"
    },
    {
      "constant": false,
      "inputs": [
        {
          "name": "_storageContract",
          "type": "address"
        },
        {
          "name": "_name",
          "type": "bytes32"
        },
        {
          "name": "_price",
          "type": "uint256"
        }
      ],
      "name": "setProductPrice",
      "outputs": [
        {
          "name": "",
          "type": "uint256"
        }
      ],
      "payable": false,
      "stateMutability": "nonpayable",
      "type": "function"
    },
    {
      "constant": false,
      "inputs": [
        {
          "name": "_storageContract",
          "type": "address"
        },
        {
          "name": "_name",
          "type": "bytes32"
        },
        {
          "name": "_quantity",
          "type": "uint256"
        }
      ],
      "name": "setProductQuantity",
      "outputs": [
        {
          "name": "",
          "type": "uint256"
        }
      ],
      "payable": false,
      "stateMutability": "nonpayable",
      "type": "function"
    },
    {
      "constant": false,
      "inputs": [
        {
          "name": "_storageContract",
          "type": "address"
        },
        {
          "name": "_name",
          "type": "bytes32"
        }
      ],
      "name": "setOwnerAddress",
      "outputs": [
        {
          "name": "",
          "type": "address"
        }
      ],
      "payable": false,
      "stateMutability": "nonpayable",
      "type": "function"
    }
  ],
  "bytecode": "0x612740610030600b82828239805160001a6073146000811461002057610022565bfe5b5030600052607381538281f30073000000000000000000000000000000000000000030146080604052600436106100dc576000357c0100000000000000000000000000000000000000000000000000000000900463ffffffff168063077a6267146100e15780631c07c3981461019e5780631ebac1d3146102575780632fedb88b1461031457806331c266b21461038357806345d92b05146103db57806350208eee1461045f5780637207b3e6146104a9578063a32c0b0d146105b0578063b800f32214610641578063d61d9e4614610699578063e0c7d41414610756578063f210cb88146107c5575b600080fd5b610123600480360381019080803573ffffffffffffffffffffffffffffffffffffffff169060200190929190803560001916906020019092919050505061081d565b6040518080602001828103825283818151815260200191508051906020019080838360005b83811015610163578082015181840152602081019050610148565b50505050905090810190601f1680156101905780820380516001836020036101000a031916815260200191505b509250505060405180910390f35b6101dc600480360381019080803573ffffffffffffffffffffffffffffffffffffffff169060200190929190803590602001909291905050506109e0565b6040518080602001828103825283818151815260200191508051906020019080838360005b8381101561021c578082015181840152602081019050610201565b50505050905090810190601f1680156102495780820380516001836020036101000a031916815260200191505b509250505060405180910390f35b610299600480360381019080803573ffffffffffffffffffffffffffffffffffffffff1690602001909291908035600019169060200190929190505050610b9b565b6040518080602001828103825283818151815260200191508051906020019080838360005b838110156102d95780820151818401526020810190506102be565b50505050905090810190601f1680156103065780820380516001836020036101000a031916815260200191505b509250505060405180910390f35b81801561032057600080fd5b5061036d600480360381019080803573ffffffffffffffffffffffffffffffffffffffff169060200190929190803560001916906020019092919080359060200190929190505050610d5e565b6040518082815260200191505060405180910390f35b6103c5600480360381019080803573ffffffffffffffffffffffffffffffffffffffff1690602001909291908035600019169060200190929190505050610ebb565b6040518082815260200191505060405180910390f35b61041d600480360381019080803573ffffffffffffffffffffffffffffffffffffffff1690602001909291908035600019169060200190929190505050611000565b604051808273ffffffffffffffffffffffffffffffffffffffff1673ffffffffffffffffffffffffffffffffffffffff16815260200191505060405180910390f35b610493600480360381019080803573ffffffffffffffffffffffffffffffffffffffff16906020019092919050505061116d565b6040518082815260200191505060405180910390f35b8180156104b557600080fd5b506105ae600480360381019080803573ffffffffffffffffffffffffffffffffffffffff1690602001909291908035600019169060200190929190803590602001908201803590602001908080601f016020809104026020016040519081016040528093929190818152602001838380828437820191505050505050919291929080359060200190929190803573ffffffffffffffffffffffffffffffffffffffff169060200190929190803590602001908201803590602001908080601f01602080910402602001604051908101604052809392919081815260200183838082843782019150505050505091929192905050506112c9565b005b8180156105bc57600080fd5b506105ff600480360381019080803573ffffffffffffffffffffffffffffffffffffffff1690602001909291908035600019169060200190929190505050611e89565b604051808273ffffffffffffffffffffffffffffffffffffffff1673ffffffffffffffffffffffffffffffffffffffff16815260200191505060405180910390f35b610683600480360381019080803573ffffffffffffffffffffffffffffffffffffffff169060200190929190803560001916906020019092919050505061211a565b6040518082815260200191505060405180910390f35b6106db600480360381019080803573ffffffffffffffffffffffffffffffffffffffff1690602001909291908035600019169060200190929190505050612287565b6040518080602001828103825283818151815260200191508051906020019080838360005b8381101561071b578082015181840152602081019050610700565b50505050905090810190601f1680156107485780820380516001836020036101000a031916815260200191505b509250505060405180910390f35b81801561076257600080fd5b506107af600480360381019080803573ffffffffffffffffffffffffffffffffffffffff16906020019092919080356000191690602001909291908035906020019092919050505061244a565b6040518082815260200191505060405180910390f35b610807600480360381019080803573ffffffffffffffffffffffffffffffffffffffff16906020019092919080356000191690602001909291905050506125a7565b6040518082815260200191505060405180910390f35b60608273ffffffffffffffffffffffffffffffffffffffff1663a209a29c8360405160200180807f50726f647563745f677261646500000000000000000000000000000000000000815250600d0182600019166000191681526020019150506040516020818303038152906040526040518082805190602001908083835b6020831015156108c0578051825260208201915060208101905060208303925061089b565b6001836020036101000a03801982511681845116808217855250505050505090500191505060405180910390206040518263ffffffff167c0100000000000000000000000000000000000000000000000000000000028152600401808260001916600019168152602001915050600060405180830381600087803b15801561094757600080fd5b505af115801561095b573d6000803e3d6000fd5b505050506040513d6000823e3d601f19601f82011682018060405250602081101561098557600080fd5b81019080805164010000000081111561099d57600080fd5b828101905060208101848111156109b357600080fd5b81518560018202830111640100000000821117156109d057600080fd5b5050929190505050905092915050565b60608273ffffffffffffffffffffffffffffffffffffffff166344bfa56e8360405160200180807f50726f647563745f6e616d650000000000000000000000000000000000000000815250600c018281526020019150506040516020818303038152906040526040518082805190602001908083835b602083101515610a7b5780518252602082019150602081019050602083039250610a56565b6001836020036101000a03801982511681845116808217855250505050505090500191505060405180910390206040518263ffffffff167c0100000000000000000000000000000000000000000000000000000000028152600401808260001916600019168152602001915050600060405180830381600087803b158015610b0257600080fd5b505af1158015610b16573d6000803e3d6000fd5b505050506040513d6000823e3d601f19601f820116820180604052506020811015610b4057600080fd5b810190808051640100000000811115610b5857600080fd5b82810190506020810184811115610b6e57600080fd5b8151856001820283011164010000000082111715610b8b57600080fd5b5050929190505050905092915050565b60608273ffffffffffffffffffffffffffffffffffffffff1663a209a29c8360405160200180807f50726f647563745f646573630000000000000000000000000000000000000000815250600c0182600019166000191681526020019150506040516020818303038152906040526040518082805190602001908083835b602083101515610c3e5780518252602082019150602081019050602083039250610c19565b6001836020036101000a03801982511681845116808217855250505050505090500191505060405180910390206040518263ffffffff167c0100000000000000000000000000000000000000000000000000000000028152600401808260001916600019168152602001915050600060405180830381600087803b158015610cc557600080fd5b505af1158015610cd9573d6000803e3d6000fd5b505050506040513d6000823e3d601f19601f820116820180604052506020811015610d0357600080fd5b810190808051640100000000811115610d1b57600080fd5b82810190506020810184811115610d3157600080fd5b8151856001820283011164010000000082111715610d4e57600080fd5b5050929190505050905092915050565b60008373ffffffffffffffffffffffffffffffffffffffff16633562fd208460405160200180807f50726f647563745f7175616e746974790000000000000000000000000000000081525060100182600019166000191681526020019150506040516020818303038152906040526040518082805190602001908083835b602083101515610e015780518252602082019150602081019050602083039250610ddc565b6001836020036101000a0380198251168184511680821785525050505050509050019150506040518091039020846040518363ffffffff167c010000000000000000000000000000000000000000000000000000000002815260040180836000191660001916815260200182815260200192505050600060405180830381600087803b158015610e9057600080fd5b505af1158015610ea4573d6000803e3d6000fd5b50505050610eb284846125a7565b90509392505050565b60008273ffffffffffffffffffffffffffffffffffffffff1663bdc963d8836040516020018082600019166000191681526020019150506040516020818303038152906040526040518082805190602001908083835b602083101515610f365780518252602082019150602081019050602083039250610f11565b6001836020036101000a03801982511681845116808217855250505050505090500191505060405180910390206040518263ffffffff167c0100000000000000000000000000000000000000000000000000000000028152600401808260001916600019168152602001915050602060405180830381600087803b158015610fbd57600080fd5b505af1158015610fd1573d6000803e3d6000fd5b505050506040513d6020811015610fe757600080fd5b8101908080519060200190929190505050905092915050565b60008273ffffffffffffffffffffffffffffffffffffffff16634c77e5ba8360405160200180807f50726f647563745f70726f64756365720000000000000000000000000000000081525060100182600019166000191681526020019150506040516020818303038152906040526040518082805190602001908083835b6020831015156110a3578051825260208201915060208101905060208303925061107e565b6001836020036101000a03801982511681845116808217855250505050505090500191505060405180910390206040518263ffffffff167c0100000000000000000000000000000000000000000000000000000000028152600401808260001916600019168152602001915050602060405180830381600087803b15801561112a57600080fd5b505af115801561113e573d6000803e3d6000fd5b505050506040513d602081101561115457600080fd5b8101908080519060200190929190505050905092915050565b60008173ffffffffffffffffffffffffffffffffffffffff1663bdc963d860405160200180807f50726f64756374436f756e740000000000000000000000000000000000000000815250600c0190506040516020818303038152906040526040518082805190602001908083835b60208310151561120057805182526020820191506020810190506020830392506111db565b6001836020036101000a03801982511681845116808217855250505050505090500191505060405180910390206040518263ffffffff167c0100000000000000000000000000000000000000000000000000000000028152600401808260001916600019168152602001915050602060405180830381600087803b15801561128757600080fd5b505af115801561129b573d6000803e3d6000fd5b505050506040513d60208110156112b157600080fd5b81019080805190602001909291905050509050919050565b60008060008060008060606112dd8d61116d565b96508660405160200180807f50726f647563745f6e616d650000000000000000000000000000000000000000815250600c018281526020019150506040516020818303038152906040526040518082805190602001908083835b60208310151561135c5780518252602082019150602081019050602083039250611337565b6001836020036101000a038019825116818451168082178552505050505050905001915050604051809103902095508b60405160200180807f50726f647563745f6c6f636174696f6e0000000000000000000000000000000081525060100182600019166000191681526020019150506040516020818303038152906040526040518082805190602001908083835b60208310151561141057805182526020820191506020810190506020830392506113eb565b6001836020036101000a038019825116818451168082178552505050505050905001915050604051809103902094508b60405160200180807f50726f647563745f707269636500000000000000000000000000000000000000815250600d0182600019166000191681526020019150506040516020818303038152906040526040518082805190602001908083835b6020831015156114c4578051825260208201915060208101905060208303925061149f565b6001836020036101000a038019825116818451168082178552505050505050905001915050604051809103902093508b60405160200180807f50726f647563745f70726f64756365720000000000000000000000000000000081525060100182600019166000191681526020019150506040516020818303038152906040526040518082805190602001908083835b6020831015156115785780518252602082019150602081019050602083039250611553565b6001836020036101000a038019825116818451168082178552505050505050905001915050604051809103902092508b60405160200180807f50726f647563745f677261646500000000000000000000000000000000000000815250600d0182600019166000191681526020019150506040516020818303038152906040526040518082805190602001908083835b60208310151561162c5780518252602082019150602081019050602083039250611607565b6001836020036101000a038019825116818451168082178552505050505050905001915050604051809103902091508b60405160200180826000191660001916815260200191505060405160208183030381529060405290508c73ffffffffffffffffffffffffffffffffffffffff1663c9a52d2c87836040518363ffffffff167c010000000000000000000000000000000000000000000000000000000002815260040180836000191660001916815260200180602001828103825283818151815260200191508051906020019080838360005b8381101561171c578082015181840152602081019050611701565b50505050905090810190601f1680156117495780820380516001836020036101000a031916815260200191505b509350505050600060405180830381600087803b15801561176957600080fd5b505af115801561177d573d6000803e3d6000fd5b505050508c73ffffffffffffffffffffffffffffffffffffffff1663f5866066868d6040518363ffffffff167c010000000000000000000000000000000000000000000000000000000002815260040180836000191660001916815260200180602001828103825283818151815260200191508051906020019080838360005b838110156118185780820151818401526020810190506117fd565b50505050905090810190601f1680156118455780820380516001836020036101000a031916815260200191505b509350505050600060405180830381600087803b15801561186557600080fd5b505af1158015611879573d6000803e3d6000fd5b505050508c73ffffffffffffffffffffffffffffffffffffffff16635037bb46858c6040518363ffffffff167c010000000000000000000000000000000000000000000000000000000002815260040180836000191660001916815260200182815260200192505050600060405180830381600087803b1580156118fc57600080fd5b505af1158015611910573d6000803e3d6000fd5b505050508c73ffffffffffffffffffffffffffffffffffffffff16635a2bf25a848b6040518363ffffffff167c01000000000000000000000000000000000000000000000000000000000281526004018083600019166000191681526020018273ffffffffffffffffffffffffffffffffffffffff1673ffffffffffffffffffffffffffffffffffffffff16815260200192505050600060405180830381600087803b1580156119bf57600080fd5b505af11580156119d3573d6000803e3d6000fd5b505050508c73ffffffffffffffffffffffffffffffffffffffff1663f5866066838a6040518363ffffffff167c010000000000000000000000000000000000000000000000000000000002815260040180836000191660001916815260200180602001828103825283818151815260200191508051906020019080838360005b83811015611a6e578082015181840152602081019050611a53565b50505050905090810190601f168015611a9b5780820380516001836020036101000a031916815260200191505b509350505050600060405180830381600087803b158015611abb57600080fd5b505af1158015611acf573d6000803e3d6000fd5b505050508c73ffffffffffffffffffffffffffffffffffffffff16633562fd208d6040516020018082600019166000191681526020019150506040516020818303038152906040526040518082805190602001908083835b602083101515611b4c5780518252602082019150602081019050602083039250611b27565b6001836020036101000a0380198251168184511680821785525050505050509050019150506040518091039020896040518363ffffffff167c010000000000000000000000000000000000000000000000000000000002815260040180836000191660001916815260200182815260200192505050600060405180830381600087803b158015611bdb57600080fd5b505af1158015611bef573d6000803e3d6000fd5b505050508c73ffffffffffffffffffffffffffffffffffffffff16635a2bf25a8d6040516020018082600019166000191681526020019150506040516020818303038152906040526040518082805190602001908083835b602083101515611c6c5780518252602082019150602081019050602083039250611c47565b6001836020036101000a0380198251168184511680821785525050505050509050019150506040518091039020336040518363ffffffff167c01000000000000000000000000000000000000000000000000000000000281526004018083600019166000191681526020018273ffffffffffffffffffffffffffffffffffffffff1673ffffffffffffffffffffffffffffffffffffffff16815260200192505050600060405180830381600087803b158015611d2757600080fd5b505af1158015611d3b573d6000803e3d6000fd5b505050508c73ffffffffffffffffffffffffffffffffffffffff16633562fd2060405160200180807f50726f64756374436f756e740000000000000000000000000000000000000000815250600c0190506040516020818303038152906040526040518082805190602001908083835b602083101515611dd05780518252602082019150602081019050602083039250611dab565b6001836020036101000a038019825116818451168082178552505050505050905001915050604051809103902060018a016040518363ffffffff167c010000000000000000000000000000000000000000000000000000000002815260040180836000191660001916815260200182815260200192505050600060405180830381600087803b158015611e6257600080fd5b505af1158015611e76573d6000803e3d6000fd5b5050505050505050505050505050505050565b60008273ffffffffffffffffffffffffffffffffffffffff16635a2bf25a836040516020018082600019166000191681526020019150506040516020818303038152906040526040518082805190602001908083835b602083101515611f045780518252602082019150602081019050602083039250611edf565b6001836020036101000a0380198251168184511680821785525050505050509050019150506040518091039020336040518363ffffffff167c01000000000000000000000000000000000000000000000000000000000281526004018083600019166000191681526020018273ffffffffffffffffffffffffffffffffffffffff1673ffffffffffffffffffffffffffffffffffffffff16815260200192505050600060405180830381600087803b158015611fbf57600080fd5b505af1158015611fd3573d6000803e3d6000fd5b505050508273ffffffffffffffffffffffffffffffffffffffff16634c77e5ba836040516020018082600019166000191681526020019150506040516020818303038152906040526040518082805190602001908083835b602083101515612050578051825260208201915060208101905060208303925061202b565b6001836020036101000a03801982511681845116808217855250505050505090500191505060405180910390206040518263ffffffff167c0100000000000000000000000000000000000000000000000000000000028152600401808260001916600019168152602001915050602060405180830381600087803b1580156120d757600080fd5b505af11580156120eb573d6000803e3d6000fd5b505050506040513d602081101561210157600080fd5b8101908080519060200190929190505050905092915050565b60008273ffffffffffffffffffffffffffffffffffffffff1663bdc963d88360405160200180807f50726f647563745f7175616e746974790000000000000000000000000000000081525060100182600019166000191681526020019150506040516020818303038152906040526040518082805190602001908083835b6020831015156121bd5780518252602082019150602081019050602083039250612198565b6001836020036101000a03801982511681845116808217855250505050505090500191505060405180910390206040518263ffffffff167c0100000000000000000000000000000000000000000000000000000000028152600401808260001916600019168152602001915050602060405180830381600087803b15801561224457600080fd5b505af1158015612258573d6000803e3d6000fd5b505050506040513d602081101561226e57600080fd5b8101908080519060200190929190505050905092915050565b60608273ffffffffffffffffffffffffffffffffffffffff1663a209a29c8360405160200180807f50726f647563745f6c6f636174696f6e0000000000000000000000000000000081525060100182600019166000191681526020019150506040516020818303038152906040526040518082805190602001908083835b60208310151561232a5780518252602082019150602081019050602083039250612305565b6001836020036101000a03801982511681845116808217855250505050505090500191505060405180910390206040518263ffffffff167c0100000000000000000000000000000000000000000000000000000000028152600401808260001916600019168152602001915050600060405180830381600087803b1580156123b157600080fd5b505af11580156123c5573d6000803e3d6000fd5b505050506040513d6000823e3d601f19601f8201168201806040525060208110156123ef57600080fd5b81019080805164010000000081111561240757600080fd5b8281019050602081018481111561241d57600080fd5b815185600182028301116401000000008211171561243a57600080fd5b5050929190505050905092915050565b60008373ffffffffffffffffffffffffffffffffffffffff16635037bb468460405160200180807f50726f647563745f707269636500000000000000000000000000000000000000815250600d0182600019166000191681526020019150506040516020818303038152906040526040518082805190602001908083835b6020831015156124ed57805182526020820191506020810190506020830392506124c8565b6001836020036101000a0380198251168184511680821785525050505050509050019150506040518091039020846040518363ffffffff167c010000000000000000000000000000000000000000000000000000000002815260040180836000191660001916815260200182815260200192505050600060405180830381600087803b15801561257c57600080fd5b505af1158015612590573d6000803e3d6000fd5b5050505061259e84846125a7565b90509392505050565b60008273ffffffffffffffffffffffffffffffffffffffff16634fa8f9238360405160200180807f50726f647563745f707269636500000000000000000000000000000000000000815250600d0182600019166000191681526020019150506040516020818303038152906040526040518082805190602001908083835b60208310151561264a5780518252602082019150602081019050602083039250612625565b6001836020036101000a03801982511681845116808217855250505050505090500191505060405180910390206040518263ffffffff167c0100000000000000000000000000000000000000000000000000000000028152600401808260001916600019168152602001915050602060405180830381600087803b1580156126d157600080fd5b505af11580156126e5573d6000803e3d6000fd5b505050506040513d60208110156126fb57600080fd5b81019080805190602001909291905050509050929150505600a165627a7a72305820cb67bcc608ce098f895d33e09093ca4cea947856e427c62056969b52625c44020029",
  "source": "pragma solidity ^0.4.22;\r\nimport \"./ExternalStorage.sol\";\r\n\r\n/**\r\n * @title Product Information Management Smart Contract\r\n *\r\n * @dev\tManages secure creation and retrieval of each product detail and allows quantity management after every purchase\r\n * @author Kelvin Ndereba\r\n * GandH Blockchain Solutions\r\n */\r\n//enum Grade {Grade1, Grade2, Grade3}\r\n\r\nlibrary ProductsLibrary {\r\n //    1. Product ID   2. Product Name   3. Product Description 4. product Location 5. Product Price\r\n //    6. Product Producer  7. Product Grade 8. Product Quality 9. Product Image ; product quantity\r\n  function getProductCount(\r\n    address _storageContract\r\n    ) public constant returns(uint)\r\n  {\r\n    return ExternalStorage(_storageContract).getUIntValue(keccak256(abi.encodePacked(\"ProductCount\")));\r\n  }\r\n\r\n  function addProduct(\r\n    address _storeContract,\r\n    bytes32 _name ,\r\n    string _location,\r\n    uint256 _price,\r\n    address _producer,\r\n    string _grade) public\r\n  {\r\n    uint productID = getProductCount(_storeContract);\r\n    //var numvotes = 0;\r\n    bytes32 name_hash = keccak256(abi.encodePacked(\"Product_name\", productID));\r\n    //bytes32 desc_hash = keccak256(abi.encodePacked(\"Product_desc\", _name));\r\n    bytes32 location_hash = keccak256(abi.encodePacked(\"Product_location\", _name));\r\n    bytes32 price_hash = keccak256(abi.encodePacked(\"Product_price\", _name));\r\n    bytes32 producer_hash = keccak256(abi.encodePacked(\"Product_producer\", _name));\r\n    bytes32 grade_hash = keccak256(abi.encodePacked(\"Product_grade\", _name));\r\n    //bytes32 quality_hash = keccak256(abi.encodePacked(\"Product_quality\", _name));\r\n    //bytes32 quantity_hash = keccak256(abi.encodePacked(\"Product_quantity\", _name));\r\n    //bytes32 image_hash = keccak256(abi.encodePacked(\"Product_image\", _name));\r\n    bytes memory cmpl_title_hash = bytes(abi.encodePacked(_name));\r\n    //bytes memory byte_image_hash = bytes(abi.encodePacked(_image));\r\n\r\n    ExternalStorage(_storeContract).setBytesValue(name_hash, cmpl_title_hash);\r\n    //ExternalStorage(_storeContract).setStringValue(desc_hash, _desc);\r\n    ExternalStorage(_storeContract).setStringValue(location_hash, _location);\r\n    ExternalStorage(_storeContract).setUInt256Value(price_hash, _price);\r\n    ExternalStorage(_storeContract).setAddressValue(producer_hash, _producer);\r\n    ExternalStorage(_storeContract).setStringValue(grade_hash, _grade);\r\n    //ExternalStorage(_storeContract).setStringValue(quality_hash, _quality);\r\n    //ExternalStorage(_storeContract).setUIntValue(quantity_hash, _quantity);\r\n    //ExternalStorage(_storeContract).setBytesValue(image_hash, byte_image_hash);\r\n\r\n    ExternalStorage(_storeContract).setUIntValue(keccak256(abi.encodePacked(_name)), productID);\r\n    ExternalStorage(_storeContract).setAddressValue(keccak256(abi.encodePacked(_name)), msg.sender);\r\n    ExternalStorage(_storeContract).setUIntValue(keccak256(abi.encodePacked(\"ProductCount\")), productID + 1);\r\n  }\r\n  function getProductPrice(\r\n    address _storageContract,\r\n    bytes32 _name\r\n    ) public constant returns(uint256){\r\n\r\n    return ExternalStorage(_storageContract).getUInt256Value(keccak256(abi.encodePacked(\"Product_price\", _name)));\r\n  }\r\n\r\n  function getProductDescription(\r\n    address _storageContract,\r\n    bytes32 _name\r\n    ) public constant returns(string){\r\n\r\n    return ExternalStorage(_storageContract).getStringValue(keccak256(abi.encodePacked(\"Product_desc\", _name)));\r\n  }\r\n\r\n  function getProductLocation(\r\n    address _storageContract,\r\n    bytes32 _name\r\n    ) public constant returns(string){\r\n\r\n    return ExternalStorage(_storageContract).getStringValue(keccak256(abi.encodePacked(\"Product_location\", _name)));\r\n  }\r\n  function getProductProducer(\r\n    address _storageContract,\r\n    bytes32 _name\r\n    ) public constant returns(address){\r\n\r\n    return ExternalStorage(_storageContract).getAddressValue(keccak256(abi.encodePacked(\"Product_producer\", _name)));\r\n  }\r\n  function getProductGrade(\r\n    address _storageContract,\r\n     bytes32 _name\r\n   ) public constant returns(string){\r\n\r\n    return ExternalStorage(_storageContract).getStringValue(keccak256(abi.encodePacked(\"Product_grade\", _name)));\r\n  }\r\n\r\n  function getProductQuantity(\r\n    address _storageContract,\r\n    bytes32 _name\r\n    )public constant returns(uint){\r\n      // bytes32 name_hash = keccak256(abi.encodePacked(\"Product_name\", idx));\r\n      return ExternalStorage(_storageContract).getUIntValue(keccak256(abi.encodePacked(\"Product_quantity\", _name)));\r\n\r\n  }\r\n   function getProductIndex(\r\n     address _storageContract,\r\n      bytes32 _name\r\n      )public constant returns(uint){\r\n       // bytes32 name_hash = keccak256(abi.encodePacked(\"Product_name\", idx));\r\n       return ExternalStorage(_storageContract).getUIntValue(keccak256(abi.encodePacked(_name)));\r\n\r\n   }\r\n   function getProductbyIndex(\r\n     address _storageContract,\r\n     uint _index\r\n     )public constant returns(bytes){\r\n       return ExternalStorage(_storageContract).getBytesValue(keccak256(abi.encodePacked(\"Product_name\", _index)));\r\n\r\n   }\r\n\r\n   function setProductPrice(\r\n     address _storageContract,\r\n      bytes32 _name,\r\n       uint256 _price\r\n       ) public returns(uint256) {\r\n       ExternalStorage(_storageContract).setUInt256Value(keccak256(abi.encodePacked(\"Product_price\", _name)), _price);\r\n       return getProductPrice( _storageContract, _name );\r\n   }\r\n   function setProductQuantity(\r\n     address _storageContract,\r\n     bytes32 _name,\r\n      uint _quantity\r\n      ) public  returns(uint) {\r\n       ExternalStorage(_storageContract).setUIntValue(keccak256(abi.encodePacked(\"Product_quantity\", _name)), _quantity);\r\n       return getProductPrice( _storageContract, _name );\r\n   }\r\n  function setOwnerAddress(\r\n    address _storageContract,\r\n     bytes32 _name\r\n     ) public returns (address){\r\n      ExternalStorage(_storageContract).setAddressValue(keccak256(abi.encodePacked(_name)), msg.sender);\r\n      return  ExternalStorage(_storageContract).getAddressValue(keccak256(abi.encodePacked(_name)));\r\n  }\r\n\r\n}\r\n",
  "sourcePath": "/home/kelvin/Desktop/AgroAfrica/agroafricachain_solidity/contracts/ProductsLibrary.sol",
  "compiler": {
    "name": "solc",
    "version": "0.4.26+commit.4563c3fc.Emscripten.clang"
  },
  "schemaVersion": "3.2.5",
  "updatedAt": "2020-09-29T10:15:22.866Z",
  "devdoc": {
    "author": "Kelvin Ndereba\r GandH Blockchain Solutions\r",
    "methods": {},
    "title": "Product Information Management Smart Contract\r "
  },
  "userdoc": {
    "methods": {}
  }
}