{
  "contractName": "sell",
  "abi": [
    {
      "constant": true,
      "inputs": [],
      "name": "user",
      "outputs": [
        {
          "name": "",
          "type": "address"
        }
      ],
      "payable": false,
      "stateMutability": "view",
      "type": "function"
    },
    {
      "constant": true,
      "inputs": [],
      "name": "order",
      "outputs": [
        {
          "name": "",
          "type": "address"
        }
      ],
      "payable": false,
      "stateMutability": "view",
      "type": "function"
    },
    {
      "constant": true,
      "inputs": [],
      "name": "product",
      "outputs": [
        {
          "name": "",
          "type": "address"
        }
      ],
      "payable": false,
      "stateMutability": "view",
      "type": "function"
    },
    {
      "constant": true,
      "inputs": [],
      "name": "externalStore",
      "outputs": [
        {
          "name": "",
          "type": "address"
        }
      ],
      "payable": false,
      "stateMutability": "view",
      "type": "function"
    },
    {
      "constant": true,
      "inputs": [],
      "name": "deliver",
      "outputs": [
        {
          "name": "",
          "type": "address"
        }
      ],
      "payable": false,
      "stateMutability": "view",
      "type": "function"
    },
    {
      "inputs": [
        {
          "name": "_deliver",
          "type": "address"
        },
        {
          "name": "_externalStore",
          "type": "address"
        },
        {
          "name": "_user",
          "type": "address"
        },
        {
          "name": "_order",
          "type": "address"
        },
        {
          "name": "_product",
          "type": "address"
        }
      ],
      "payable": false,
      "stateMutability": "nonpayable",
      "type": "constructor"
    },
    {
      "anonymous": false,
      "inputs": [
        {
          "indexed": false,
          "name": "_orderId",
          "type": "uint256"
        },
        {
          "indexed": false,
          "name": "_buyer",
          "type": "address"
        },
        {
          "indexed": false,
          "name": "_seller",
          "type": "address"
        },
        {
          "indexed": false,
          "name": "_quantity",
          "type": "uint256"
        },
        {
          "indexed": false,
          "name": "_subTotal",
          "type": "uint256"
        }
      ],
      "name": "sales",
      "type": "event"
    },
    {
      "constant": false,
      "inputs": [
        {
          "name": "_prodName",
          "type": "string"
        },
        {
          "name": "_buyer",
          "type": "address"
        },
        {
          "name": "_quantity",
          "type": "uint256"
        },
        {
          "name": "_orderId",
          "type": "uint256"
        },
        {
          "name": "_destination",
          "type": "string"
        },
        {
          "name": "_ethPrice",
          "type": "uint256"
        }
      ],
      "name": "sellProduct",
      "outputs": [],
      "payable": false,
      "stateMutability": "nonpayable",
      "type": "function"
    }
  ],
  "bytecode": "0x608060405234801561001057600080fd5b5060405160a0806117f28339810180604052810190808051906020019092919080519060200190929190805190602001909291908051906020019092919080519060200190929190505050600073ffffffffffffffffffffffffffffffffffffffff163373ffffffffffffffffffffffffffffffffffffffff161415151561009757600080fd5b846000806101000a81548173ffffffffffffffffffffffffffffffffffffffff021916908373ffffffffffffffffffffffffffffffffffffffff16021790555083600160006101000a81548173ffffffffffffffffffffffffffffffffffffffff021916908373ffffffffffffffffffffffffffffffffffffffff16021790555082600260006101000a81548173ffffffffffffffffffffffffffffffffffffffff021916908373ffffffffffffffffffffffffffffffffffffffff16021790555081600360006101000a81548173ffffffffffffffffffffffffffffffffffffffff021916908373ffffffffffffffffffffffffffffffffffffffff16021790555080600460006101000a81548173ffffffffffffffffffffffffffffffffffffffff021916908373ffffffffffffffffffffffffffffffffffffffff1602179055505050505050611603806101ef6000396000f300608060405260043610610078576000357c0100000000000000000000000000000000000000000000000000000000900463ffffffff1680634f8632ba1461007d57806363204f18146100d4578063bf15071d146101c1578063bf9ce95214610218578063c4aab2961461026f578063fd3e50a7146102c6575b600080fd5b34801561008957600080fd5b5061009261031d565b604051808273ffffffffffffffffffffffffffffffffffffffff1673ffffffffffffffffffffffffffffffffffffffff16815260200191505060405180910390f35b3480156100e057600080fd5b506101bf600480360381019080803590602001908201803590602001908080601f0160208091040260200160405190810160405280939291908181526020018383808284378201915050505050509192919290803573ffffffffffffffffffffffffffffffffffffffff1690602001909291908035906020019092919080359060200190929190803590602001908201803590602001908080601f016020809104026020016040519081016040528093929190818152602001838380828437820191505050505050919291929080359060200190929190505050610343565b005b3480156101cd57600080fd5b506101d66114f2565b604051808273ffffffffffffffffffffffffffffffffffffffff1673ffffffffffffffffffffffffffffffffffffffff16815260200191505060405180910390f35b34801561022457600080fd5b5061022d611518565b604051808273ffffffffffffffffffffffffffffffffffffffff1673ffffffffffffffffffffffffffffffffffffffff16815260200191505060405180910390f35b34801561027b57600080fd5b5061028461153e565b604051808273ffffffffffffffffffffffffffffffffffffffff1673ffffffffffffffffffffffffffffffffffffffff16815260200191505060405180910390f35b3480156102d257600080fd5b506102db611564565b604051808273ffffffffffffffffffffffffffffffffffffffff1673ffffffffffffffffffffffffffffffffffffffff16815260200191505060405180910390f35b600260009054906101000a900473ffffffffffffffffffffffffffffffffffffffff1681565b600080600073ffffffffffffffffffffffffffffffffffffffff163373ffffffffffffffffffffffffffffffffffffffff161415151561038257600080fd5b600260009054906101000a900473ffffffffffffffffffffffffffffffffffffffff1673ffffffffffffffffffffffffffffffffffffffff16634209fff1336040518263ffffffff167c0100000000000000000000000000000000000000000000000000000000028152600401808273ffffffffffffffffffffffffffffffffffffffff1673ffffffffffffffffffffffffffffffffffffffff168152602001915050602060405180830381600087803b15801561043f57600080fd5b505af1158015610453573d6000803e3d6000fd5b505050506040513d602081101561046957600080fd5b8101908080519060200190929190505050801561057a5750600260009054906101000a900473ffffffffffffffffffffffffffffffffffffffff1673ffffffffffffffffffffffffffffffffffffffff16634209fff1886040518263ffffffff167c0100000000000000000000000000000000000000000000000000000000028152600401808273ffffffffffffffffffffffffffffffffffffffff1673ffffffffffffffffffffffffffffffffffffffff168152602001915050602060405180830381600087803b15801561053e57600080fd5b505af1158015610552573d6000803e3d6000fd5b505050506040513d602081101561056857600080fd5b81019080805190602001909291905050505b151561058557600080fd5b6000861180156106c55750600460009054906101000a900473ffffffffffffffffffffffffffffffffffffffff1673ffffffffffffffffffffffffffffffffffffffff1663a8582537896040518263ffffffff167c01000000000000000000000000000000000000000000000000000000000281526004018080602001828103825283818151815260200191508051906020019080838360005b8381101561063a57808201518184015260208101905061061f565b50505050905090810190601f1680156106675780820380516001836020036101000a031916815260200191505b5092505050602060405180830381600087803b15801561068657600080fd5b505af115801561069a573d6000803e3d6000fd5b505050506040513d60208110156106b057600080fd5b81019080805190602001909291905050508611155b15156106d057600080fd5b600460009054906101000a900473ffffffffffffffffffffffffffffffffffffffff1673ffffffffffffffffffffffffffffffffffffffff1663b1514942896040518263ffffffff167c01000000000000000000000000000000000000000000000000000000000281526004018080602001828103825283818151815260200191508051906020019080838360005b8381101561077a57808201518184015260208101905061075f565b50505050905090810190601f1680156107a75780820380516001836020036101000a031916815260200191505b5092505050602060405180830381600087803b1580156107c657600080fd5b505af11580156107da573d6000803e3d6000fd5b505050506040513d60208110156107f057600080fd5b8101908080519060200190929190505050915061094686600460009054906101000a900473ffffffffffffffffffffffffffffffffffffffff1673ffffffffffffffffffffffffffffffffffffffff1663524f38898b6040518263ffffffff167c01000000000000000000000000000000000000000000000000000000000281526004018080602001828103825283818151815260200191508051906020019080838360005b838110156108b1578082015181840152602081019050610896565b50505050905090810190601f1680156108de5780820380516001836020036101000a031916815260200191505b5092505050602060405180830381600087803b1580156108fd57600080fd5b505af1158015610911573d6000803e3d6000fd5b505050506040513d602081101561092757600080fd5b810190808051906020019092919050505061158990919063ffffffff16565b9050600460009054906101000a900473ffffffffffffffffffffffffffffffffffffffff1673ffffffffffffffffffffffffffffffffffffffff166333e3f84b8387846040518463ffffffff167c0100000000000000000000000000000000000000000000000000000000028152600401808473ffffffffffffffffffffffffffffffffffffffff1673ffffffffffffffffffffffffffffffffffffffff1681526020018381526020018281526020019350505050600060405180830381600087803b158015610a1557600080fd5b505af1158015610a29573d6000803e3d6000fd5b50505050600460009054906101000a900473ffffffffffffffffffffffffffffffffffffffff1673ffffffffffffffffffffffffffffffffffffffff1663eaebd9df8887846040518463ffffffff167c0100000000000000000000000000000000000000000000000000000000028152600401808473ffffffffffffffffffffffffffffffffffffffff1673ffffffffffffffffffffffffffffffffffffffff1681526020018381526020018281526020019350505050600060405180830381600087803b158015610afa57600080fd5b505af1158015610b0e573d6000803e3d6000fd5b50505050600460009054906101000a900473ffffffffffffffffffffffffffffffffffffffff1673ffffffffffffffffffffffffffffffffffffffff166342dc4e8b8387610b6587866115c190919063ffffffff16565b6040518463ffffffff167c0100000000000000000000000000000000000000000000000000000000028152600401808473ffffffffffffffffffffffffffffffffffffffff1673ffffffffffffffffffffffffffffffffffffffff1681526020018381526020018281526020019350505050600060405180830381600087803b158015610bf157600080fd5b505af1158015610c05573d6000803e3d6000fd5b50505050600460009054906101000a900473ffffffffffffffffffffffffffffffffffffffff1673ffffffffffffffffffffffffffffffffffffffff166315b917278887610c5c87866115c190919063ffffffff16565b6040518463ffffffff167c0100000000000000000000000000000000000000000000000000000000028152600401808473ffffffffffffffffffffffffffffffffffffffff1673ffffffffffffffffffffffffffffffffffffffff1681526020018381526020018281526020019350505050600060405180830381600087803b158015610ce857600080fd5b505af1158015610cfc573d6000803e3d6000fd5b50505050600360009054906101000a900473ffffffffffffffffffffffffffffffffffffffff1673ffffffffffffffffffffffffffffffffffffffff1663882cca8186898985896040518663ffffffff167c0100000000000000000000000000000000000000000000000000000000028152600401808681526020018573ffffffffffffffffffffffffffffffffffffffff1673ffffffffffffffffffffffffffffffffffffffff16815260200184815260200183815260200180602001828103825283818151815260200191508051906020019080838360005b83811015610df2578082015181840152602081019050610dd7565b50505050905090810190601f168015610e1f5780820380516001836020036101000a031916815260200191505b509650505050505050608060405180830381600087803b158015610e4257600080fd5b505af1158015610e56573d6000803e3d6000fd5b505050506040513d6080811015610e6c57600080fd5b810190808051906020019092919080519060200190929190805190602001909291908051906020019092919050505050505050600460009054906101000a900473ffffffffffffffffffffffffffffffffffffffff1673ffffffffffffffffffffffffffffffffffffffff16636021494289886040518363ffffffff167c01000000000000000000000000000000000000000000000000000000000281526004018080602001838152602001828103825284818151815260200191508051906020019080838360005b83811015610f50578082015181840152602081019050610f35565b50505050905090810190601f168015610f7d5780820380516001836020036101000a031916815260200191505b509350505050600060405180830381600087803b158015610f9d57600080fd5b505af1158015610fb1573d6000803e3d6000fd5b5050505073__ProductsLibrary_______________________632fedb88b600160009054906101000a900473ffffffffffffffffffffffffffffffffffffffff168a60405160200180807f50726f647563745f6e616d650000000000000000000000000000000000000000815250600c0182805190602001908083835b602083101515611053578051825260208201915060208101905060208303925061102e565b6001836020036101000a0380198251168184511680821785525050505050509050019150506040516020818303038152906040526040518082805190602001908083835b6020831015156110bc5780518252602082019150602081019050602083039250611097565b6001836020036101000a0380198251168184511680821785525050505050509050019150506040518091039020600460009054906101000a900473ffffffffffffffffffffffffffffffffffffffff1673ffffffffffffffffffffffffffffffffffffffff1663a85825378d6040518263ffffffff167c01000000000000000000000000000000000000000000000000000000000281526004018080602001828103825283818151815260200191508051906020019080838360005b83811015611193578082015181840152602081019050611178565b50505050905090810190601f1680156111c05780820380516001836020036101000a031916815260200191505b5092505050602060405180830381600087803b1580156111df57600080fd5b505af11580156111f3573d6000803e3d6000fd5b505050506040513d602081101561120957600080fd5b81019080805190602001909291905050506040518463ffffffff167c0100000000000000000000000000000000000000000000000000000000028152600401808473ffffffffffffffffffffffffffffffffffffffff1673ffffffffffffffffffffffffffffffffffffffff1681526020018360001916600019168152602001828152602001935050505060206040518083038186803b1580156112ac57600080fd5b505af41580156112c0573d6000803e3d6000fd5b505050506040513d60208110156112d657600080fd5b8101908080519060200190929190505050506000809054906101000a900473ffffffffffffffffffffffffffffffffffffffff1673ffffffffffffffffffffffffffffffffffffffff166392952d4e888689896040518563ffffffff167c0100000000000000000000000000000000000000000000000000000000028152600401808573ffffffffffffffffffffffffffffffffffffffff1673ffffffffffffffffffffffffffffffffffffffff16815260200180602001848152602001838152602001828103825285818151815260200191508051906020019080838360005b838110156113d25780820151818401526020810190506113b7565b50505050905090810190601f1680156113ff5780820380516001836020036101000a031916815260200191505b5095505050505050600060405180830381600087803b15801561142157600080fd5b505af1158015611435573d6000803e3d6000fd5b505050507ffa308974d50d8aceff4e2a7e11921e24c2b41d1b629257ddafc044afa2f6b06d8588848985604051808681526020018573ffffffffffffffffffffffffffffffffffffffff1673ffffffffffffffffffffffffffffffffffffffff1681526020018473ffffffffffffffffffffffffffffffffffffffff1673ffffffffffffffffffffffffffffffffffffffff1681526020018381526020018281526020019550505050505060405180910390a15050505050505050565b600360009054906101000a900473ffffffffffffffffffffffffffffffffffffffff1681565b600460009054906101000a900473ffffffffffffffffffffffffffffffffffffffff1681565b600160009054906101000a900473ffffffffffffffffffffffffffffffffffffffff1681565b6000809054906101000a900473ffffffffffffffffffffffffffffffffffffffff1681565b60008083141561159c57600090506115bb565b81830290508183828115156115ad57fe5b041415156115b757fe5b8090505b92915050565b600081838115156115ce57fe5b049050929150505600a165627a7a7230582077f80ebbc0afc17b8ab0597a8795f923da74f15bc3a31a3dc734dd828e1a08a20029",
  "source": "pragma solidity ^0.4.23;\nimport \"./SafeMath.sol\";\nimport \"./ExternalStorage.sol\";\nimport \"./orders.sol\";\nimport \"./delivery.sol\";\nimport \"./ProductsLibrary.sol\";\nimport \"./users.sol\";\nimport \"./products.sol\";\n\ncontract sell {\nusing ProductsLibrary for address;\nusing SafeMath for uint256;\ndelivery public deliver;\n\nExternalStorage public  externalStore;\nusers public user;\n\norders public order;\n\nproducts public product;\n\nevent sales(uint _orderId, address _buyer, address _seller, uint256 _quantity, uint256 _subTotal);\n\nconstructor(delivery _deliver, ExternalStorage _externalStore, users _user, orders _order, products _product) public{\n        require(msg.sender != address(0));\n        deliver = _deliver;\n        externalStore = _externalStore;\n        user = _user;\n        order = _order;\n        product = _product;\n    }\n\nfunction sellProduct(\n   string _prodName,\n   address _buyer,\n   uint256 _quantity,\n   uint _orderId,\n   string _destination,\n   uint256 _ethPrice\n ) public  /** returns (address, string, string, uint, uint256) **/ {\n   require(msg.sender != address(0));\n   //require(userList[_farmer] == true);\n   require (user.isUser(msg.sender) && user.isUser(_buyer));\n   require(_quantity > 0 && _quantity <= product.getQuantity(_prodName));\n\n   //require(isLocation[keccak256(abi.encodePacked(_destination))] == true);\n   address _farmer = product.getFarmer(_prodName);\n\n\n   //productTitle[farmer].quantity = produceList[farmer].quantity.sub(_quantity);\n   uint256 _amountPayable = product.getPrice(_prodName).mul(_quantity);\n   //  _farmer = product.getFarmer(_prodName);\n\n   product.addAmountRecievable(_farmer, _orderId, _amountPayable);\n   //produceList[msg.sender].quantity = produceList[msg.sender].quantity.add(_quantity);\n   product.addAmountPayable(_buyer, _orderId, _amountPayable);\n\n   product.addAmountRecievableEth(_farmer, _orderId, _amountPayable.div(_ethPrice));\n\n   product.addAmountPayableEth(_buyer, _orderId, _amountPayable.div(_ethPrice));\n   //uint _orderIndex = noOfOrders;\n   order.createAddToOrder(_orderId,_buyer, _quantity, _amountPayable, _destination);\n\n\n   //bytes32 theProd = keccak256(abi.encodePacked(\"Product_name\", _prodName));\n\n\n   product.setQuantity(_prodName, _quantity);\n\n\n   ProductsLibrary.setProductQuantity(externalStore, keccak256(abi.encodePacked(\"Product_name\", _prodName)), product.getQuantity(_prodName));\n\n   deliver.addDeliveryInfo(_buyer, _destination, _quantity, _orderId);\nemit sales(_orderId, _buyer , _farmer, _quantity, _amountPayable);\n//emit newOrder(_orderIndex, _buyer, _quantity, _quantity.mul(ProductsLibrary.getProductPrice(externalStore, keccak256(abi.encodePacked(\"Product_name\", _prodName)))));\n//incrementOrders();\n//return (msg.sender, _destination,  _prodName, noOfOrders, _quantity);\n}\n}\n",
  "sourcePath": "/home/kelvin/Desktop/AgroAfrica/agroafricachain_solidity/contracts/sell.sol",
  "compiler": {
    "name": "solc",
    "version": "0.4.26+commit.4563c3fc.Emscripten.clang"
  },
  "schemaVersion": "3.2.5",
  "updatedAt": "2020-11-03T23:24:37.467Z",
  "devdoc": {
    "methods": {}
  },
  "userdoc": {
    "methods": {}
  }
}