{
  "contractName": "users",
  "abi": [
    {
      "constant": true,
      "inputs": [
        {
          "name": "",
          "type": "address"
        }
      ],
      "name": "userList",
      "outputs": [
        {
          "name": "",
          "type": "bool"
        }
      ],
      "payable": false,
      "stateMutability": "view",
      "type": "function"
    },
    {
      "constant": true,
      "inputs": [],
      "name": "noOfusers",
      "outputs": [
        {
          "name": "",
          "type": "uint256"
        }
      ],
      "payable": false,
      "stateMutability": "view",
      "type": "function"
    },
    {
      "constant": true,
      "inputs": [],
      "name": "admin",
      "outputs": [
        {
          "name": "",
          "type": "address"
        }
      ],
      "payable": false,
      "stateMutability": "view",
      "type": "function"
    },
    {
      "inputs": [],
      "payable": false,
      "stateMutability": "nonpayable",
      "type": "constructor"
    },
    {
      "anonymous": false,
      "inputs": [
        {
          "indexed": false,
          "name": "_userName",
          "type": "string"
        },
        {
          "indexed": false,
          "name": "_userCategory",
          "type": "uint8"
        },
        {
          "indexed": false,
          "name": "_userAddress",
          "type": "address"
        }
      ],
      "name": "newUser",
      "type": "event"
    },
    {
      "constant": false,
      "inputs": [
        {
          "name": "_name",
          "type": "string"
        },
        {
          "name": "_category",
          "type": "uint8"
        },
        {
          "name": "_user",
          "type": "address"
        }
      ],
      "name": "addUser",
      "outputs": [
        {
          "name": "",
          "type": "string"
        },
        {
          "name": "",
          "type": "uint8"
        },
        {
          "name": "",
          "type": "address"
        }
      ],
      "payable": false,
      "stateMutability": "nonpayable",
      "type": "function"
    },
    {
      "constant": false,
      "inputs": [
        {
          "name": "_user",
          "type": "address"
        }
      ],
      "name": "blacklistUser",
      "outputs": [],
      "payable": false,
      "stateMutability": "nonpayable",
      "type": "function"
    },
    {
      "constant": true,
      "inputs": [
        {
          "name": "_user",
          "type": "address"
        }
      ],
      "name": "isUser",
      "outputs": [
        {
          "name": "",
          "type": "bool"
        }
      ],
      "payable": false,
      "stateMutability": "view",
      "type": "function"
    }
  ],
  "bytecode": "0x608060405234801561001057600080fd5b50600073ffffffffffffffffffffffffffffffffffffffff163373ffffffffffffffffffffffffffffffffffffffff161415151561004d57600080fd5b33600160006101000a81548173ffffffffffffffffffffffffffffffffffffffff021916908373ffffffffffffffffffffffffffffffffffffffff1602179055506109c28061009d6000396000f300608060405260043610610078576000357c0100000000000000000000000000000000000000000000000000000000900463ffffffff1680631b4e7bd21461007d57806326f38326146100d85780634209fff114610103578063c9a2bc751461015e578063f851a440146102b5578063fcbca4561461030c575b600080fd5b34801561008957600080fd5b506100be600480360381019080803573ffffffffffffffffffffffffffffffffffffffff16906020019092919050505061034f565b604051808215151515815260200191505060405180910390f35b3480156100e457600080fd5b506100ed61036f565b6040518082815260200191505060405180910390f35b34801561010f57600080fd5b50610144600480360381019080803573ffffffffffffffffffffffffffffffffffffffff169060200190929190505050610375565b604051808215151515815260200191505060405180910390f35b34801561016a57600080fd5b506101f2600480360381019080803590602001908201803590602001908080601f0160208091040260200160405190810160405280939291908181526020018383808284378201915050505050509192919290803560ff169060200190929190803573ffffffffffffffffffffffffffffffffffffffff1690602001909291905050506103cb565b604051808060200184600281111561020657fe5b60ff1681526020018373ffffffffffffffffffffffffffffffffffffffff1673ffffffffffffffffffffffffffffffffffffffff168152602001828103825285818151815260200191508051906020019080838360005b8381101561027857808201518184015260208101905061025d565b50505050905090810190601f1680156102a55780820380516001836020036101000a031916815260200191505b5094505050505060405180910390f35b3480156102c157600080fd5b506102ca610740565b604051808273ffffffffffffffffffffffffffffffffffffffff1673ffffffffffffffffffffffffffffffffffffffff16815260200191505060405180910390f35b34801561031857600080fd5b5061034d600480360381019080803573ffffffffffffffffffffffffffffffffffffffff169060200190929190505050610766565b005b60026020528060005260406000206000915054906101000a900460ff1681565b60005481565b6000600260008373ffffffffffffffffffffffffffffffffffffffff1673ffffffffffffffffffffffffffffffffffffffff16815260200190815260200160002060009054906101000a900460ff169050919050565b6060600080600160009054906101000a900473ffffffffffffffffffffffffffffffffffffffff1673ffffffffffffffffffffffffffffffffffffffff163373ffffffffffffffffffffffffffffffffffffffff16141515610495576040517f08c379a00000000000000000000000000000000000000000000000000000000081526004018080602001828103825260128152602001807f4f6e6c792041646d696e20416c6c6f776564000000000000000000000000000081525060200191505060405180910390fd5b600073ffffffffffffffffffffffffffffffffffffffff168473ffffffffffffffffffffffffffffffffffffffff16141515156104d157600080fd5b60001515600260008673ffffffffffffffffffffffffffffffffffffffff1673ffffffffffffffffffffffffffffffffffffffff16815260200190815260200160002060009054906101000a900460ff16151514151561053057600080fd5b6001600260008673ffffffffffffffffffffffffffffffffffffffff1673ffffffffffffffffffffffffffffffffffffffff16815260200190815260200160002060006101000a81548160ff02191690831515021790555085600360008673ffffffffffffffffffffffffffffffffffffffff1673ffffffffffffffffffffffffffffffffffffffff16815260200190815260200160002090805190602001906105db9291906108f1565b5084600460008673ffffffffffffffffffffffffffffffffffffffff1673ffffffffffffffffffffffffffffffffffffffff16815260200190815260200160002060006101000a81548160ff0219169083600281111561063757fe5b02179055506001600054016000819055507ff76d500aa9a4f4c65f39223bc17cc012eb74d5320c096bf48675e39997d97807868686604051808060200184600281111561068057fe5b60ff1681526020018373ffffffffffffffffffffffffffffffffffffffff1673ffffffffffffffffffffffffffffffffffffffff168152602001828103825285818151815260200191508051906020019080838360005b838110156106f25780820151818401526020810190506106d7565b50505050905090810190601f16801561071f5780820380516001836020036101000a031916815260200191505b5094505050505060405180910390a185858592509250925093509350939050565b600160009054906101000a900473ffffffffffffffffffffffffffffffffffffffff1681565b600160009054906101000a900473ffffffffffffffffffffffffffffffffffffffff1673ffffffffffffffffffffffffffffffffffffffff163373ffffffffffffffffffffffffffffffffffffffff1614151561082b576040517f08c379a00000000000000000000000000000000000000000000000000000000081526004018080602001828103825260128152602001807f4f6e6c792041646d696e20416c6c6f776564000000000000000000000000000081525060200191505060405180910390fd5b60011515600260008373ffffffffffffffffffffffffffffffffffffffff1673ffffffffffffffffffffffffffffffffffffffff16815260200190815260200160002060009054906101000a900460ff16151514151561088a57600080fd5b6000600260008373ffffffffffffffffffffffffffffffffffffffff1673ffffffffffffffffffffffffffffffffffffffff16815260200190815260200160002060006101000a81548160ff02191690831515021790555060016000540360008190555050565b828054600181600116156101000203166002900490600052602060002090601f016020900481019282601f1061093257805160ff1916838001178555610960565b82800160010185558215610960579182015b8281111561095f578251825591602001919060010190610944565b5b50905061096d9190610971565b5090565b61099391905b8082111561098f576000816000905550600101610977565b5090565b905600a165627a7a7230582051875909a842ec0cc4721593fb5a30d2be590562be129e9ce40d3f4c336bfbe10029",
  "source": "pragma solidity ^0.4.23;\ncontract users {\nuint public noOfusers;\naddress public admin;\n\nenum Roles {Admin, Farmer, Buyer}\n\nevent newUser(string _userName, Roles _userCategory, address _userAddress);\n\nmapping (address => bool) public userList;\nmapping(address => string) userLink;\nmapping(address => Roles) userCategory;\n\n\nconstructor() public{\n        require(msg.sender != address(0));\n        admin = msg.sender;\n    }\n    modifier onlyUser(address _userAddress) {\n        require(userList[_userAddress] == true, \"Only Registered Users Allowed\");\n          _;\n      }\n    modifier onlyAdmin() {\n       require(msg.sender == admin, \"Only Admin Allowed\");\n       _;\n    }\n\nfunction addUser(\n  string _name,\n   Roles _category,\n   address _user\n ) public onlyAdmin returns( string, Roles, address){\n     require(_user != address(0));\n      require(userList[_user] == false);\n      userList[_user] = true;\n\n     // userName[keccak256(abi.encodePacked(_name))] = _user;\n      userLink[_user] = _name;\n      userCategory[_user] = _category;\n      noOfusers = noOfusers + 1;\n\n      emit newUser(_name, _category, _user);\n      return (_name, _category, _user);\n    }\n\n    function blacklistUser(\n       address _user\n       ) public onlyAdmin {\n          require(userList[_user] == true);\n          userList[_user] = false;\n          noOfusers = noOfusers - 1;\n        }\n\n        function isUser(address _user) view external returns (bool){\n        return userList[_user];\n        }\n}\n",
  "sourcePath": "/home/kelvin/Desktop/AgroAfrica/agroafricachain_solidity/contracts/users.sol",
  "compiler": {
    "name": "solc",
    "version": "0.4.26+commit.4563c3fc.Emscripten.clang"
  },
  "schemaVersion": "3.2.5",
  "updatedAt": "2020-11-03T12:32:55.658Z",
  "devdoc": {
    "methods": {}
  },
  "userdoc": {
    "methods": {}
  }
}